:020000041001E9
:1000000000300030CF2C01107D2C01107D2C011010
:1000100000000000000000000000000000000000E0
:100020000000000000000000000000007D2C011016
:1000300000000000000000007D2C01107D2C01104C
:100040007D2C01107D2C01107D2C01107D2C0110C8
:100050007D2C01107D2C01107D2C01107D2C0110B8
:100060007D2C01107D2C01107D2C01107D2C0110A8
:100070007D2C01107D2C01107D2C01107D2C011098
:100080007D2C01107D2C01107D2C01107D2C011088
:100090007D2C01107D2C01107D2C01107D2C011078
:1000A0007D2C01107D2C01107D2C01107D2C011068
:1000B0007D2C01107D2C01107D2C01107D2C011058
:1000C0007D2C01107D2C01107D2C01107D2C011048
:1000D0007D2C01107D2C01107D2C01107D2C011038
:1000E0007D2C01107D2C01107D2C01107D2C011028
:1000F0007D2C01107D2C01107D2C01107D2C011018
:100100007D2C01107D2C01107D2C01107D2C011007
:100110007D2C01107D2C01107D2C01107D2C0110F7
:100120007D2C01107D2C01107D2C01107D2C0110E7
:100130007D2C01107D2C01107D2C01107D2C0110D7
:100140007D2C01107D2C01107D2C01107D2C0110C7
:100150007D2C01107D2C01107D2C01107D2C0110B7
:100160007D2C01107D2C01107D2C01107D2C0110A7
:100170007D2C01107D2C01107D2C01107D2C011097
:100180007D2C01107D2C01107D2C01107D2C011087
:100190007D2C01107D2C01107D2C01107D2C011077
:1001A0007D2C01107D2C01107D2C01107D2C011067
:1001B0007D2C01107D2C01107D2C01107D2C011057
:1001C0007D2C01107D2C01107D2C01107D2C011047
:1001D0007D2C01107D2C011000F002F800F0B5F824
:1001E0000CA030C8083824182D18671EA246AB464C
:1001F00054465D46AC4201D100F0A7F87E460F3E62
:10020000B6460FCC0126334200D0FB1A3343A24638
:10021000AB461847E48A0000048B0000002300244A
:1002200000250026103A01D378C1FBD8520700D32D
:1002300030C100D50B60704710B56E2902D100F0B7
:100240008CFE10BD702902D100F0A9FA10BD6629FC
:1002500002D107F04DFB10BD652902D107F048FB24
:1002600010BD672902D107F043FB10BD612902D1FF
:1002700007F046FB10BD03681B0A01D38023194316
:10028000692902D100F016FA10BD642902D100F0EC
:1002900011FA10BD752902D100F00CFA10BD6F29BA
:1002A00002D100F075FF10BD782902D100F064FA88
:1002B00010BDE92902D100F011FF10BDE42902D1DF
:1002C00000F00CFF10BDF52902D100F007FF10BDB2
:1002D000EF2902D100F068FF10BDF82902D100F02B
:1002E00059FA10BD0368DB0901D380231943632940
:1002F00002D100F075FE10BD732902D100F078FE26
:1003000010BDE32902D101F056FE10BDF32902D140
:1003100001F059FE10BD002010BD1FB500980199D5
:1003200000F07DFD01F080FE04000020002107F0B8
:10033000B3FA401C60600020002107F0C3FAE060BF
:1003400001F0F8F800F03AFD1FBD0648854603B4F9
:1003500005F05CF903BC02F069FA02F07BFA05F0E3
:1003600095FC00000030003070B505460C4616467E
:1003700002E00FCC0FC5103E102EFAD2082E02D389
:1003800003CC03C5083E042E07D301CC01C5361F9C
:1003900003E021782970641C6D1C761EF9D270BDB3
:1003A00070470000004870471433003070B50646AF
:1003B00000F018FD056830460B30C408E400B44274
:1003C00001D8002070BD68682A46002818D001684E
:1003D000A14211D30B46214608318B4208D3436812
:1003E00001194B6003681B1B0B605160046001E046
:1003F00041685160001D70BD024640680028E6D18A
:100400002146284600F0F6FC0028DCD170BD70B50E
:100410000446051F00F0E6FC0068002C1AD0446872
:1004200001E020466468002C01D0AC42F9D3016899
:100430000A18AA4204D12A6805468918016000E01A
:10044000456028684119A14205D161686960216849
:100450004018286070BD6C6070BD10B5202A04DBA8
:100460000146203A9140002010BD914020239C1A63
:100470000346E3401943904010BD10B5202A04DB29
:100480000846203AD040002110BD0B462024D3401E
:10049000D040A21A91400843194610BD434351432E
:1004A00030B55C18010C130C0D4692B25D4380B25E
:1004B00051432C19054655430A0C09044D19624154
:1004C0005843010C00044019514130BDFEB50546AA
:1004D00010460C46184373D0AE468C460020AD1A29
:1004E00001469C4167D36646002701243D46B61A63
:1004F0009D4102D313463A462124654676462F0491
:10050000360C3E432D0CB61A9D4104D3150C1B042A
:100510002B4312041034654676462F06360A3E43B6
:100520002D0AB61A9D4104D3150E1B022B4312024D
:100530000834654676462F0736093E432D09B61A1C
:100540009D4104D3150F1B012B431201241D654649
:100550007646AF07B6083E43AD08B61A9D4104D3B0
:10056000950F9B002B439200A41C65467646EF072F
:1005700076083E436D08B61A9D411AD392185B4126
:10058000641C16E00018764665464941B71A9D413D
:100590000191009009D36046B11A98418E46844675
:1005A000009801990025401C6941DD0752082A4343
:1005B0005B08641EE6D57246634603B0F0BDFFE7F4
:1005C00000200146C046C0462A462346F5E710B53E
:1005D0000B460146184600F00FFD10BD7CB51D46C8
:1005E00016460C00009001D00019401E084B7B44B9
:1005F0002A4669460190304600F0C7FC002C0546AB
:1006000003D06946002000F0D3FC28467CBD0000E2
:10061000C909000070B5044685690068C10601D5A6
:10062000302600E02026C00707D070BD6268304643
:10063000A1689047206A401C20626D1EF6D570BDEF
:1006400070B5044685690078C00707D170BD62683F
:10065000A16820209047206A401C20626D1EF6D5BC
:1006600070BD70B50C460546012A05D02878800675
:1006700000D5EA69002302E0012305E05B1C9342F8
:1006800002D2E05C0028F9D1A869E618C01AA86176
:10069000286AC01828622846FFF7BCFF04E06A6891
:1006A0002078A968641C9047B442F8D32846FFF725
:1006B000C7FF70BDF7B5002575291068009914A60D
:1006C00011D000F0E0FB002802DA404211A608E059
:1006D000009909688A0701D50FA602E0490704D5E9
:1006E0000EA6012501E000F0D7FB009F002424376F
:1006F00004E001F06AF830313955641C0028F8D163
:100700002B4632462146009800F0CFFBFEBD00008C
:10071000000000002D0000002B0000002000000061
:10072000F8B50F460188090502D5224C7C4402E049
:10073000204C7C440E3405460021243508E0160781
:100740001209360FA65D6E541E0732431B09491C61
:1007500016461E43F3D1224604780023240705D50C
:10076000702F06D0002901D00223113200F09DFB2A
:10077000F8BD01231032F9E770B504460D46214655
:10078000106800F089FB0023024629462046FFF747
:10079000C7FF70BDD21DD308DB000CCBC0E730B45F
:1007A000036820241268234303600823C36130BC1C
:1007B0000023B5E7E0710000F3B50446002081B0E6
:1007C00020622046E1688847002872D0252802D0A0
:1007D0006268A168ABE0594F00267F442046E1687B
:1007E00088472028054608DB312D06D278192038A5
:1007F0000078002801D00643F0E7B00701D50420B7
:1008000086430020E0610746A0612A2D0AD02846D1
:1008100007F02CF8002827D0B8000019303D0090D0
:10082000856119E00298BA00121902C8916102901C
:100830002046E1688847012F054617D1E069002866
:100840001FDA202086431CE000980A218069484373
:1008500000994019303888612046E168884705468C
:1008600007F004F80028EFD1012F0AD02E2D08D16F
:100870002046E16888470546202006437F1C022F5A
:10088000C3DBA069002803DA4042A06101200643CF
:10089000F00701D0102086436C2D0BD0682D09D0B5
:1008A0004C2D3CD06A2D38D0742D38D07A2D36D0CE
:1008B00016E040E0E1682F4620468847B8420546EA
:1008C00009D16C2F29D001208002E168064320461F
:1008D0008847054604E06C2F1DD0FF2001300643F9
:1008E000002D28D028464138192803D80120C002FD
:1008F00006432035204626602946029A1646FFF711
:100900009BFC002810D001280BD0F61DF008C00079
:100910000830029055E74020E1E78020D5E700202D
:10092000D3E7361D02964CE762682846A1689047D7
:10093000206A401C44E7206AFEBD00005A71000096
:10094000F8B5044616460D464769007B800730D04F
:10095000384604F082FE00282BD132461026002AA9
:1009600025D0012A02D0022A23D104E0204600F03B
:1009700021FD45191BE0384604F05DFEE168314376
:100980000028E16004DA204600F05CFD0120F8BD9B
:10099000C9030BD56268E16A914200D81146A26989
:1009A00089182269891A814200DD08462D18002D18
:1009B00001DA0220F8BDE16A6068E268814206D28D
:1009C0009103E06203D5012149048A433243A669B9
:1009D000AE4211DCE16A814201D90B4600E00346D8
:1009E0009F192369FF1AAF4206DD814201D90F46E4
:1009F00000E007469F4206D1202002430020A0606D
:100A0000A56220600DE0AD1BE669AE1B8142A660C9
:100A100000D90846C01A281A2060581960602020A2
:100A20008243034802400020E26040342072F8BD57
:100A3000BFCFD7FFF7B516460C46104600F06EF84C
:100A40002078611C61280AD0722802D0772839D119
:100A500002E00125002404E00225042401E02D4DDC
:100A600008240222032301270878491C2B2806D0DA
:100A7000622807D02039C87F742807D008E01D43BA
:100A80001443F1E7042005433C43EDE71020044301
:100A90000098214604F0E4FD411C13D0002131618F
:100AA00071600121F5604902F1617061200704D590
:100AB000304602220021FFF743FF306D3843306596
:100AC0003046FEBD0020FEBDF8B50D460646124C70
:100AD000206DC10704D0410804D044086400F7E742
:100AE000224610E05420FFF761FC070010D079087F
:100AF000206D4900012211430843542120653846E6
:100B000000F011F93A4629463046FFF793FFF8BD49
:100B10000020F8BD0280000018330030FEB5044606
:100B2000466900690F4F0190E56800200090A80712
:100B300007D0204600F0B6FC304604F079FD0028CE
:100B400001DA3846FEBD280502D50198FFF75FFCA3
:100B50004C21204600F0E7F8206D40084000206559
:100B60000098FEBDFFFFFFFF30B503461D78002D46
:100B700008D00A461478521C002C03D0AC42F9D19C
:100B80005B1CF3E7181A30BD034610B50B439B07F7
:100B90000FD1042A0DD308C810C9121FA342F8D0E0
:100BA00018BA21BA884201D9012010BD0020C043E3
:100BB00010BD002A03D0D30703D0521C07E0002049
:100BC00010BD03780C78401C491C1B1B07D103780F
:100BD0000C78401C491C1B1B01D1921EF1D11846F8
:100BE00010BD000030B5441C03E00178401C002912
:100BF0000DD08107F9D10B4BDD0104C8D11A914307
:100C00002940FAD0001B0A0603D0C01E30BD001BCD
:100C100030BD0A0401D0801E30BD0902FCD0401E48
:100C200030BD000001010101F8B5042A2CD383076F
:100C300012D00B78491C0370401C521E83070BD046
:100C40000B78491C0370401C521E830704D00B789C
:100C5000491C0370401C521E8B079B0F05D0C91AFC
:100C6000DF002023DE1B08C90AE0FFF77DFBF8BD8B
:100C70001D4608C9FD401C46B4402C4310C0121F3D
:100C8000042AF5D2F308C91A521EF0D40B78491C75
:100C90000370401C521EEAD40B78491C0370401CA0
:100CA000012AE4D409780170F8BD134610B5044652
:100CB000CAB219461002821810048218204600F0A9
:100CC00021F8204610BDD2B210B513029A181304B1
:100CD0009A1800F017F810BDD2B210B513029A1886
:100CE00013049A1800F001F810BD01E004C0091FB8
:100CF0000429FBD28B0701D50280801CC90700D0D4
:100D00000270704700290BD0C30702D00270401C4C
:100D1000491E022904D3830702D50280801C891E44
:100D2000E3E70022EEE70022DFE70000024670B5AD
:100D30000A4392072AD11E4DEE0104C808C9541B6C
:100D40009443344017D0D0B2D9B2401A210601439F
:100D500010D190B299B2401A210401430AD1100275
:100D60001902000A090A401A2102014302D1100E99
:100D7000190E401A70BD9A42DFD010BA19BA8842D3
:100D800001D9012070BD0020C04370BD02780B78EE
:100D9000401C491C002A09D09A4207D102780B78DE
:100DA000401C491C002A01D09A42EFD0D01A70BDD5
:100DB00001010101704770477047000070B5064C93
:100DC0007C44064D7D4403E0206800198047241DC3
:100DD000AC42F9D170BD000080800000808000002E
:100DE0007047000000487047143400307047704767
:100DF0007047704738B504460A4600206946C04629
:100E0000C046002805D002462046009900F0FAFCB2
:100E1000012038BD10B5012001F000F910BDF8B572
:100E2000C046C046054600200C461020C046064677
:100E3000A819A0420DD9324669460020C046C046D6
:100E4000070001D101F0EAF80098A04200D0054661
:100E5000C419FFF7C7FFF61D07460560F008C0007C
:100E60004619284600F008F8B44204D031463868E4
:100E7000A21B00F0C7FCF8BD00210160416080604A
:100E800070471020704709684A0501D540B2704785
:100E9000C905FCD500B2704709684A0501D5C0B242
:100EA0007047C905FCD580B27047FFB504460D46B2
:100EB00081B0243000902168880604D51022E069B2
:100EC0009143216000E00120A84201DD471B00E0C2
:100ED00000270498A1697A191018081AA0612078CF
:100EE000C00602D42046FFF795FB002608E00398D1
:100EF0006268A168805D9047206A401C761C206271
:100F000004988642F3DB2078C0060AD52046FFF716
:100F100081FB06E06268A16830209047206A401C8F
:100F2000206238467F1E0028F4DC07E000986268E3
:100F3000A168405D9047206A401C206228466D1ED3
:100F40000028F3DC2046FFF77BFB2078000602D563
:100F5000022005B0F0BD0120FBE711680268006ABD
:100F6000530501D5087009E0D30501D5088005E0D7
:100F7000130602D5C21705C100E0086001207047C2
:100F800001694A1C02610878704700B58FB0029170
:100F9000002105910549019379440391114604907C
:100FA0006846FFF709FC0FB000BD0000E5FFFFFF3A
:100FB0000A681070521C0A6070470CC908399A42BE
:100FC00002D2531C0B601070704710B54369002BA0
:100FD00002D0C046C04601E0FFF743FB012010BD30
:100FE0001278014624310A7000224A700122ECE78F
:100FF00011680022D243E8E7084B70B50D467B44E8
:10100000FFF7C3FF0446284600F0D8F8002802D0B6
:101010000020C04370BD204670BD0000796800000C
:10102000F7B50446154686B02B487844002703C818
:101030003E460090019111E007986A467100415ABE
:1010400002A800F0C4FF411C07D02178890603D50F
:10105000E269391891420ED83F18761C2078800634
:1010600002D5E069B84206DDAE42E5DB07987100C3
:10107000405A0028E0D1A069C01BA0612046FFF7BC
:10108000C9FA154878445A3803C8009000200191E5
:1010900016E041006A460798415A02A800F097FFFF
:1010A0000590401C0AD0002505E0626802A8A168EE
:1010B000405D90476D1C05988542F6D30498401C0E
:1010C000B0420490E5DB206AC01920622046FFF799
:1010D000B7FA09B0F0BD00001E690000F7B5D21DD7
:1010E0000025D20815A6D200F52905CA11D0002A7C
:1010F00005DA00214042914111A60A4608E0009914
:1011000009688B0701D50FA602E0490701D50EA695
:1011100001251146009F0024243704E000F08CFBD9
:1011200030323A55641C02460A43F7D12B46324608
:1011300021460098FFF7B9FEFEBD00000000000048
:101140002D0000002B0000002000000070B50446B8
:101150000021243408E05507D2086D0F303565545E
:101160005D072A43DB08491C15461D43F3D104687B
:10117000002310A2250708D520252C400C4304D0BD
:10118000C46901230CA2641EC461FFF78EFE70BD0A
:1011900010B5044621461068FFF77EFE0023024684
:1011A0002046FFF7D3FF10BDD21DD108C9000CC9DE
:1011B000CCE700000000000030000000C068802183
:1011C00008407047F8B505460C46C8680521C904B3
:1011D0008843012189050843E060800602D5204646
:1011E00000F086F97149E0680140022903D02046E9
:1011F00000F028F9BCE00521012249030140D20397
:1012000091420FD1C00306D56168E06A884200D8D8
:101210000846606006E02069E0626060606904F092
:101220000AFAA061A1680022EEB200290EDAE06895
:1012300083050BD4C943A1600921226049030843F7
:10124000E0606068411C61600670ACE0E06801210C
:1012500049030843E060002020602069002831D164
:10126000606904F0FAF9012527462437ED020028C9
:1012700016D0A0898005800F08D0E069FFF796F8A6
:101280000028206102D0E068284318E0012027618F
:10129000E061E068032109028843012189020DE031
:1012A000E069FFF783F800282061EFD0E068284369
:1012B000E0608105890F03D1FF2101310843E0601F
:1012C00020696060E2683A4F2569D0051FD56168E2
:1012D000E06A884200D80846411B05D022462846CD
:1012E00000F0BAF8002843D1E068010204D5E562B5
:1012F00000206560A06053E0691CE1626160E16903
:10130000491E3843A160E06030462E70F8BD1002DF
:1013100001D53A4009E06068411C61600670E068F0
:1013200038430A2EE06006D00022E16A60688142FC
:1013300003D90B4602E00122F7E70346A7895B1BAE
:101340007F0504D4E7699F4201DD002A1ED0814257
:1013500000D801460F1A0020E5626560002BA060EE
:1013600009DD22461946284600F076F8002802D00A
:101370000020C043F8BD002F08D0A069E562656079
:10138000C01BA061E06810210843E060E068000233
:1013900009D56168A069E562491B40186560A061D4
:1013A0000120C043F8BD3046F8BD000082100000A7
:1013B0000000010010B50146C268900703D09006F6
:1013C00007D5886A0AE0FEF7EDFF01210160881E5B
:1013D00010BD8B694868C0180B69C01A40310B7A80
:1013E000002B02D0497A401A10BD1103FCD5002809
:1013F000FADD401E10BD000070B5C468A50713D00B
:10140000650211D4D51FF93D0AD0FF3D6D1E07D0EE
:10141000FF3DFF3D022D07D101462431012305E0A8
:10142000074E5D1EB54201D3012070BD0161C3614D
:1014300041600F2109028C431443C460002070BD39
:10144000FFFFFF00C1688022114392039143C160F6
:101450000021816001607047F7B514460E4633489D
:10146000D5685769054209D03846A16904F046F9A4
:10147000002811DB2D48C0430540E5602B4632466D
:101480003846009904F03DF94200A1695208B21AA9
:1014900089180028A16104D02046FFF7D3FF00205F
:1014A000C043FEBD70B504460569C06A61688842E4
:1014B00000D80846E1680522D2049143E160C903DF
:1014C00014D5A84209D02246411B2846FFF7C4FF85
:1014D000002802D00020C04370BDE5620020656096
:1014E000A060E068012109048843E060002070BD2D
:1014F00010B50446C06820218843E060A16AA06955
:1015000088420ED02046FFF7CDFFE0680321090393
:10151000884310210843E060A06AA0612069E0626E
:1015200060600349E0680840E06010BD1000020000
:10153000BFBFFFFF10B543485421FFF7F4FB4248FB
:101540005421FFF7F0FB41485421FFF7ECFB4048E2
:101550003C493D4B404A01603E4803603B481060B7
:101560005A1C0A65411C1965012101653C48354A30
:101570003AA17844FFF75EFA002804D1384878444D
:101580000C3800F045FD38482F4A36A17844FFF763
:1015900051FA002804D1344878440C3800F038FD62
:1015A00032482A4A2FA17844FFF744FA002804D190
:1015B0002E4878440C3800F02BFD40232148DC00F5
:1015C00000212246FFF718FF002804D02448784461
:1015D0005C3800F01DFD1C48224640230021FFF727
:1015E0000BFF002804D0204878445C3800F010FD40
:1015F0001648224610230021FFF7FEFE002804D0E3
:101600001A4878445C3800F003FD10BD0F4870B5EF
:10161000006D44080B486400FFF780FA0A48FFF7A2
:101620007DFA0A48FFF77AFA09E0206D450820465E
:101630006D00FFF773FA2046FEF7E9FE2C46002CFA
:10164000F3D170BD183300306C330030C03300303C
:10165000E0310030E4310030E83100307200000049
:10166000A670000077000000937000006A70000010
:10167000002203098B422CD3030A8B4211D300238F
:101680009C464EE003460B433CD4002243088B4269
:1016900031D303098B421CD3030A8B4201D39446F6
:1016A0003FE0C3098B4201D3CB01C01A52418309E9
:1016B0008B4201D38B01C01A524143098B4201D3A3
:1016C0004B01C01A524103098B4201D30B01C01ACE
:1016D0005241C3088B4201D3CB00C01A5241830848
:1016E0008B4201D38B00C01A524143088B4201D375
:1016F0004B00C01A5241411A00D2014652411046D5
:1017000070475DE0CA0F00D04942031000D3404249
:1017100053409C46002203098B422DD3030A8B427F
:1017200012D38901FC2212BA030A8B420CD389011D
:1017300092118B4208D3890192118B4204D3890103
:101740003AD0921100E08909C3098B4201D3CB0141
:10175000C01A524183098B4201D38B01C01A5241F6
:1017600043098B4201D34B01C01A524103098B42FA
:1017700001D30B01C01A5241C3088B4201D3CB00E5
:10178000C01A524183088B4201D38B00C01A5241C8
:10179000D9D243088B4201D34B00C01A5241411A9F
:1017A00000D201465241104663465B1001D34042CD
:1017B000002B00D54942704763465B1000D340427E
:1017C00001B50020C046C04602BD01468008081A87
:1017D00002091018020A1018020C1018C008820022
:1017E00012185200891A01E0401C0A390A29FBD25A
:1017F0007047000010B500F017FC001D10BD00BFC1
:101800009960000010B50346406801E00346406857
:10181000002801D08842F9D31868C3188B4206D03B
:10182000CB1CD808C000001D411A521A0146081DE1
:101830000A60FEF7ECFD10BD0B4670B50246890745
:101840008008084319469D08141AA941250908076C
:10185000054308092C194841250A01060D43010AD0
:101860002C194141200C0D0428430D0C00194D4149
:10187000002140194D41C00869070843E908840F59
:101880008D002543840024184D4124196D41121BFD
:10189000AB4107E00925ED432C11521963410024A7
:1018A000401C61411C460A250026551BB441F1D25B
:1018B00070BD0000FFB50C461E468FB003CA0890ED
:1018C00009914F007D0D00D16D1E002108460020BA
:1018D000C0460321099A89050840002A03DA8200DC
:1018E000801840080840800D01280A9002DD002081
:1018F000C0430A90089807430DD0F048F0492818D3
:1019000048430714189800281DD07542291E1DDD74
:101910000A9842421BE01898012802D0002030218A
:1019200004E00020F24305E02154401CB042FBDB00
:1019300030460022189B002121540F998B600A60C9
:10194000486013B0F0BDBD1B6D1CDFE70A9A00298B
:1019500000DA69420BA800F0AFFB0BAB07CB03AB7F
:1019600007C30899099800F013FC6B4607C30146AA
:10197000D4480918002D00910BDDD24903980A9A2A
:1019800049424018002303A90390684600F070FE06
:1019900008E003990A9A0023081803A903906846EF
:1019A00000F010FE6B4607C30004000C03D00020BB
:1019B000C043410800E01046189A002A03D00022D4
:1019C000009215461EE0751E05D4FFF735FF303234
:1019D00062556D1EF9D501220843079602D00022F8
:1019E0007F1C04E02078302801D100227F1E002ACD
:1019F000069787D01EE0112D07DAFFF71DFF303262
:101A000062556D1C02460A43F5D1084303D0009885
:101A1000002819D00EE00021681E05E0235C625CFE
:101A200063542254401E491C8142F7DBA81B401E10
:101A300007950690079A18990020A0540F98079BC5
:101A4000069A81600CC07CE711260020189059E7A7
:101A5000D21DF0B50D460446D10893B0C90003C9A4
:101A60000C900D9105F0ECFE02460D98C00F01D0D0
:101A70002D2007E02068810701D52B2002E04007D8
:101A8000C00F4001032A0F9001D0072A05DB03464F
:101A90002946204600F0CCFA0EE12078800601D5D8
:101AA000E76900E006272846652D04D0662814D093
:101AB000672D69D12DE00020112F009001DB11234B
:101AC00000E07B1C0CAA03A910A8FFF7F3FE1199F4
:101AD000002610987D1C0E9142E001203B460CAA86
:101AE000C0070B900120009003A910A8FFF7E2FEA9
:101AF000119D12981099002600280E9501D1781C8E
:101B00000D18781B02D446427D1C761EE81B0090FF
:101B10003AE0012F00DA01270020112F009001DDAB
:101B2000112300E03B460CAA03A910A8FFF7C2FE50
:101B300011993D46109800260E91217809070BD483
:101B40000E99A94200DA0D4603A9012D04DD4A19B8
:101B5000203AD27F302A06D0B84201DA011D04DAD9
:101B6000012100910FE06D1EEFE7002802DC8619CD
:101B70002D1A03E0411CA94200DD0D46801B401CCC
:101B800000900120C0070B902078000705D4009832
:101B9000A84202DB0020C043009069460020C872C2
:101BA0000B98012102AF0337C907884225D00220D4
:101BB00010902B2011900B9800280BDA40420B90CC
:101BC0002D20119006E00B98FFF7FFFD30317F1EAE
:101BD0000B9039701099481E00291090F3DC0B9877
:101BE0000028F0D111987F1E38702088000501D59B
:101BF000452000E065207F1E387001A8C01BC01D75
:101C00000B900F98002800D0012041190098C017B0
:101C100009180B980818A169081A401EA0612078BD
:101C2000C00602D42046FEF7F5FC0F98002805D028
:101C30006268A1689047206A401C20622078C00634
:101C400025D52046FEF7E6FC21E0002E07DB0E98A6
:101C5000B04204DD03A86268805DA16802E06268AA
:101C6000A16830209047206A761C401C20620098B2
:101C7000401E002800900AD100F0D6F9C0686268C2
:101C80000168405CA1689047206A401C2062284699
:101C90006D1E0028D9DC07E062683878A1687F1CD7
:101CA0009047206A401C20620B99481E00290B9027
:101CB000F2DC2046FEF7C4FC032042E601FCFFFFF5
:101CC000104D0000E1DFFFFFD21DF0B504460D46C8
:101CD000D0088DB0C000466807683146384605F028
:101CE000AFFD0246F00F01D02D2307E020688107E9
:101CF00001D52B2302E04007C00F43016846002BAB
:101D0000037001D0012000E00020032A0A9001D0D6
:101D1000072A04DB2946204600F08AF92DE12078C5
:101D2000800601D40D2500E0E5697000400D0D2D01
:101D300001904BDA300D00210B9008460020C04680
:101D4000032189050840002E05DA82008018C20FA1
:101D50001018401008408015012801DD0020C04304
:101D6000A9000023182906D39C460A460123183AE5
:101D70001B07D34003E001221205CA4094460C31F0
:101D8000202902D33A46203900E032468A40002812
:101D900002DD002A06D119E0002817D10121C90768
:101DA0008A4213D3194663467F185E41002806D144
:101DB0000120C007824202D1084687439E430B9808
:101DC000310D814202D00198401C0190208800050D
:101DD00002D57149794402E06F49794419396B465B
:101DE0000A9830221A540A980A7C401C1A54401C43
:101DF0000A900198002801DC302000E031201872A0
:101E0000019A0120002A02D0644BD21804E072002B
:101E10003A4302D0614A521C0192002D02DC227822
:101E2000120703D56A462E205072022000228646F1
:101E300094460CE032033601120F6D1E8B5C02AA31
:101E400013546246521C401C9446052A01DA002DA8
:101E5000F0DC002202AE08E03B0F3F01CB5C521CDD
:101E60006D1E3354401C082A01DA002DF4DC23686F
:101E70009A0601D511E0401E704504DD3218203A63
:101E8000D27F302AF7D0002807DD3218203AD27FDF
:101E90002E2A02D11A0700D4401E002D03DD3E2257
:101EA0003254401C6D1E497C31540199401C00295C
:101EB00006DA2D21471C315401984042019003E07D
:101EC0002B21471C315401987D21C900884206DB33
:101ED000FFF7D8FB3030F0557F1C019101E06428FA
:101EE00008DB01986421FFF7CDFB3030F0557F1CF3
:101EF000019101E00A2806DB01980A21FFF7C2FBE5
:101F00003030F0557F1C01980A21FFF7BBFB3031C0
:101F1000F1550A98A1697F1C7A191018081AA06156
:101F20002078C00602D42046FEF774FB216A6E4674
:101F30000A980818206204E062683078A168761C6C
:101F400090470A98401E0A90401CF5D12078C006A0
:101F500002D52046FEF75EFB02AE09E03078761C23
:101F60003E280DD06268A1689047206A401C20621C
:101F70007F1EF3D22046FEF763FB0DB00320F0BDB9
:101F8000206A4019206203E06268A168302090470F
:101F90006D1EEDD3F8E700008F5B000001FCFFFF32
:101FA00010B54369002B02D0C046C04601E0FFF7E0
:101FB00037F8012010BD12880146243182840022A6
:101FC000C2840122ECE711680022D243E8E7F8B5A9
:101FD00016460C460546FFF70DFC0368FF2002304D
:101FE000C05C012807D0FF2C0FD8185D00280CD04A
:101FF00001202C70F8BDFF333246214608331868A3
:10200000C71828460023B847F8BD0020C043F8BDD4
:1020100010B500F083FB00F07BFB10BD10B500F0A5
:1020200097FB00F075FB10BD004870471834003076
:10203000F8B51F46044601230068DB02032601466B
:102040001840072A05DB002801D017A506E017A5D0
:1020500004E0002801D016A500E016A51020814359
:102060002160A069C01E002FA06101D0401EA061A8
:102070002046FEF7CFFA002F09D038466268A168E3
:102080009047206A401C2062C01C206206E0206A43
:10209000FAE762682878A1686D1C9047761EF8D22E
:1020A0002046FEF7CDFAF8BD4E414E006E616E003F
:1020B000494E4600696E6600F7B516468AB0334849
:1020C00078446C4603467C33C06F5A689B680DC4E5
:1020D0002E487844763003AC0DC80DC43720C001BB
:1020E000081837211B30FFF7CDFA05460C46803D16
:1020F0001B3C02D56442012000E00020002709902B
:1021000010E0E0070CD00C20204978437944324697
:102110004C3941186846012300F054FA6B4607C356
:1021200064107F1C002CECD1184F7F442E3F16E02A
:10213000E80712D02001C0190EC806910893079233
:102140000068F04201D1981908903246012306A98F
:1021500003A800F037FA03AB07C36D10641C002D11
:10216000E6D10998002806D032466946012303A823
:1021700000F07EFA05E001233246694603A800F02C
:1021800021FA0A9B07C30DB0F0BD0000B85800004B
:10219000034640000A4610B5400D0BD00121C90787
:1021A0000F24A40200191C0364082143540D214389
:1021B000D20207E000210120F2E7D40F49002143B9
:1021C0005200401E0029F8DADB0FDB07184310BD70
:1021D000FFB50D46144685B04868516805F016FBFA
:1021E00000910190A868A16805F010FB029103908E
:1021F000A868616805F00AFB029A121882420292EE
:1022000001D2012000E00020019A0B18D21800280A
:10221000019202D08A4202D903E08A4201D201200F
:1022200000E000200099081800906868A16805F097
:10223000EDFA029A12188242029201D2012000E0C5
:102240000020019A0B18D2180028019202D08A426D
:1022500002D903E08A4201D2012000E00020009967
:102260000818009028682168400049004008490883
:102270004018FA49471814E001994000C90F084373
:102280000090019802994000C90F084301900298FC
:1022900003994000C90F08430290039840007F1E35
:1022A000039000980028E7DA0898002801D0EC4E47
:1022B00000E00026B74201DA012000E000200028FB
:1022C00004902AD0F71BF806C00E15D0029B2021DF
:1022D000091A039A8B401A430392029A019BC24047
:1022E0008B401A430292019A009BC2408B40009996
:1022F0001A430192C14000917B110DD06F4603201B
:10230000C11A03D500218200B95003E08A00810080
:10231000BA587A50401EF3D53746039802990028E0
:1023200000D00120014308980291002808460CD0F3
:10233000002800D001200199019A49050843012194
:10234000D20AC902D202019200E001210E9B0122B1
:10235000D207012B02D0002B03D013E0002807D1B5
:1023600020E0904204D890420CD1019B0B4209D04E
:10237000019B5918019105D10099491C009101D187
:102380007F1C009200280DD0102108460020C04676
:102390000498002806D00F98002803D0082108468A
:1023A0000020C04628682168019B009A4840C10F60
:1023B0000598C90739430EC009B0F0BDFFB587B015
:1023C000099A0898089953689268406889689646FF
:1023D0000022039317469446089A12685300099AFC
:1023E0005B081268520052089A1A9E4BD4180A9A37
:1023F000002A01D0352200E040220692002201236B
:1024000015460492DB07059324E0002D05D175469F
:102410000346039E4D1BB34109D375466646039B95
:10242000491B049D9841059B7519AC465F41634665
:102430003B4308D0059B049EDD0776082E435B08CE
:102440000496059301E0521E641EC50FED0749185E
:102450004041521C069B9A42D7DB002D04D17546A1
:10246000039A6B1A824101D203200CE0039A0B46B7
:102470006B404240134303D0014303D0012002E0EC
:10248000022000E0002061460191002100970291A6
:102490000A99002905D0614640020143704B019121
:1024A00002E08007002302909C4201DA012000E054
:1024B000002007003AD01A1BD006C00E15D0029D8E
:1024C0002021019C091AC5408C402543029C8C4068
:1024D00000D001242543019C0295009DC4408D40FD
:1024E00000992C430194C140009154111DD06D46B8
:1024F0000221002202290CD10320001B07E0002842
:1025000004DB8600AE59002E00D00122401C0328B7
:10251000F5DB081B02D588002A5004E0800028580B
:1025200010438A00A850491EE3D51C460A9800288B
:1025300002980CD0002800D001200199019A490589
:1025400008430121D20AC902D202019200E001210E
:10255000109B0122D207012B02D0002B03D013E0E5
:10256000002807D11FE0904204D890420CD1019B73
:102570000B4209D0019B5918019105D10099491CC2
:10258000009101D1641C009200280CD01021084653
:102590000020C046002F06D01198002803D0082143
:1025A00008460020C04608980999019A009B0068D7
:1025B00009684840C10F0798C907214382600AC0D3
:1025C0000BB0F0BD00B585B0019300920A460146FC
:1025D000002302A8FFF7FCFD02A807C805B000BD54
:1025E000FFB50A461F4685B0079901930123009164
:1025F000014602A8FFF7ECFD02990398049ECA0F5A
:102600004900D20700920F22490892028C1A002139
:10261000002800DB0C46450013486D08844214D3A3
:10262000079A002A04DA441E0026104DF64302E001
:1026300004460D460E46102108460020C046002FD5
:1026400003D0042108460020C0462005E90A0843BB
:10265000009908436905F20A1143ADE602C0FFFF85
:10266000013C0000FF3F0000FF070000FFFFFF7F6D
:1026700000B585B0019300920A460146002302A8E6
:10268000FFF79CFE02A807C8A8E7FFB50A461F4649
:1026900085B00799019301230091014602A8FFF735
:1026A0008DFE02990398049ECA0F4900D20700923A
:1026B0000F22490892028C1A0021002800DB0C46E8
:1026C000450011486D08844214D3079A002A04DAA1
:1026D000441E00260D4DF64302E004460D460E460C
:1026E000102108460020C046002F03D004210846D0
:1026F0000020C0462005E90A0843009908436905FF
:10270000F20A114358E60000FF070000FFFFFF7FB9
:1027100010B5002801D002F08DFF10BD10B50146A4
:1027200002A000F03DF8012010BD000053494752BF
:10273000545245443A2052656469726563743A2084
:1027400063616E2774206F70656E3A200000000090
:1027500010B5012805D0002103A000F021F80120C8
:1027600010BD09A1F8E7000053494752544D454DAB
:102770003A204F7574206F662068656170206D6522
:102780006D6F7279000000003A2048656170206D1D
:10279000656D6F727920636F727275707465640015
:1027A00070B505460C460A2000E06D1C02F0C2FF21
:1027B000002D06D028780028F7D102E0641C02F032
:1027C000B9FF002C02D020780028F7D10A2002F0AF
:1027D000B1FF70BD70B58C180578401C6B075B0F9E
:1027E00001D10378401C2A1106D10278401C03E075
:1027F0000678401C0E70491C5B1EF9D12B0705D4CE
:102800000023521E0DD40B70491CFAE70378401CBC
:10281000CB1A921C03E01D780D70491C5B1C521EE4
:10282000F9D5A142D8D3002070BD00000549064A61
:102830008A42104600D105488A4200D10449FDF77A
:102840006CBDC04600800130F07A0030E87A00307C
:102850000020003080B503F039FE80BC01BC864604
:1028600003F0C6BCB0B560B1044600F03DF90546C2
:10287000204600F091F8284381B2042001B90846AF
:10288000B0BD0220B0BD000020B11149096809B1F6
:10289000096A08470220704721B10D4A12680AB13F
:1028A000526A1047022070470949096809B109684E
:1028B000084702207047C04622B1054B1B680BB188
:1028C0009B69184702207047014908600020704743
:1028D000DC790030B0B543684C680122A3420FD1C7
:1028E000002253B189688068002204780D78654021
:1028F0002A43401C491C5B1EF7D150421043C20FB3
:102900001046B0BDF0B503AF83B06E46002202247E
:10291000204BC1B331600023DA43022400287360E6
:1029200008D14B4800684B49B1FBF0F14A1C4243C7
:1029300000231C4648480068C11D0725A9436D4671
:10294000B5606D466D1AAD4682B06946086028468E
:1029500002F010FF02B00028B068726810D128465B
:10296000316803F017F80446020C0A48044206D105
:102970003B48016819B10720154688472A46B068C8
:10298000854604490B461C4010040019FC1F053CF9
:10299000A546F0BDFFFF0000F0B581B00224D0B124
:1029A000054602F0E1FE064602F0D6FE2B4F3860E7
:1029B00002F0CAFE26490860386840F22711B1FBD0
:1029C000F0F1491C41432448016026B924480560C0
:1029D00000242046A847204601B0F0BDF0B583B0E2
:1029E00002248AB30346906870B30026F54302249C
:1029F0003BB9174B1B68174CB4FBF3F4651C5D43E4
:102A000000245768144B1B686FB1144E029119468D
:102A100033687E1EB6FBF3F6761C5E430B460299C6
:102A20001268964210D86A4616606918CA180025BE
:102A30002B4602F09FFE38B90948016800292C4650
:102A400002D0042088470024204603B0F0BDC046D1
:102A5000EC790030FFFFFF03E4790030E8790030C3
:102A6000E0790030F0B5A1B004460026022014B38E
:102A700000261F961E961EA8194D0822294602F010
:102A800081FFB8B91EAF384603F00DF80190381D2C
:102A900003F009F802280DD102A87021FEF743F9CE
:102AA00010480199814205D102A87022294602F0FE
:102AB00069FF28B1042080B23104081821B0F0BDAC
:102AC00002A8214602F0C0FF060C0104F3D10E4813
:102AD000016800200029EED0062088470020EAE7A0
:102AE00000200210D4B3515AB0B5044602F006FFDC
:102AF000022530B904480460002514B10025284699
:102B0000A0472846B0BDC04608390030F0B5BFB078
:102B1000584C002800D18AE08768002F00D186E059
:102B20000E46002900D182E04568402D00D97EE0A4
:102B3000002A00D17BE0B068002800D177E09068DF
:102B4000002874D01068202871D301922FA840214A
:102B5000039136220292FEF7BFF81FA85C22039968
:102B60000392FEF7B9F8FDB13878029948402FA9D1
:102B700008703878039948401FA90870012D13D0B8
:102B8000681E1FA9491C7A1C2FAB5B1C1D78177887
:102B90006F400D781F7017786F400F70401E491CF2
:102BA000521C5B1C0028F1D104AF384603F030FE04
:102BB0000021384603F060FE68BB04A82FA940221C
:102BC00003F0AAFE38BB7268B16804A803F0A4FE43
:102BD00008BB0198816804A803F086FDD8B904A851
:102BE000002103F049FEB0B904A81FA9402203F058
:102BF00093FE80B90198816804A82026324603F02C
:102C00008BFE40B90198816804A803F06DFD10B9EE
:102C100001984660002404A803F0F5FD2FA8402584
:102C2000294603F055FD1FA8294603F051FD204613
:102C30003FB0F0BD70B584B0044601680D4D202949
:102C400011D3A06803F040FB68B90B4801A90A46FC
:102C500068C868C21020606020462246FFF756FF11
:102C60000546002025B12168A068FEF75AF82846DD
:102C700004B070BD01004355107A0110FEE7F0B5B5
:102C800000231C460125A5400D4207D015469D4056
:102C900003269E400768B7432F4307609B1C641CB4
:102CA000102CEFD1F0BDF0B500231C460125A54046
:102CB0000D4207D015469D4003269E40076BB74343
:102CC0002F4307639B1C641C102CEFD1F0BD00F058
:102CD00049FEFDF781FAFEE710B514494218415844
:102CE0004C0001218B07002C06D511494058C00328
:102CF00017D5F648002116E012681A4214D140F6A2
:102D000020028158802319438150094941580124E8
:102D100024040C40210CED4C217284589C438450B7
:102D200002E0EA4801210172084610BD28080000AF
:102D30002C080000F0B585B00446E44E7268092105
:102D400001AB00F045FB3068C11E324F01980129EC
:102D50002AD8800F032836D3726807210025204621
:102D60002B4600F0DBFA40F208402B4921502B485B
:102D70002750082120462A4600F064FB002847D14E
:102D8000254D07210022204600F08CFB40F6200054
:102D9000215840220A432250201801684906FCD4D9
:102DA000D420285841082FE0800F039902981CD0A6
:102DB000090C8006800A40184002C019401C4100DE
:102DC000F160306122E003988103490F04228A40B8
:102DD000800F02998B051B0D1818401C50430903E6
:102DE000090F8840810A400A0EE08A03520F04232B
:102DF0009340890F8205120D5118491C5943000355
:102E0000000F8140480A890AF0603161781C7061C6
:102E100005B0F0BDFF01000050340030380800005C
:102E2000F0B589B0044640F2001640F200112C3192
:102E300000F024FC40F62000215820220A432250B2
:102E40002018C64F397A0268920603D50029FAD1B4
:102E5000C148E0E0002120460A4600F023FB41F291
:102E6000000001E00898401E089008980028F9D159
:102E700075480125057075480290029B40F20012CA
:102E800055320821204600F049FA08900898002899
:102E9000019535D0002120460A4600F003FB089634
:102EA00002E00898401E089008980028F9D1029B7B
:102EB0003721002520462A4600F030FA089008986D
:102EC00002284ED10025204629462A4600F0EAFA7B
:102ED000089602E00898401E089008980028F9D14A
:102EE0005B4E01273770029B5B4A2046394600F053
:102EF00015FA02283BD1994805609748401C8AE0A2
:102F0000029B37210022204600F008FA5048057045
:102F1000029B29212E46504D20462A4600F0FEF9FC
:102F200040F63000271820580102F605002911D478
:102F3000029B37210022204600F0F0F9012044498D
:102F40000870029B292120462A4600F0E7F93868DC
:102F50003042EDD002224002019D00D52A46E94FC1
:102F600031E00898D8B13D60E548401D53E040F697
:102F70003000251820580102FF05002909D401213D
:102F80003170029B2046344A00F0C8F92868384264
:102F9000F5D003220421400213D50A4611E02C4843
:102FA000019D0570029B29212A4A204600F0B6F9AE
:102FB00040F63000271820580002EE0502220028B3
:102FC0002BD5D04F019D3A600221002203AB204651
:102FD00000F0FEF93868C01E01280AD82D0403212C
:102FE000002320462A4600F099F9079048B97D60F1
:102FF00010E0032100222046134600F08FF90790CD
:1030000008B1079807E040F6300020580002134945
:1030100001407960002009B0F0BD0092019D029B43
:1030200037210022204600F079F9E8480570029B1C
:1030300029212046074A00F071F938683042EED065
:10304000DF4F009ABFE7C04648340030FFFF0F0053
:103050009C7900300080FF000080FF400000FFFFEF
:10306000F0B581B00091044640F20040022727509D
:10307000201840F60001661801688907FCD4012574
:103080000560032030603068C007FCD1EC4818218F
:10309000FDF749FE37600E482158AB070A461A4330
:1030A0009943009B9B0500D50A462250215840F2C7
:1030B00000120A432250316A44F200000143316297
:1030C000316A0142FCD101B0F0BDC0462C34003061
:1030D00028080000B0B504461E480021215040F6E3
:1030E000200021580F221206914321502158092215
:1030F00012060A4322502158FF2212049143215004
:10310000215801252A040A432250215848F200027E
:10311000914321502046FFF7DFFD48B12046FFF7DD
:103120007FFE88B9F0480068032803D10D4902E00A
:10313000EE48B0BD0A4900F0A1FA2046FFF7FAFDBB
:10314000204600F0D5F900B1B0BD07480560002069
:10315000B0BDC046040800001001FFFF2C34003051
:10316000A8610000204E000044340030F0B589B062
:103170000024089440F6200404900719DB48C41C7E
:103180000393002B00D18DE002920E46D648426890
:1031900007210025049C20462B4600F0BFF805902F
:1031A00008B1059C7EE00195029B386840252843C4
:1031B000386038684006FCD4F8680006F5D55248F7
:1031C00052492150C8480068012802D0042800D084
:1031D0005B02C348235040F208402650FF20039969
:1031E000B1FBF0F102910691069A82B3BE4A127ABF
:1031F0004749484E019B33703C680C4007940404D7
:10320000079B23430793089B079C1BB104231C4384
:103210003C6004E040490C433C6001230893337850
:1032200023B9337813B9002AF9D13AE0AF4B9C1D8A
:10323000FB685B0736D5AD4BDC1DFB681B0731D542
:10324000069B5B1E0693069B002B3149D2D1029947
:103250004143039A511A0691069981B32D49019A67
:103260000A703A6843F600739A4307920004079A7B
:103270008243079206980004079A02430792089A2D
:1032800007981AB104221043386004E0224A104320
:103290003860012008909448007A0A782AB90028FA
:1032A000FBD1924C204609B0F0BD9048841DF868CF
:1032B0004007F7D58D48C41DF8680007F2D50C21EA
:1032C00000220498134600F029F888498C1D002834
:1032D000E8D138682843386038684006FCD4F8687C
:1032E0000006F6D5072100240498224600F0DAF8FB
:1032F00038682843386038684006FCD4D2E7C046B6
:103300001001FFFF2C34003038080000FF010000DE
:10331000FFC0FFFF9D79003007120000B0B5704C70
:10332000025140F620028458244D254009022943C9
:10333000C91C81508118CE4A127A43B1DB430C6814
:10334000A4070BD55B1C22D0002AF8D104E00B683F
:103350009B0703D5002AFAD164492DE019490A7860
:10336000012A0BD1184A8258D2B2552A06D040F60B
:10337000300282580F231340012B19D1134A1178C0
:1033800061B100211170464A0223835014E008689D
:1033900044F2000202430A6002210DE04049405815
:1033A00042075248801D0021002A00D50846B0BDC2
:1033B000002008704D4909310846B0BDFCC0FFFF30
:1033C0002C34003048340030340800009C79003040
:1033D00070B585B0424C025140F620028458174D1A
:1033E000254009022943113181508118A04A127ADF
:1033F0000C68E40603D5002AFAD13C491BE02849B1
:1034000041584A073949891D002A14D500214258DC
:103410006C466250091D1429F9D16846001D00212F
:10342000009C0A4685582E0E240234199C50121D09
:10343000102A2C46F6D1084605B070BDEEC0FFFF3D
:103440002C34003010B5264BC25040F62002835871
:10345000124C1C4009022143C91D81508118844A25
:10346000127A0B689B0702D5002AFAD104E00B6898
:103470005B0703D5002AFAD11C4810BD084A811801
:1034800080584307194A901D002BF6D5D01D0A68B5
:103490000021120700D5084610BDC046F8C0FFFF46
:1034A0002C08000010B581B0002300930C4BC250D3
:1034B00040F6200283580B4C1C4009022143491C52
:1034C000815081188058C00707D06948007A074AA0
:1034D00000B900920B68DB07FAD1009801B010BD6B
:1034E00024080000FEC0FFFF2C3400301001FFFF55
:1034F000F0B581B004465E4842680023009307257A
:1035000020462946FFF70AFF009040F62001661882
:1035100010B1009801B0F0BD3068402738433060EA
:1035200030684006FCD4F0680006F5D5F84800681D
:10353000401E03287DD8810001A251188F46C04645
:1035400000F006B800F02CB800F056B800F059B8FA
:1035500040F208408C492150EE482550EC48426822
:10356000372100232046FFF7D9FE00900028D0D154
:10357000854D332100222046FFF764FF009000288C
:10358000C7D128780F2101400F2921D1204600F012
:10359000BBF800900098D8B95A4900F06FF817E0CE
:1035A00040F2084078492150DA482550D84842680E
:1035B000372100232046FFF7B1FE00900028A8D154
:1035C000332100222046FFF73DFF00900028A0D1C4
:1035D000CF484268372100232046FFF79FFE009026
:1035E000002896D10621022200232046FFF796FEEE
:1035F000009000288DD117E0306848F20001884320
:10360000306006211B4A00232046FFF787FE00900A
:10361000002800D07DE730683843306030684006CD
:10362000FCD4F0680006F6D5306848F2000101438A
:103630003160B94D6A1C102100232046FFF76EFE51
:103640000090002800D064E7B248255007210022EE
:103650002046FFF727FF3068384330603068400667
:10366000FCD40548215801220A432250002051E78A
:103670002C3400300001B70328080000B0B50C4618
:1036800001F080FFC00038D40F20C0431B4D2858E4
:103690008002800F012805D0022806D0032807D118
:1036A00017480BE004F022F804E004F025F801E0EC
:1036B00004F028F840F2E831B0FBF1F011498C42F7
:1036C00000D30C46B0FBF4F25443001B511C00B96C
:1036D000114640F20012FF2903D8002000290A46B3
:1036E00003D0FF20000611060818FF2109062A68EA
:1036F0008A432A60296801432960B0BD2002004046
:10370000E02E000050C30000F0B581B00446002652
:10371000009640F208411C4860507E4D3F2767519B
:1037200006211A4A2046FFF78DFE0090611940F2EB
:103730000842A218012510B1284601B0F0BD124B75
:10374000188840BA0028F7D0988B40BA0028F3D1E7
:1037500013600F6006210E4A20461F46FFF772FED7
:1037600000900028E8D13B4640F620002158402236
:103770000A432250201801684906FCD4188840BA30
:10378000351A4541D8E7C0465034003001FFFF00EC
:1037900001FFFF80F0B589B016460022089240F67E
:1037A00020028418594AD71C002B00D180E00391D5
:1037B000049357494A680721002705463B46FFF70F
:1037C000ADFD059008B1059F72E002972A46049B63
:1037D000206840252843206020684006FCD4E0682B
:1037E0000006F5D54B484C4911504948006801285E
:1037F00002D0042800D076024848165040F2084013
:10380000019203991150FF20B3FBF0F1039106914F
:10381000069A42B33E490A7A414F424E02993170AC
:10382000236839463B4007930304079F1F430797CC
:10383000089F079B1FB108273B43236004E03A4FD2
:103840003B432360012308930F46337813B9002AC2
:10385000FBD12CE0E3689B0753D4069B5B1E0693C9
:10386000069B002BDAD1039948430499081A069065
:1038700006980028029921D02A48017006992268EA
:10388000274B1340090419430791089A07991AB165
:1038900008221143216004E0234A114321600121E1
:1038A00008911B49097A02782AB90029FBD1174FE0
:1038B000384609B0F0BDE068800722D40220E060FD
:1038C0000C210022019E30461346FFF727FD0F49C9
:1038D0008F1D0028ECD12068284320602068400616
:1038E000FCD4E0680006F6D50721002730463A46AA
:1038F000FFF7D8FD20682843206020684006FCD4EC
:10390000D6E70220E060014F0837D1E71001FFFF42
:103910002C34003038080000FF01000024080000AB
:1039200080C000FF9D7900300B19000080B503F0C6
:10393000DDFE0749086003F0EBFE06490860064912
:1039400040180649B0FBF1F00549086080BDC0464B
:103950001C3200302032003020A1070040420F000E
:1039600018320030014802490160704708ED00E05C
:103970000000011010B5044600201B498C4209DCF0
:103980001D498C4213D01D498C4212D01C498C42D7
:103990000BD021E015498C4205D015498C4204D04A
:1039A00014498C4218D1174804E0174802E00D482A
:1039B00000E0164803F0B2FE02280AD140F20010DF
:1039C00004430E48844208D110BC01BC864603F073
:1039D000ABBE80000EA1085810BD10BC01BC8646CD
:1039E00003F0A8BE0200805EFF10054000110540F4
:1039F0000010055000110550000005400001054071
:103A0000001005400500405F0400005F0300C05E39
:103A1000001BB70000800000000000000000000054
:103A2000000000001027000000000000001BB7008D
:103A3000F0B585B0009104466C4801A96CC86CC112
:103A40006B4F6C4884420ADC7248844215DC75482E
:103A500084422AD07448844222D0744809E06648DF
:103A6000844212DC684884421FD06848844217D0E0
:103A70006748844221D1714F17E06748844211D0D2
:103A80006648844210D0664806E05C48844209D00B
:103A90005B48844208D05B4884420ED1644F04E006
:103AA000674F02E0644F00E0624F384603F036FE95
:103AB0000646384603F044FE471C002020630325D9
:103AC000E560A06810490140A160012E02D103F019
:103AD0000DFE0290009BABB1B00001A90858B0FBED
:103AE000F7F158080818B0FBF3F0801E020C06D05E
:103AF000D8000818B0FBF3F00009801E01E0290788
:103B00000843606205B0F0BD0FFFF0FFF0B587B06D
:103B10001C46029201910546344803A9CCC8CCC189
:103B2000334E344885420ADC3A48854215DC3D482C
:103B300085422AD03C48854222D03C4809E02E48A4
:103B4000854212DC304885421FD03048854217D06C
:103B50002F48854223D1394E17E02F48854211D096
:103B60002E48854210D02E4806E02448854209D0D0
:103B70002348854208D02348854210D12C4E04E0CA
:103B80002F4E02E02C4E00E02A4E304603F0C6FDD8
:103B90000746304603F0D4FD0646012F03D103F05B
:103BA000A5FD049001270C98019BC3B1B90003AA9D
:103BB0005158721CB1FBF2F259085118B1FBF3F1E4
:103BC000891E1E460B0C06D0F1005118B1FBF6F110
:103BD0000909891E02E00322120711436962029952
:103BE0000C430443EC6007B0F0BDC0462C860110C6
:103BF000103D8057FFFF0650FF2F07500030075041
:103C000000400750005007500000075000100750B8
:103C100000200750FF2F07400030074000400740BA
:103C200000500740000007400010074000200740F8
:103C3000953DEC77143DCC77933CAC77123C8C7778
:103C4000913DA05780B501F0F9F80149086080BDA9
:103C5000F838003080B501F051FE0021091A4841C2
:103C600080BD01F03FBE0000F0B581B004461C4E9F
:103C70003746384601F03EFEC7193046703087425D
:103C8000F7D3184DAF4209D217A001F061FF2548C4
:103C90003918304601F0FEFDD8B903E040F200408B
:103CA000241835462F19AF4209D92E46304601F067
:103CB00021FE8619BE42F9D31B48864204D8284605
:103CC000214601F0E7FD04E0184801F041FF002023
:103CD000C0430021091A4141084601B0F0BDC04669
:103CE00000200210002402105B444247205D204562
:103CF000726173696E6720686561646572207365BF
:103D00007061726174656C792066726F6D20616399
:103D100074697665206170706C69636174696F6E37
:103D20000D0A000000E0FDEF000008107D8A011080
:103D3000F0B589B005900020002963D00C4601F051
:103D4000D5FD314AB2FBF0F14143511A04D02F485E
:103D500001F0FEFE30BFFDE7002107912C490891DC
:103D600044F20001B1FBF0F1049041430691A368D5
:103D7000E2681D461543083402940120002D41D00D
:103D80000498401E01900020224E074603901BE03D
:103D9000079898B31C497918019A1018049AB0FB37
:103DA000F2F5554308982A4601F0ACFD014600247F
:103DB000201A4841EF19029A13685268FD1A94417B
:103DC00020D2F9B900200699039CE5433560DB1B3E
:103DD0008241C81A2046904100D31946079106AA8D
:103DE00005983946FEF768FD0004306802D003E00C
:103DF00030BF3068411CFBD00428C9D006A001F0B8
:103E0000A7FE002009B0F0BD002402106D8A011049
:103E100010390030643200305B444247205D20415D
:103E2000524D5F5543505F526561642072657475F1
:103E3000726E656420302062797465730D0A00002B
:103E400070B50C46064611A001F082FEA068FFF78F
:103E50000BFF0025B8B116A001F07AFE204600F055
:103E60004DF980B118A001F073FE30462146FFF7EE
:103E70005FFF40B11BA001F06BFE204600F040F850
:103E800000210D1A4541284670BDC0465B4442479B
:103E9000205D2045726173652061637469766520D9
:103EA0006170706C69636174696F6E0D0A00000067
:103EB0005B444247205D20577269746520686561E4
:103EC0006465720D0A0000005B444247205D204398
:103ED0006F7079206170706C69636174696F6E0DC9
:103EE0000A0000005B444247205D20566572696607
:103EF00079206170706C69636174696F6E0D0A007E
:103F0000F0B5A7B00125002854D0044600F0DCF835
:103F100000284FD0A068E1680143274608370225F2
:103F2000002947D002940CAE304602F071FC00210B
:103F30003046019102F072FC04A82021FCF7F3FE48
:103F400003973868E0B1984E074602E0C7B103987E
:103F5000006844F200018F423C4601D344F2000461
:103F60001649C91B09183046224601F00BFD0546CB
:103F70000CA83146224602F0CDFC3F1B002DE5D0B7
:103F80000CAD04AE2846314602F0ACFB284602F0E8
:103F90003AFC029C1034202220463146FCF7F4FD06
:103FA0000028019D06D0204602F006FF04A802F07A
:103FB00003FF0125284627B0F0BDC04600240210AB
:103FC000F0B5A1B002900020002962D00D46324821
:103FD0001EA91CC81CC103AE304602F019FC00210A
:103FE000304602F01BFCA968E8680A4602430095C7
:103FF000083501959AB3002444F20002274D264665
:10400000234610E01F9A3AB3209903A802F082FCDD
:104010001F9886190198016840680022731A82412E
:104020001DD200231E9AE7432F60891B9841531A23
:104030002346834100D30A461F921EAA02983146A6
:10404000FEF73AFC0004286802D003E030BF28687D
:10405000411CFBD00428D5D011A001F079FD03AD9F
:10406000514E2846314602F03DFB284602F0CBFB7C
:10407000009C1034202220463146FCF785FD014685
:10408000012031B1204602F097FE474802F094FE2D
:10409000002021B0F0BDC0461C7A0110643200300F
:1040A0005B444247205D2041524D5F5543505F5273
:1040B0006561642072657475726E6564203020627B
:1040C000797465730D0A0000B0B5002488B100242E
:1040D000E143094D2960FEF7D7FB000409D100E058
:1040E00030BF2868411CFBD0062801D1012400E024
:1040F00000242046B0BDC04664320030F0B587B021
:104100000025E943002843D003900191029501F076
:10411000EDFB07466F37B7FBF0F141437E1A1E4CAB
:104120002546284601F0E6FB4519204670308542B9
:10413000F7D3BF1B1948874208D21A48281887426C
:1041400009D9174801F004FD30BFFDE7144801F01C
:10415000FFFC30BFFDE71448FF223946FCF7B3FDF2
:10416000124804A90A4668C868C2039801F030FBE7
:10417000000402D0029D01990AE005987028029D72
:10418000019905D1084821463A4601F0BBFB01469A
:10419000681A484107B0F0BD00200210014000003D
:1041A0006D8A011000E0FDEF10390030287A01100F
:1041B000F0B595B0039300250B950A9509950895E0
:1041C0000795069505950495424C002A7CD00F462C
:1041D0000646029208A800F0A9FF0E34002873D109
:1041E00008A8314601F0A6F930468F30B8420BD806
:1041F00008AC204601F09CF90190204601F094F9AA
:1042000001994018B84201D2324C5AE0B81B441C04
:104210006708314608D00025314608A801F08AF920
:104220004519A919BD42F8D31A9801900496069130
:104230000595601B0790002508AC204601F076F933
:104240000746E80004A90E58324640320CA908235C
:10425000204600F083FF78BB00200CA9095C401CBD
:10426000B94202D10728F8D926E00CA8478801985E
:1042700000B10760039887421ED808A80299324609
:104280003B4600F06BFFB8B90EA801218181017592
:104290000023D9430F91104908310E9110930F4913
:1042A000129114A96A46116002993A4600F062FE22
:1042B00014980D9988420AD06D1C022DBCD3054874
:1042C000841D08A800F060FF204615B0F0BD002452
:1042D000F7E7C0460101FF80008601104C81011004
:1042E000F0B5ABB018A848242146FCF71CFD06AD7C
:1042F00028462146FCF717FD2846FFF701FE5B49DB
:104300000B6800249BB158490A6882B1C0CB079C56
:104310006740069D6E403E43083B16B913785B1C10
:1043200002E01D605C600023137009680C780126B0
:1043300002280CD068B9022C0DD806A8103002F063
:104340003BFD0798199006981890344609E048A05C
:1043500004E0032C01D35CA000E04FA001F0F8FBC7
:1043600000240020C143634D2960049405967440E5
:1043700006AE3146FEF790FA01043246303218AFED
:104380003B46303338461030029008373046103004
:1043900003900836286811B103E030BF2868411C3B
:1043A000FBD0072847D10093019230480568079851
:1043B0000699002D059A07D02B686A6842404B4049
:1043C0001343012203B91A46199B189D691A8341A8
:1043D00033D22243012A30D103CE0143083E61B3D8
:1043E000002406A92046FFF7EBFDB8B3039D28463D
:1043F00002F0E2FC03CE434A821A0A46A2412FD2BF
:10440000079A1992069A189203C7029C0FCD0FC4FF
:104410000FCD0FC4019C009D0FCC0FC53D4801F08E
:1044200097FB002018A9FFF70BFDD8B13B4801F01E
:104430008FFB059C0FE0304800E0304801F088FB1E
:10444000059C049818B1324801F082FB03E02F4824
:1044500001F07EFB002420462BB0F0BD2848EDE79C
:104460002948EBE72C48F3E70C390030A0790030FD
:104470005B444247205D204163746976652066692C
:10448000726D7761726520736C6F7420697320653B
:104490006D7074790D0A00005B444247205D204135
:1044A0006374697665206669726D776172652069EB
:1044B0006E7465677269747920636865636B2066E2
:1044C00061696C65640D0A005B444247205D2046CB
:1044D00061696C656420746F20626F6F7420616322
:1044E00074697665206170706C69636174696F6E60
:1044F0000D0A000064320030778B0110E68B01104A
:104500000A8B011001DC0500898B0110568B01100C
:10451000C28B0110A28B0110EA8A0110308B0110AE
:10452000F0B589B00F460646002508950795069513
:1045300005952748306027480860274CE01C316803
:10454000002943D005A800F0F1FD014620460930BE
:10455000E1BB049705AF2149384600F0EBFF384630
:1045600000F0E6FF0390384600F0DEFF029034686A
:104570003846214600F0DEFFB4FBF0F444430498D3
:1045800000680190411E384600F0D4FF07463068AD
:10459000A04217D10198401E2946A9413A462B4610
:1045A000FBF794FF401C78430399029A5218049930
:1045B0000968914206D8814204D105A800F0E4FDC3
:1045C000002003E005A800F0DFFD034809B0F0BDBE
:1045D00000000210002002100601FF80B48E0110BE
:1045E000B0B50E4800F014FE0D480C300021CC434D
:1045F0000325016859B1001D6D1C102DF9D3FBF77F
:10460000D1FE18210160054800F002FE04E00460BC
:10461000024800F0FDFD2C462046B0BD5836003063
:104620002432003082B080B582B00593049220B16C
:1046300004AA01920348FBF7CAFF02B080BC01BC88
:1046400002B00047C03300302649096801B108476D
:104650007047C046364800680168084734484068DB
:104660000168084732488068016808473048C068D8
:10467000016808472E480069016808472C484069CE
:10468000016808472A488069016808472848C069C6
:104690000168084710B582B0044601F0A3FA002172
:1046A0002448234A136873B1121D001D491C0829B0
:1046B000F8D301F0D9FA0022684602600748084999
:1046C000134601F089FE1460046801F0CDFA054834
:1046D00005490160204602B010BDC046200101809E
:1046E0000687011080380030ED46011010B582B009
:1046F000044601F077FA00210D480E4A1368A342E0
:104700000ED0121D001D491C0829F7D301F0ACFA88
:10471000002268460260084808A1134601F05CFECA
:104720000021016002B010BC01BC864601F09CBAB9
:10473000603800302C8101100101018054726965DC
:104740006420746F206672656520696E76616C699D
:104750006420435468756E6B456E74727900000076
:1047600010B500202AB10C461C4802F033FC207022
:10477000012010BD1C20C04370471520C043704766
:1047800000207047F0B581B014464AB10D46134E73
:1047900027462978304602F0E7FC6D1C7F1EF8D1D1
:1047A000204601B0F0BDC0460120704770B50446F8
:1047B0000848083020600848006840B91D46074E88
:1047C000304602F019FC3046294602F08DFB2046A7
:1047D00070BDC0464C850110DC7A0030F4790030A1
:1047E000FBF715BEF0B581B004464C20205C264690
:1047F0004C3620B1206D401C206500255EE0002075
:104800002065204600F0D0F90546002856D1E06822
:10481000002856D014214556E06A08B1E9B206E0F6
:1048200020461830FFF736FFE062E168097DAA00F4
:10483000264B1B689A18106448B2002808DBC10890
:10484000032291431F22024001209040204A8850B9
:10485000606940F20011FEF703FC6069FEF73AFC64
:104860000F200705A07C0006000F01D032780CE075
:104870001848016801220029104600D1084616494F
:10488000096801B90A46024032701AB10120206558
:10489000002505E0207A11A1FFF7C4FE3278164DFD
:1048A000207A16A1FFF7BEFE2069384201D0606869
:1048B00002E00848C0686060211D0860284601B019
:1048C000F0BD12481249DA2201F0F2FC08ED00E0D6
:1048D00000E100E02C340030443400304661696C63
:1048E00020746F20696E697469616C697A652063F0
:1048F0006172640A000000005FF0FFFF696E697476
:104900002063617264203D2025640A004086011006
:1049100055860110F0B587B01D461746069101680F
:10492000C96B0D9C6A4654600C9E166003903A4613
:10493000884701467E4A501C00295ED04C200399CE
:10494000085C0028104658D0049705950321069D61
:104950002A460A40774B3046184010430F22120770
:104960002A4001239B075B1BB34212D309078A42EB
:104970000FD170B90498400A0599C9054218700A08
:10498000E1054318039840690699FEF7EFFB98BBD1
:1049900033E03146214300200029059A049B2CD0A6
:1049A0000493580A0592D1054218700AE10540188F
:1049B0000294610A01435F48451C01B935466B0A00
:1049C000039840695C4C2146FEF7D0FBA0B9069FD6
:1049D000384621462A46FCF727F90020761B029C20
:1049E000844131462143049B5B19059A42417F195A
:1049F00006970029D4D100E0D44807B0F0BDC046E6
:104A0000017270474C21415C002001B94848704751
:104A1000B0B504464C20215C25464C35002059B1E8
:104A2000206D022801D3401E06E0E06810B1406806
:104A300002F08CFE0020287020650020B0BD000030
:104A4000F0B587B01F4614460D460168096C0D9EEF
:104A50006A4656600C9B06931360059022463B46BF
:104A600088470146324A501C00295ED04C200599E7
:104A7000085C0028104658D00394049703272A4660
:104A80003A402C4B06990846184010430F22120753
:104A90002A4001239B072C465B1B0D468B4212D3F9
:104AA0003B079A420FD170B90398400A049AD20585
:104AB0008218680AF305C318059840692146FEF775
:104AC00069FE88BB31E02A46334632430020002A83
:104AD0002746049C039E28D02946480ADA058018F8
:104AE00004935A0A02431348451C02B90D46069125
:104AF000114839462A46FCF797F8700AE105421832
:104B00006B0A059840690C49FEF744FE60B9002025
:104B10000699491B049B83410A461A43761944416E
:104B20007F19002AD9D100E0884807B0F0BDC046FF
:104B300074ECFFFFFF010000603600304169174A46
:104B400088188A58D20706D00122026040F6000079
:104B50000B5813430B50124A88188958C90703D0C1
:104B6000104901220A7002600168C90502D540F2AD
:104B7000001101600168890701D502210160016807
:104B8000890402D542F2000101600168C90404D51C
:104B900041F2000102680A43026070470808000001
:104BA0002C0800009D790030F0B581B00446007AF1
:104BB00049A1FFF737FD206B514901F0B3FF009089
:104BC000606B504901F0AEFF0646A06B4E4901F004
:104BD000A9FF0746E06B4D4901F0A4FF0546009888
:104BE000314601F07FFF06463846294601F07AFF3C
:104BF0000146304601F076FF0090206C444901F0F8
:104C000091FF0646606C434901F08CFF0746A06C9B
:104C1000414901F087FF05463046394601F062FF01
:104C2000294601F05FFF0146009801F05BFF054651
:104C3000401C3CD03949284601F034F8E060F0B31C
:104C40000068A84241D1206B2D4901F09DFF606BA7
:104C50002C4901F099FFA06B2B4901F095FFE06B07
:104C60002A4901F091FF206C294901F08DFF606C09
:104C7000284901F089FFA06C274901F085FF3148E0
:104C80002E46064002F068FD25616661E068006915
:104C900002F068FDE268121D07CA02F069FDE068D3
:104CA000406802F06BFD02F06FFD002005E0206817
:104CB000C26C012120469047244801B0F0BD224833
:104CC0001F4940F2D81201F0F3FA40F2D810421C0A
:104CD00013A01B4901F0ECFA5344204D50462053D9
:104CE000657474696E67202620456E61626C65206C
:104CF000534420495020436C6F636B0A000000004E
:104D0000A07B0110C47B0110E87B01100C7C01101A
:104D10007C7B0110587B0110347B0110F480011062
:104D20005F7364685F6D6F64696E69742D3E6D6F4B
:104D3000646E616D65203D3D2073645F6D6F64003E
:104D400055860110E0FF0FFF408601105FF0FFFF66
:104D5000F0B5002141600172C16041610162124AF7
:104D600042628162114A8261114F204B0833036015
:104D7000CB4303613B46F5333C46F6343D46F735BD
:104D80003E46F836FA370A4AF932C1620363446391
:104D90008563C66307644264054A8264C0614C222D
:104DA00081540165F0BDC0463D4B0110B951011061
:104DB0000D03000080B500F005F880BC02BC8E46F3
:104DC00000F0BCBB10B504460848083020604C20F9
:104DD000205C10B12046FFF71BFEE06A18B1FFF718
:104DE00033FC0020E062204610BDC046A8850110BB
:104DF0001520C04370471820C243002001B9104657
:104E000070471520C04370470168896A0847002031
:104E1000704701680B690021012218470168896900
:104E2000084703681B691847704701680B69002130
:104E30000A4618471520C0437047704710B50D4803
:104E40000078BFF35F8FC00701D00B4810BD094841
:104E500000F09CFB0028F8D0074C2046FFF778FFB5
:104E60000648074A214600F08FFB024800F0B8FBD5
:104E7000EBE7C04654360030A0380030C54D011075
:104E800000000110002070470020704770B500241A
:104E90000F281ADC0546800017490C580E18022D01
:104EA00013DC601C11D1284600F02CF8044658B9D8
:104EB000284600F029F8044630B910480078BFF3BE
:104EC0005F8FC0070E4C02D03460204670BD0B4887
:104ED00000F05CFB0028F7D040F20C10411CE120F0
:104EE0004302074C204640F20C12FFF75FFC0348D8
:104EF00000F076FBE8E7C046243200305036003040
:104F00009C380030002070470020704790B4047D2A
:104F1000022C04D0012C05D190BC00F079BA90BCD1
:104F200000F0B6BA0020C04390BC704770B5C1B164
:104F30000A68437B63B100232024D50703D0651E94
:104F40000126AE403343641E5208002CF5D100E028
:104F5000134682685A400A600168896888470020C1
:104F600070BD1648164940F2131201F0A1F9C0466F
:104F70007047000070B582B0069CD4B10546406809
:104F80002060684604602846FFF7C0FF28B1064647
:104F9000286881682846884708E028462146FFF7A8
:104FA000C5FF002610B1002121600646304602B040
:104FB00070BD02480249A12201F07AF98A860110E7
:104FC0009686011000F0BABA7047007B7047000067
:104FD000F0B581B00E460446174800F019F917489D
:104FE00005680DE0AF6857B13846FBF7FBFDB042EE
:104FF00005D1384621463246FBF7C6FD88B16D68BB
:10500000002DEFD1072E05D10DA007222146FBF779
:10501000BBFD50B1084800F0FBF80025284601B060
:10502000F0BD054800F0F4F8F8E7034800F0F0F8A8
:1050300005480568F2E7C0468838003084380030FB
:1050400064656661756C740090380030B0B50546D3
:105050004068002438B1FFF7B8FF012803D1686821
:10506000041F00B904462046B0BDB0B505464068EF
:10507000002430B1FFF7A9FF18B96868041F00B910
:1050800004462046B0BD4168012001B9084670477A
:1050900080B54168002031B10846FFF796FF014610
:1050A0000020401A484180BD0068704770B50E4628
:1050B00004460025056045600EA13046FBF754FD0F
:1050C000301802E02F2A06D06D1C41192160425D84
:1050D000002AF7D101E0491C21602DB12946FFF7D4
:1050E00077FF6060204670BD03A006A12A2201F070
:1050F000DFF8C0462F0000006C656E20213D203097
:10510000000000002E5C6D6265642D6F735C706C36
:105110006174666F726D5C736F757263655C46690E
:105120006C65506174682E637070000070B5054640
:10513000204E304600F06CF8284602F02BFB044667
:10514000284602F02DFB00F0FBF9E860304600F045
:105150005FF80020C04304B9204670BDF0B581B0AF
:105160001C4615460E460746124800F051F83846D0
:1051700029463246234600F08DFD04460D4800F0D6
:1051800047F8204601B0F0BDB0B50546094800F02B
:105190003FF8284602F00AFB0021CC4300B9044640
:1051A000E86808B100F0C8F9024800F031F820467C
:1051B000B0BDC0469438003030B4436873B1C268A3
:1051C000056901242C402146114339B181686810DA
:1051D00018180CB103689A5830BC104730BC70479F
:1051E000B0B50D460024C80705D0084801F0CCFF33
:1051F000012400B90446E80606D5044801F0CCFFB6
:105200002146103100B10C462046B0BDF479003083
:1052100080B50146006808B9086818B1091D8842C0
:1052200003D180BD081D086080BD02A00AA18B22A9
:1052300001F03EF870203D3D207265696E74657224
:10524000707265745F636173743C54202A3E282633
:105250005F646174612900002E2F6D6265642D6F9B
:10526000735C706C6174666F726D2F53696E676CDE
:1052700065746F6E5074722E68000000002140F259
:1052800000207047002140F200207047002140F2CA
:1052900000207047002140F2002070474C21425C02
:1052A0000021C9431AB140684002002170470148FB
:1052B0007047C04674ECFFFF00A070474E55534442
:1052C0000000000001207047F0B585B01D4616466D
:1052D00004460068416A2046884702460B4630462D
:1052E0002946FBF7F3F8134300270BBB0196039500
:1052F0000B9D0A9E2068416A2046884702460B465D
:105300000296304604952946FBF7E0F813437BB933
:10531000029801994618049D039845412068816BC5
:105320002046884701270022801BA94100D217464A
:10533000384605B0F0BDF0B581B01C4617460546AD
:105340000068016B2846884702460B4638462146CE
:10535000FBF7BCF813430026EBB907980699CF1961
:10536000444100267A1E2346B3412868016B284633
:10537000884702460B4638462146FBF7A7F81343F9
:105380004BB92868816B2846884701260022C01B3C
:10539000A14100D21646304601B0F0BD0020C04306
:1053A0007047F0B585B01D46164604460068816A10
:1053B0002046884702460B4630462946FBF786F8CA
:1053C000134300270BBB019603950B9D0A9E206893
:1053D000816A2046884702460B460296304604956D
:1053E0002946FBF773F813437BB9029801994618D5
:1053F000049D039845412068816B2046884701271A
:105400000022801BA94100D21746384605B0F0BDE6
:10541000F0B587B006910C9CA4B3114619430194D2
:10542000256851B301690391007B029000273C4637
:10543000059304920698C65D029860B10021082386
:10544000F20703D05A1E0120904001435B1E7608EC
:10545000002BF5D100E0314600207F1C4441280E8E
:10546000C9B241408800039908582D024540049A6A
:10547000B81A2046059B9841DCD3019805600020AE
:1054800007B0F0BD2648274940F2D91200F010FFBE
:10549000F0B587B005910C9CD4B311461943019423
:1054A000256881B30392007B029000261B4F314692
:1054B000049306910598805D029961B1002108234B
:1054C000C20703D05A1E0124944021435B1E4008AA
:1054D000002BF5D100E001460906694008204D0087
:1054E0002B467B40002900DA1D46401E0106294656
:1054F000F5D10020761C069941410398301A0846E0
:10550000049B9841D5D301980560002007B0F0BDF9
:105510000348044940F2AD1200F0CAFEB71DC104B1
:105520008A8601109686011002F046B902F04AB947
:1055300002F04EB902F052B9FAF769BFFAF767BF45
:1055400010B582B00446FAF731FF08B102B010BDC1
:10555000002368460360024802A1224600F03CFF97
:105560001F0101804F70657261746F72206E6577E4
:105570005B5D206F7574206F66206D656D6F72794D
:105580000D0A0000704670470120704780B5014643
:105590000378032213400020012B04D00B781A401B
:1055A00012B1012A05D180BD022003430B700120F6
:1055B00080BD02A01349094A00F07AFE2867756190
:1055C00072642026204358415F47554152445F4D45
:1055D00041534B29203D3D2030000000E5050000EF
:1055E00080B5017803220A40022A04D1FC2211402E
:1055F000491C017080BD02480249034A00F058FE70
:105600005988011090880110EE05000090B40648FA
:1056100001687622054B10C910C3521EFBD1034905
:10562000016090BC00F054BF08ED00E00030003095
:1056300000F0B6BAFEE710B5FFF728FC092430B138
:105640000168896A8847002800DB10BD4442FAF7E8
:10565000A9FE04600020C04310BD00F0A1BD000001
:10566000B0B50D4604462249FBF760FBB8B12149AD
:105670002046FBF75BFBA0B11F492046FBF756FB1A
:1056800088B12078402814D16078A17809020818E0
:10569000E17822791202511809040C1807E000245D
:1056A00002E0012400E002242046FFF7EFFB204641
:1056B000B0BD01200221AA0700D508466907890F5D
:1056C00003D12807C1170920084040F200214118E2
:1056D0002A07920F00D00846290240F200420A40F1
:1056E00081182046B0BC04BC964601F071B9C04692
:1056F0001C8601102386011014860110002200F080
:1057000060BD10B51446002A0CDB024600203CB1F7
:105710001046224601F0D3FF0021C943002807DBD1
:10572000211A05E0FAF73EFE162101600020C14370
:10573000084610BD80B582B001A90870012002465C
:1057400001F0BDFF02B080BD80B51248006801685D
:10575000C96A884780BDC04680B50E4800680168A8
:10576000896A884780BDC0460A4800680168896820
:105770000847C04670B582B0014606480068046814
:10578000646900256E467560069D3560A04702B0CD
:1057900070BDC046F838003070B5002299B10022C3
:1057A000D3430A4A05785D40491E08246B081E460B
:1057B0005640ED0700D03346641E1D46F6D1401C0E
:1057C0000029EFD1DA43104670BDC0462083B8ED02
:1057D00070B506460220BEB30C46A9B321687029F5
:1057E00032D3A06870252946FBF79BFAA0681749B9
:1057F00000F08EF9A068001D022100F089F90CCE9E
:10580000A0680830083E00F08CF9B268F368A06820
:10581000103000F086F9A06831461031183020228F
:10582000FBF702FAA0683036583010223146FBF7F9
:10583000FBF9A0686C21FFF7AFFF0146A0686C3050
:1058400000F066F96560002070BDC046D4B3515ABF
:10585000F0B581B00E4605464D4F384601F0B8FF11
:105860000446384601F0A8FF0019A84210D9AC42FE
:105870000DD2474F3846214601F0B0FF0419AC4223
:10588000F8D3201A06B92046AC4200D00446204680
:1058900001B0F0BDF0B581B00D4604460121FFF71F
:1058A000D7FF0090281900273946FFF7D1FF05469A
:1058B000FE430098A04211D1A5423E460ED9344F76
:1058C0003846214601F090FF06463846214601F051
:1058D00085FF0419AC4201D2002EF1D0304601B050
:1058E000F0BDC0462A4801F061BFC046284801F01B
:1058F00057BFC0460146264801F070BF244801F05A
:1059000049BFC046F0B583B00025EF43019010B306
:1059100000921F4E3046029101F05AFF0446304675
:1059200001F04AFF029A944215D80119009EB2185C
:10593000B04210D38A420ED8154801F031FF0299C7
:105940000346B1FBF0F05843081A04D1B6FBF3F05C
:105950005843301A02D0384603B0F0BD002E2F460F
:10596000F9D0002409190198021909481D4601F0CF
:1059700041FF074664190028EDD12B46B442029935
:10598000F0D3E8E713460246014800F083B9C04669
:10599000FC380030F0B599B0022600284ED00C46F5
:1059A00000294BD0054611AE202730463946FBF77B
:1059B000BAF900200F900E9710960EA8FDF73AF94D
:1059C000022600043AD1E8200C900B900D9503AE0E
:1059D00030463946FBF7A7F90197009702960EA8C3
:1059E0000BA96A46FDF792F802261649084225D10E
:1059F0000C970B972846E8300D900BA86946FCF7EA
:105A000069FFD8B92846083000F05BF803C428467F
:105A10001030083C00F055F8A060E16020461030DE
:105A2000294618312022FBF7FFF820463030A035F8
:105A300010222946FBF7F8F800262664304619B0F4
:105A4000F0BDC046FFFF0000F0B581B0022638B3BC
:105A50000D4629B304466C21FFF79EFE07462046FB
:105A60006C3000F020F8B8421AD12046083000F01F
:105A700028F803C520461030083D00F022F8A86041
:105A8000E96028461030214618312022FBF7CCF877
:105A900030355834102228462146FBF7C5F8002639
:105AA000304601B0F0BD002148B1417802781202C1
:105AB00051180902827889180902C0780918084625
:105AC0007047002208B34178027812025118090287
:105AD000827889180902C27889180A0CFF239A4330
