:100000000000042001430000394300003B4300008E
:100010003D4300003F43000041430000000000005A
:10002000000000000000000000000000BD2B0000E8
:100030004543000000000000552C0000652C000026
:10004000656B00004B4300004B4300004B43000036
:100050004B4300004B4300004B4300004B43000068
:100060004B4300004B4300004B4300004B43000058
:100070004B430000F56C00004B4300004B43000075
:100080004B4300004B4300004B4300004B43000038
:100090004B4300004B4300004B4300004B43000028
:1000A0004B4300004B4300004B4300004B43000018
:1000B0004B4300004B430000000000000000000024
:1000C0004B4300004B4300004B4300004B430000F8
:1000D0004B4300004B4300004B4300004B430000E8
:1000E0004B4300004B4300004B4300000000000066
:1000F000000000004B430000000000004B430000E4
:1001000010B5054C237833B9044B13B10448AFF351
:1001100000800123237010BDA80300200000000010
:100120008C9300000C4B43B10C480D4910B5AFF354
:1001300000800C48036823B910BD0A48036833B92E
:100140007047094B002BF7D0BDE810401847064B0D
:10015000002BF5D0184700BF000000008C93000072
:10016000AC030020A803002000000000154B002B6A
:1001700008BF134B9D46A3F5803A00218B460F46DE
:100180001348144A121A08F087F80F4B002B00D0BE
:1001900098470E4B002B00D0984700200021040008
:1001A0000D000D48002802D00C4802F0F5FA08F0C6
:1001B00025F82000290002F0EBFB02F0EAFA00BF6C
:1001C000000008000000042000000000ED280000EE
:1001D000A8030020E862002099270000000000002A
:1001E00000207047002070472DE9D0431F46036868
:1001F0009B6A16460446DDE90689984702460B4687
:100200003046394608F02EF9134302D00020BDE8ED
:10021000D083236820469B6A984702460B46404697
:10022000494608F01FF91343F0D1236816EB08067E
:100230009B6B204647EB09079847B94208BFB0427D
:100240002CBF01200020BDE8D0832DE9D0431F46FC
:1002500003685B6A16460446DDE90689984702464C
:100260000B463046394608F0FDF8134302D0002013
:10027000BDE8D083236820465B6A984702460B4658
:100280004046494608F0EEF81343F0D1236816EBD8
:1002900008069B6B204647EB09079847B94208BF01
:1002A000B0422CBF01200020BDE8D0831F2886BFAC
:1002B00000F01F00044A4FF0A042012303FA00F0AF
:1002C000C2F80C05704700BF000300500120002158
:1002D0007047D0F80C010021704790F8343123B1F9
:1002E00000F58C70D0E900017047002000217047B4
:1002F000FF2070470048704791870000016870B583
:10030000096B14461D460646884702460B462046A2
:10031000294608F0A7F8134301D0002070BDDDE99D
:100320000423A4185D41336814F1FF32196B304681
:1003300045F1FF33884702460B462046294608F020
:1003400091F81343E9D1336830469B6B9847A94233
:1003500008BFA0422CBF0120002070BD1F2886BF0F
:1003600000F01F00044A4FF0A042012303FA00F0FE
:10037000C2F80805704700BF0003005073B5064679
:1003800004461E4846F8040B4FF0FF3000903046FC
:1003900000F0E0FE2046002500F84C5F9DF91810A3
:1003A00001F0FEFB04F58C730020002125656565D6
:1003B000A565E565C4F81051C3E900010323C4F83D
:1003C00020310823C4F82431C4F82C310123C4F8A7
:1003D00080300799C4F83051304684F83451C4F85D
:1003E0002851C4F80C5184F8005100F005FF94F92D
:1003F0004C00FFF7B3FF204602B070BDA08700009D
:100400002DE9F041FF261E604C781C601C2A37DD68
:10041000069A079C02F1100C0125B046C2F8008034
:1004200091F81CE00127BEF1000F03D07F000EF110
:10043000FF3EF8E7012F276019D04F7F176027682C
:10044000D0F80CE1774502D3BEF1000F01D1C0F81E
:100450000C712768B7F5805F04D117681E68BE422B
:1004600018BF1F6090F800712F4380F800710432AC
:100470006D006245EDB201F1020104F10404CDD139
:100480000020BDE8F081F0B51D4600F58C731446E0
:10049000D3E90023AB4208BFA24216D3D0F88010A4
:1004A00099B101290FD000EBC1008B1EA830002BA1
:1004B0000BDB70E90267AF4208BFA64201D2581CAD
:1004C000F0BD013BF3E70020F0BD4FF0FF30F0BD81
:1004D00010B50446FFF7D7FF03465A1CD4F80C01A9
:1004E00009D02344012293F800110023114204D0C3
:1004F0001C3354F82300002110BD01335200042B9B
:1005000052B2F3D1F7E7F0B5059D00F17C06002764
:1005100003200824EB1A0D78254208D0376897424B
:1005200001DA9F420BDB25EA04050D70074601380E
:10053000451C4FEA5404A6F10406ECD13846F0BD40
:1005400070B50546046894B90A4E306818B14FF08A
:10055000FF3103F047FA2C682CB92C1D02D020463D
:1005600002F086F92C60306808B103F053FA204697
:1005700070BD00BFD81200202DE9F84FD0F82C3103
:10058000054605F1040990F94C0090464FEAD30A5C
:10059000DDE90C67FFF78AFE484600F090FED5F8CB
:1005A000204104F10054013CE400002C08DA00244E
:1005B000544510D00021484600F081FE0134F7E791
:1005C0002246DDE90A0107F035FFC1B2484600F0D6
:1005D00076FE083CE9E708F1FF384FF0000A4FF0DB
:1005E000000BBB4508BFB2450AD00021484600F0C9
:1005F00066FE1AF1010A08F8010F4BF1000BF0E753
:1006000095F94C00FFF7AAFE0020BDE8F88F000026
:10061000F0B51F4690F8343185B004460D461646B5
:1006200003B31248FFF78CFF02F02AF9D4F8243103
:10063000C4F82C31DDE90A23216DCDE90223CDE98F
:1006400000672A462046FFF797FFD4F82831C4F800
:100650002C3105460548FFF773FF02F02DF92846B7
:1006600005B0F0BD6FF47A65F9E700BFC403002060
:100670002DE9F04395B0002304AD02928DE80A0005
:1006800003932A465A210446FFF776FF00284DD1EE
:100690009DF8103003F00303032B03D09DF81130B5
:1006A000002B43D09DF8120001300A28C4F88000C6
:1006B0003CDC002304F1840904F5807804F1B00CDB
:1006C0004FF00F0E19460131884255F8212015F8D8
:1006D000216022F0FF0202F5807249F8042B02F13A
:1006E000FF3206F00F06134408F8016B4FEAE37778
:1006F0000EEA060E1E46ECE8026703F10103E2DC97
:100700000122002312EA0E0008D01C33002054F806
:100710002330C4F80C3115B0BDE8F083013352002A
:10072000042BD2B2EED1C4F80C01F4E74FF0FF3045
:10073000F1E730B595B00023154602928DE80A0026
:10074000039304AA5A210446FFF716FF002838D164
:100750009DF8123013F0040233D19DF91730002BAD
:100760002FDB059BC4F81C210133DB08C4F81831CA
:100770000323236502236365282D4FF02003A3651F
:1007800007DD9DF838200123121122B15B00013AE8
:10079000FBE74FF48073C4F8103104F17003019348
:1007A00004F1600300932A4604F15C0304A9204687
:1007B000FFF726FEE36DA3650020C4F8240115B001
:1007C00030BD4FF0FF30FAE72DE9F04F8FB0934680
:1007D00007930823C0F82431C0F82C310022994631
:1007E0004FF00008029300238A46CDE90023CDF89C
:1007F0000C800AAA5A210646FFF7BEFE28B14FF028
:10080000FF3738460FB0BDE8F08F042233490AA8FD
:1008100007F028FD07460028F1D19DF82D20012A78
:10082000EDD19DF82E000021023041F10001CB00F6
:1008300045460593C3004C46C8460493A946CDF8E7
:100840000880CDF80C90CDE9004508AA5A21304621
:10085000FFF792FE0028D2D19DF82220012ACED1A6
:100860009DF820200ABB9DF82720FF2A13D19DF870
:1008700025209DF82610120242EA01429DF824101C
:100880000A43CAF800209DF823209200402AA8BFFE
:100890004022CBF80020DDE90423083445F10005AF
:1008A000AB4208BFA242CAD1ABE7512AF3D19DF8AF
:1008B0002720FF2AEFD19DF825209DF82610079BC1
:1008C000120242EA01429DF824100A431A609DF880
:1008D0002320189B92001A60DDE700BF8C87000080
:1008E0002DE9F84FD0F82C31054605F1040890F9B0
:1008F0004C0091464FEAD30ADDE90C67FFF7D6FCBE
:10090000404600F0DCFCD5F8204104F10054013CE5
:10091000E400002C08DA0024544510D000214046A1
:1009200000F0CDFC0134F7E72246DDE90A0107F0CB
:1009300081FDC1B2404600F0C2FC083CE9E709F184
:10094000FF394FF0000A4FF0000BBB4508BFB2451E
:1009500009D019F8011F404600F0B1FC1AF1010A54
:100960004BF1000BF1E795F94C00FFF7F7FC002085
:10097000BDE8F88F2DE9F74305461F46D0F82C3126
:1009800090F94C0005F1040816464FEAD309FFF729
:100990008DFC404600F093FC7B1C08BFB6F1FF3F86
:1009A0001BD0D5F8204104F10054013CE400002C98
:1009B00008DA00244C4510D00021404600F07FFCAE
:1009C0000134F7E722463046394607F033FDC1B21D
:1009D000404600F074FC083CE9E70D9B00930AA92F
:1009E0000EC9404600F07BFC95F94C00FFF7B6FCC1
:1009F000002003B0BDE8F0837FB506461448FFF73A
:100A00009FFD01F03DFF96F834514DB9C6F83051C5
:100A10000F48FFF795FD01F04FFF284604B070BD69
:100A2000D6F83041013CC6F830417CB903940294B9
:100A3000019400944FF0FF324FF0FF330421304611
:100A4000FFF798FF86F834410546E1E70025DFE728
:100A5000C4030020DFB5074E00240027039402944E
:100A60000194009432403B40FFF784FF204604B0DD
:100A7000D0BD00BF00F0FFFF2DE9F04186B0064673
:100A800042F210744FF0010805AF0025012003F079
:100A900035FC4FF0FF33CDF80C800297019500959F
:100AA0004FF0FF3205213046FFF764FF9DF8143008
:100AB000DB0705D5013CE9D1204606B0BDE8F08151
:100AC0000120FAE730B587B006AA002322F8043DDA
:100AD000012103910292019300934FF0FF324FF0F6
:100AE000FF3305210546FFF745FF20B14FF0FF34E6
:100AF000204607B030BD03900290019000904FF067
:100B0000FF324FF0FF3366212846FFF733FF0028FE
:100B1000ECD103900290019000904FF0FF324FF023
:100B2000FF3399212846FFF725FF003018BF012029
:100B300044422846FFF7A0FF0028D9D1D6E770B578
:100B400086B0002303930293019300934FF0FF328A
:100B50004FF0FF3306210546FFF70CFF044618B19E
:100B60004FF0FF3006B070BD2846FFF785FF002824
:100B7000F6D005AE02222146304607F08DFB012358
:100B800003930296019400944FF0FF324FF0FF332D
:100B900005212846FFF7EEFE0028E1D19DF814005C
:100BA00080F0020040F34000DCE700002DE9F04F48
:100BB0009B4690F8343185B004460D469246002B92
:100BC00045D0DFF8AC80DDE90E23134345D0D4F8DF
:100BD000109100274A463B465046594607F042FCD2
:100BE000DDE90E0180185941B94208BF4845204847
:100BF00034BFDDF83890A9EB0209FFF7A1FC01F042
:100C00003FFE2046FFF79BFF48BB00274E46CDE93D
:100C100000ABCDE902672A46616D2046FFF760FE12
:100C2000DDE90E231AEB090A4BEB070BB2EB0902C5
:100C300063EB070320464D44CDE90E23FFF71CFF6D
:100C4000A0B14046FFF77CFC01F036FEBBE76FF435
:100C50007A64204605B0BDE8F08F0024F9E7054C22
:100C60000348FFF76DFC01F027FEF2E7024CF7E7BF
:100C7000C40300205CF0FFFF5DF0FFFF2DE9F04FA3
:100C800090F8341187B0824616461F46DDE91045BC
:100C9000002900F08C80FFF7F6FBB0F1000B03DABF
:100CA000494807B0BDE8F08F0AEB0B0314EB0608C8
:100CB00093F800318DF817300AF58C73D3E90023CF
:100CC00045EB07094B4508BF4245E9D3DAF8003048
:100CD0003246196B50463B46884702460B46304623
:100CE000394607F0BFFB1343DAD1DAF8003018F1C8
:100CF000FF32196B504649F1FF33884702460B46D5
:100D00004046494607F0AEFB1343C9D1DFF8BC802B
:100D1000002C4FDD0AEBCB092246D9F8B030009306
:100D20000DF1170133465046FFF7EDFB0AEB80004B
:100D30003946056F036E03932A460023304607F0B9
:100D400091FB13199D42404694BFAD1A2546FFF70B
:100D5000F7FB01F095FD5046FFF7F1FE60BB224620
:100D6000E317CDE90023039932463B465046FFF78F
:100D700071FE641B761947F10007002C0DDDD9E9DF
:100D80002C23BB4208BFB2423FBF0BF1010B0AEB61
:100D90000B0393F800318DF817305046FFF76CFEC7
:100DA00050B14046FFF7CCFB01F086FDB0E76FF491
:100DB0007A6076E7002074E70448FFF7C1FB01F092
:100DC0007BFD03486DE700BF5BF0FFFFC40300201D
:100DD0005DF0FFFF70B58AB0002304464E480693CD
:100DE000079308930993FFF7ABFB01F049FD94F8D3
:100DF00034310BB9C4F83031D4F830310133012B20
:100E0000C4F8303108D000254348FFF799FB01F0C2
:100E100053FD28460AB070BD2046FFF753FE01304F
:100E200002D16FF47A65EFE70323039305AB0293D6
:100E30000023019300934FF0FF324FF0FF339F21C7
:100E40002046FFF797FD05460028EAD19DF81430AB
:100E5000BF2B0ED12046FFF772FE03950295019538
:100E600000954FF0FF324FF0FF3398212046FFF7F7
:100E700081FD2046FFF700FE00284AD009AB009311
:100E800007AA08AB06A92046FFF79EFC08B1234D30
:100E9000BAE7079A06992046FFF74BFC054600285B
:100EA000F5D104F58C76D6E900230899C4F884209E
:100EB00012F1FF3243F1FF33C4E92C2301BBD4F814
:100EC0002831C4F82C31012384F83431D6E90023C9
:100ED00000214FF08070994208BF904293D20023C6
:100EE00003930293019300934FF0FF324FF0FF33CF
:100EF000B7212046FFF73EFD0423C4F8203183E7E5
:100F0000099A002ADBD02046FFF7B2FB0028D6D092
:100F1000BDE7034D78E700BFC40300205EF0FFFF8C
:100F20005DF0FFFF38B50446054B44F8043B054629
:100F3000FFF762FD204600F0EDF9284638BD00BFFE
:100F4000A087000010B50446FFF7ECFF20464FF4E1
:100F50009C7101F05BFC204610BD7047704703F0A8
:100F600031BC03F041BC03F025BC03F03FBC0000E2
:100F700070B50D4E05463046FFF7E2FA01F080FCF1
:100F8000284603F097FB0446284603F02BFC01F0AB
:100F90002DFC68603046FFF7D3FA01F08DFC201C71
:100FA00018BF0120404270BDEC03002038B5054653
:100FB0000B48FFF7C5FA01F063FC284603F098FBE5
:100FC000003018BF01204442686808B101F020FCDD
:100FD0000348FFF7B5FA01F06FFC204638BD00BFAB
:100FE000EC0300202DE9F0410C4C054620460F464D
:100FF00016469846FFF7A4FA01F042FC43463A46EB
:101000003146284600F088FD05462046FFF798FA4D
:1010100001F052FC2846BDE8F08100BFEC0300203F
:10102000C36810B504460BB19B689847204610BDB5
:1010300010B4446800F108010EC95CB103F001006E
:1010400002B938B15B1008B1E0588258E0185DF879
:10105000044B10475DF8044B7047000070B50B4D12
:101060000646286818B14FF0FF3102F0BBFC346827
:101070002CB9341D02D0204601F0FAFB34602868F8
:1010800008B102F0C7FC204670BD00BFD812002096
:1010900008B54368D86C18B903F14C00FFF7DEFFC0
:1010A000BDE8084001F008BC08B54368D86C18B921
:1010B00003F14C00FFF7D2FFBDE8084001F0E0BBB0
:1010C00038B5054601F0D0F9074B1B68002B08DD49
:1010D000064C2078A84218BF002401F0CFF9204622
:1010E00038BD0024F9E700BF8C0400201404002060
:1010F000044A1368591C1160034A782000FB03203E
:10110000704700BF8C0400201404002038B5082369
:1011100083630F4B03640025FF2380F8305080F871
:10112000315080F84550C56380F84430044601F0E2
:101130009BF92846FFF7C4FF0546606018B9FFF722
:10114000D7FF60600570BDE8384001F097B900BF77
:1011500040420F002DE9F04104461E46134B036048
:101160000025134BE0608846174605611022456153
:1011700085618360C5612946203007F08DF82046DF
:101180009DF9183084F8353084F8328084F8337053
:1011900084F834604FF0FF3100F8365F00F000FD56
:1011A0002046FFF7B3FF2046BDE8F081F48700003A
:1011B0003110000037B504464068436F9C4219D097
:1011C00094F9355094F9343094F9332094F932106D
:1011D0000095043004F0D6F96068E26BA16B00233F
:1011E000043004F023FA6068216C043004F030FA13
:1011F00063685C6703B030BD036870B504461B6963
:101200000D46984760682564436F9C4209D1294682
:10121000043004F01DFA236820465B69BDE8704085
:1012200018472046FFF7C6FFF5E7000090F9363073
:101230005A1C19D061B11F2B86BF03F01F030B4945
:101240004FF0A041012202FA03F3C1F808357047BC
:101250001F2B86BF03F01F0304494FF0A04101225A
:1012600002FA03F3C1F80C35704700BF00030050C9
:1012700038B5036804461B69984794F945506B1CC0
:1012800084F8453045B92046FFF794FF29462046AB
:10129000BDE83840FFF7CABF38BD10B590F84530FB
:1012A000013B5BB2044680F8453013B90121FFF7DA
:1012B000BDFF236820465B69BDE81040184738B57C
:1012C00004460D46FFF7D4FF60682946043004F059
:1012D000F9F905462046FFF7E0FF284638BDF7B587
:1012E00004461F460D461646FFF7C2FF94F84430E9
:1012F00060680193089B009329463B4632460430C0
:1013000004F00AFA05462046FFF7C7FF284603B057
:10131000F0BD000010B50C4B03600446FFF7C4FE9F
:1013200063685A6F944204BF00225A672046FFF751
:10133000AFFE04F12000FFF773FEE06908B100F092
:101340007FFE204610BD00BFF487000010B50446A4
:10135000FFF7E0FF2046482101F058FA204610BD73
:1013600003689B681847000010B50446074B2360CC
:1013700000220023C4E9022300230846A16123615F
:101380006361034900F09CFD204610BD148C0000F1
:101390006113000007B5009000F10801806900F0BA
:1013A000CEFD03B05DF804FB00F10801806900F098
:1013B000F6BD000010B5034B03600446FFF7F4FFD1
:1013C000204610BD148C00000A4619B1024B0021C2
:1013D0001B681847704700BF040200206C220021E0
:1013E00006F05ABF10B16C21FFF7EEBF7047000046
:1013F000002303604360B9B9184B8360184BC36086
:10140000184B0361184B4361184B8361184BC36140
:10141000184B036203F17453A3F52303A3F692431D
:101420004362816600207047134B8360134BC36097
:1014300003F1794303F5740303F501630361104B72
:101440004361104B836103F1D14303F5C01303F5EE
:101450001E63C3610C4B03620C4BE1E767E6096A4C
:1014600085AE67BB72F36E3C3AF54FA57F520E51C5
:101470008C68059BABD9831FD89E05C107D57C36E8
:1014800039590EF7310BC0FFA78FF964A44FFABE8C
:10149000FFF7AEBF2DE9F04FCBB000F1080300938A
:1014A0001A46002302A852F8044B40F823400133A7
:1014B000082BF7D102AC94E85004059BDDF824B06A
:1014C000069D089FDDF81CC00193ADF118024FF096
:1014D000000EBEF10F0F62D84B7891F800901B04FC
:1014E00043EA0968CB7848EA030391F8028043EAAB
:1014F00008231364354B53F82E301846136C4FEA0B
:10150000F528184488EAB5188CEA070388EA756854
:101510002B4080447B409844019BCDF804A0D844E4
:101520004344184646EA04094FEA743306EA040BBA
:1015300083EAB40309EA0A0949EA0B0983EAB453C6
:101540000EF1010E4B44BEF1400F434401F1040182
:1015500002F10402BB461BD1029309970690CDF815
:1015600020C0079503940496CDF814A00023009A98
:1015700002A9126851F823100A440099013341F876
:10158000042B082B0091F2D100204BB0BDE8F08F66
:10159000B24667462646AC461C46054699E7936B1D
:1015A000D2F804904FEAF34888EA734888EA93280F
:1015B000536A1846136818444FEAB94383EAF9138B
:1015C000804483EAD90908EB090392E7208C0000E4
:1015D0002DE9F04105460F46144612B90020BDE83A
:1015E000F081036803F03F0013449A422B6082BFEE
:1015F0006B6801336B6008B3C0F14006B24216D38A
:1016000005F128083246404406F03BFE4146284694
:10161000FFF740FF0028E2D13744A61B3446311BB8
:101620003F2C39440CD8002CD8D00F460020283548
:1016300022463946284406F024FECFE71646EDE759
:101640002846FFF727FF0028C9D1403CE7E7FFF70E
:10165000BFBF036870B503F03F030446581C234422
:10166000802238280D4683F8282004F1280674D8F3
:10167000C0F138020021304406F00EFE2368616894
:101680005A0F42EAC102110EDB0084F86010110CFF
:1016900084F8611084F86320110A1A0E84F864201B
:1016A0001A0C84F865201A0A84F8621084F86620FF
:1016B00084F8673031462046FFF7ECFE00284BD116
:1016C000E37A2B7063896B70A3681B0AAB70A36805
:1016D000EB70E37B2B71E3896B71E3681B0AAB71E1
:1016E000E368EB71E37C2B72638A6B7223691B0ADC
:1016F000AB722369EB72E37D2B73E38A6B736369CF
:101700001B0AAB736369EB73E37E2B74638B6B749F
:10171000A3691B0AAB74A369EB74E37F2B75E38B9E
:101720006B75E3691B0AAB75E369EB7594F82330BD
:101730002B76638C6B76236A1B0AAB76236AEB7677
:10174000A36E4BB994F827302B77E38C6B77636AE1
:101750001B0AAB77636AEB7770BDC0F140020021D2
:10176000304406F099FD31462046FFF793FE0028ED
:10177000F2D10146382230467EE7FFF76ABF10B546
:10178000072300220121C40744BF01FA03F42243C6
:1017900013F1FF334FEA5000F5D2104610BD0000A0
:1017A0002DE9F04F8FB0074606A816460C469A461C
:1017B000FFF7D3FB102200210AA806F06DFD002ED2
:1017C0006FD006A8FFF7D4FB0546002871D1394633
:1017D00006A8FFF7C4FB07F18F039C42C0F0B0805E
:1017E00006A8FFF7BEFB804606A8FFF7BCFB4044F7
:1017F000844200F2A5800134E41B4FEA5408A84556
:1018000007EB050104D906A8FFF7A9FB0544F6E795
:101810004C4B0A97641B002B0B950C910D9414BF35
:1018200001270227002506A80AACFFF79EFB54F803
:1018300035200DF12008814608234032414606A894
:10184000FFF7D0FB30B918F800304B4533D10130E9
:101850000828F8D10135022DE5D13B4C6CE018F198
:10186000010849F10009DDE90001894508BF80450B
:101870005FD212F8010F0392FFF781FF039A8BEA00
:10188000006B0921013911F0FF01E8D0BBF1000F15
:101890004FEA4B03B6BFDFF8BCB09B4683EA0B0BA5
:1018A000F0E72A4C06A8FFF759FB20460FB0BDE829
:1018B000F08F274CF6E7189BBDF8228013B1189BD8
:1018C000C3F80080C245C5D354F83520434631469D
:1018D00006A8FFF787FB04460028BBD11FFA88F251
:1018E0000023022FCDE900234FF000084FF000093C
:1018F0004FF0FF3B06F1FF32B5D012490491DDE90C
:101900000001894508BF804513D212F8010F0392E8
:101910000592FFF734FF80EA1B60C0B20499039A76
:1019200051F8200018F1010880EA0B2B49F1000959
:10193000E4E7099A5A458DD106A8FFF737FBB1E7CE
:10194000024CF9E70C8800000701FF800101FF80CD
:101950000F01FF80B71DC1042DE9F3470546684616
:101960000E46FFF7FAFA4D49084606F059FD68B9E8
:101970004FF47E232B604FF400532A681A443260E0
:101980002A68FAB9B3B94FF001081FE04449434847
:1019900006F046FD10B900232B60EEE741493F48B1
:1019A00006F03EFD0028F6D03F493C4806F038FDE1
:1019B0000028F0D03D4C6846FFF7D0FA204602B030
:1019C000BDE8F087002BF5D04FF000086846FFF720
:1019D000CFFA044600285ED1354A3648364B1044CB
:1019E000A0EB030A51466846FFF7B9FA81466846FC
:1019F000FFF7B7FA07466846FFF7B5FA0744B8F1AC
:101A0000000F2ED1D5F8008068464146FFF7A7FAAF
:101A10002346024681462146404606F023FDD6F87D
:101A200000A000FB09F90AF1FF316846FFF797FAB9
:101A3000002180461AF1FF304246234641F1FF3132
:101A400006F010FD2B684B4500FB088804D1336875
:101A5000434501D19F421AD26846FFF7A7FA174CB7
:101A6000A9E7791E6846FFF77AFA0021A7EB40083C
:101A70001AF1FF304A4641F1FF31234606F0F2FCED
:101A800000FB0999C845E7D3C5F800803760684670
:101A9000FFF78CFA8FE70A4C8DE700BF208D00001E
:101AA0002B8D0000388D0000458D00000901FF805E
:101AB00098930000A8030020000200200601FF8088
:101AC0000F01FF8013B50F4C2378BFF35B8FD9074D
:101AD00015D4204600F06AFE88B10B4B0B4811224A
:101AE0008DE80C00142115221323FEF747FC204635
:101AF00000F073FE064A0749044800F048FE034818
:101B000002B010BD90040020005A62029804002028
:101B100000020020250F000008B510461A4606F006
:101B2000B0FB002008BD000038B504460D4690F912
:101B30000030AAB11F2B86BF03F01F030F494FF0DF
:101B4000A041012202FA03F3C1F808352046012121
:101B500002F070FF29462046BDE8384002F056BF2B
:101B60001F2B86BF03F01F0304494FF0A041012241
:101B700002FA03F3C1F80C35E8E700BF0003005098
:101B800070B50E460446154602F028FF013606D011
:101B90002A4620460021BDE87040FFF7C5BF70BD52
:101BA0000022FFF7EDBF000000487047508D000095
:101BB000024B1B680BB1024818477047080200200F
:101BC000508D00002DE9F74FD0F804A09AF83A3074
:101BD0000446002B46D103685B68984763681B6A1C
:101BE00098423FD0DAF82030DAF80840CAF82000EE
:101BF000A0EB0308DAF80C30314808EA0308844205
:101C000046464FF0000727D0DAE90A239AF83BB09E
:101C1000A8FB0089CDE900230025BBF1000F2BD0E4
:101C20005A464046494606F005FCDDE9002312EB22
:101C3000080243EB090390465A46994606460F466A
:101C400006F004FCB8EB000069EB0101A94208BFF3
:101C5000A0420AD2CAE90A01DAE90C23B6185F41A8
:101C6000CAE90C6703B0BDE8F08F013647F1000701
:101C7000001B61EB0501EDE722462B464046494635
:101C800006F0F0FB224606460F46404649462B46E4
:101C900006F0E8FBDDE9008918EB020849EB0309CF
:101CA000A94508BFA04502D2CAE90A89D4E701368E
:101CB00047F10007B8EB040869EB0509F4E700BF3A
:101CC00040420F00824206D98A420BD9884294BF13
:101CD000002001207047884206D98A428CBF00202C
:101CE0000120704701207047002070472DE9F04720
:101CF000466896F83A300746002B66D196F8393098
:101D0000002B62D1FFF75EFF7D68D7F800A06B68FB
:101D1000002B50D0D5E90C89D3E90001894508BFD3
:101D2000804504D3DAF81430BDE8F0471847D5E908
:101D30000623B0EB080861EB09094B4508BF424593
:101D40002C6906D3AB68224A934216D1444528BF7A
:101D500044462A6ADAF810301444EA6814402046EF
:101D600098473B685B68984722460146306AFFF710
:101D7000A9FF50B33B685B69D6E795F83B20AAB151
:101D80004046494606F062FBDFF84880104A18EBEF
:101D900000084FF0000949EB01090023404649467D
:101DA00006F060FB844228BF0446D2E7A3FB08018B
:101DB00003FB0911E8E73369306AF2681844104000
:101DC000DAF81030BDE8F0471847BDE8F08700BFEB
:101DD00040420F003F420F002DE9F04F436893F857
:101DE000382085B00546002A64D193F83A30002B9C
:101DF00060D103681B6898472B68DB6998472F4BB5
:101E000006680122002E08BF1E461F2302FA03F1B6
:101E1000B1425FFA83FB02D0013BF7D19B46476892
:101E2000264C3B1F1D2B28BF20273B1F4FF0070AC6
:101E300016F1FF300AFA03FA4FF0000343F1FF31C5
:101E40003246C4FB0A0106F00DFB6C682A680023C9
:101E50002360636052680393CDE9000190472062DC
:101E60006C684FF000084FF000093A46C4E90A894F
:101E7000A66084F83BB00120002106F0E7FADDE916
:101E80000023C4E90623039B84F8393084F83A30F0
:101E900001380123E060C4F810A02846C4E90C8989
:101EA00084F83830FFF78EFE284605B0BDE8F04FC5
:101EB000FFF71CBF05B0BDE8F08F00BF40420F0028
:101EC00038B505460C46FFF787FF00F0CDFA6B6882
:101ED0001C60BDE8384000F0D1BA70B5044600F08F
:101EE000C3FA2368DB689847636893F83A201AB10D
:101EF000BDE8704000F0C2BA012283F8392063685F
:101F00005B68A3B12046FFF75DFE65686E68D5E9A2
:101F10000C01D6E90023994208BF904207D3F36829
:101F20006B602B68002BEAD0B0689847E7E76368DE
:101F3000002283F839202046FFF7D8FED8E72DE9A4
:101F4000F84305460C4616461F46DDF8208000F093
:101F50008BFA2846FFF736FE6A68C4F80880C4E9A1
:101F600000675368002133B9E36069B954602846BB
:101F7000FFF7BCFE0FE0D3E900894F4508BF464597
:101F8000F2D31946DB68EEE7D2E90C23BB4208BF67
:101F9000B242CC60EBD2BDE8F84300F06FBA38B57E
:101FA00005460C4600F060FA6A685368A34209D1FE
:101FB000DB6853602846FFF799FEBDE8384000F023
:101FC0005DBA1346002BF8D0DA689442F9D1E26882
:101FD000DA60F2E738B50446FFF7FEFE00F044FA97
:101FE0002046FFF7EFFD6368D3E90C4500F046FAA1
:101FF0002046294638BD08B5FFF7ECFF08BD0000B4
:10200000024B00221A7003F07FBC00BF8412002034
:1020100008B503F0E5FB024B01221A7008BD00BFB2
:1020200084120020004870477C8D0000024B1B6822
:102030000BB10248184770470C0200207C8D00004D
:10204000024B1B6803B11847704700BF50060020C1
:1020500010B5044600F008FA204610BD10B504463D
:1020600000F00CFA204610BD10B50446FFF77CF9CD
:102070000B4B2360A069FFF7ADFF00220023C4E9EA
:102080000A23002384F83030C4E9080184F8313091
:1020900084F8323084F8343084F83530204610BD6E
:1020A000B08D00004FF0FF30704710B50446FFF7C9
:1020B0007BF994F83520002384F8313084F83230ED
:1020C0002AB184F83530BDE8104000F001BB10BDE6
:1020D000283000F05AB9D0E90A23013243F1000355
:1020E000C0E90A23D0E9082312F57A7243F100030C
:1020F000C0E908237047D0E9082312F57A7243F14A
:102100000003FFF747B910B504468069FFF762FF87
:10211000D4E90823801A61EB0301002908BFB0F558
:102120007A7F14D3002908BFB0F5FA6F11D30129C3
:1021300008BF002805D24FF47A73B0FBF3F00021FA
:1021400010BD4FF47A72002306F08CF910BD002008
:10215000F5E70120F3E7D0B50446FFF7D4FF0023ED
:1021600084F830304FF47A73A0FB036703FB0177E8
:10217000D4E9082392197B41C4E90823D4E90A234E
:1021800080185941C4E90A01D0BD2DE9F047044641
:102190009046994690F831505DBBFFF7DCFF49450A
:1021A00008BF404504D3012384F83230BDE8F087EE
:1021B0004FF47A73A8FB036794F8352084F8325003
:1021C00003FB0977012384F8313042B9A269126810
:1021D00092F820201AB984F8353000F061FA002313
:1021E00084F8333032463B462046BDE8F047FFF7DF
:1021F000D1B8BDE8F0870000024B4FF080625A6012
:10220000704700BF00ED00E010B5012380F83430C6
:1022100090F8303004460BB1FFF7EEFF2046FFF791
:102220006AFF10BD08B50121303000F0A5F808B1F3
:10223000FFF7E2FF08BD90F8313010B504464BB10E
:10224000002380F8313090F833309BB9012380F8B7
:10225000323010BD90F8343063B190F83030013333
:1022600080F83030FFF7C8FF2046FFF734FF2046E4
:10227000FFF741FF10BD0000024B4FF000725A60A3
:10228000704700BF00ED00E010B50446FFF78CF882
:10229000002384F83430FFF7EFFF10BD10B5064B74
:1022A00003600446FFF7F0FF2046FFF7FEFE2046DE
:1022B000FFF780F8204610BDB08D000010B5044631
:1022C000FFF7ECFF2046382100F0A0FA204610BDB1
:1022D00006F038B805F0E8BFF0B572B6224A234FD1
:1022E000002313604FF0E0224FF0FF36516801F0F9
:1022F0000F0101311D469A0002F1604202F5614270
:102300004FEAC30EC2F88060C2F88061002202EB7F
:102310000E043C440132082A84F80053F7D10133FB
:102320009942E8DC124B4FF020625A6040F2FA52B8
:102330009860DA6000221D6111469C1801320C2A57
:102340002176FAD14FF0FF3259629A62094ADA6275
:102350001F221A6341680368002282F314889D4695
:1023600082F310880847F0BD10E000E000E100E0D3
:1023700000ED00E0020000C0D0E84F3F5B1AC0E86B
:10238000423F002AF8D1D8B2704738B5044600F071
:102390006BF8D4E9004500F071F82046294638BDB5
:1023A00083B500F061F8052101A8FFF7F9FB254D81
:1023B000254F04269DF904301F2B8ABF2A464FF073
:1023C000A04203F01F03012404FA03F3C2F8083506
:1023D000384600F01FFA9DF904301F2B86BF03F02A
:1023E0001F032A464FF0A0429C40C2F80C453846D5
:1023F00000F010FA013EDDD1144F04269DF904309F
:102400001F2B8ABF2A464FF0A04203F01F0301246E
:1024100004FA03F3C2F80835384600F0FBF99DF9D9
:1024200004301F2B86BF03F01F032A464FF0A04243
:102430009C40C2F80C45384600F0ECF9013EDDD175
:10244000B6E700BF00030050F0490200801A060002
:10245000EFF31080C04300F001007047EFF30580F8
:10246000003018BF0120704708B502F013F9024A86
:1024700013680133136008BD54060020044A136832
:1024800023B1013B13600BB902F00CB9704700BFD8
:102490005406002008B50E4B0121D3E84F2FC3E8A6
:1024A000401FD2B20028F8D12AB1FFF7DDFFBFF3F9
:1024B0004F8F20BFFDE7FFF7D1FF08B1FFF770FF97
:1024C000FFF7C6FF0028F9D0012000F062F900BF35
:1024D00098060020F0B51B4D8FB001AC35EA200501
:1024E00028BF05460E46174600213422204605F037
:1024F000D3FE154B01955B690493DA6B05925A6B19
:102500001B6B06920793029703960894FFF7ACFFA4
:102510000E4A13680133012B136004D13422214683
:102520000B4805F0AEFE342221460A4805F0A9FE0C
:10253000094B1B680BB107489847FFF79FFF002026
:102540000FB0F0BD0101FF801802002058060020E6
:10255000640600209C0600205C06002000207047D6
:10256000014B1878C0B270476006002008B51146CC
:10257000064B0124D3E84F2FC3E8454FD2B212B91E
:102580007246FFF7A7FFFFF785FF00BF6006002038
:1025900038B5064C23683BB9FFF706FB044D0146EE
:1025A0002846FFF761FD2560206838BD0807002038
:1025B000D006002008B5836823B9054B1B6893F843
:1025C000320008BDC06898470028F6D008BD00BF9B
:1025D0000807002037B5184D04462046FFF7EAFFEC
:1025E00020BBD4E90023591C08BFB2F1FF3F02D041
:1025F0002868FFF7CAFD01A8FFF72AFD2046FFF76C
:10260000D9FF80B9D4E90023013308BFB2F1FF3FFD
:102610000ED02B6893F8313053B901A8FFF71EFD97
:10262000BFF36F8FD9E701A8FFF718FD03B030BDE6
:1026300000F06AF8F1E700BF080700201FB5094C59
:102640000292CDE900010393FFF7A2FF6846FFF76E
:10265000C1FF2068FFF729FD2068FFF77CFD04B06B
:1026600010BD00BF080700202DE9F0410F4690463D
:102670000646FFF78DFFFFF72BFD084B1B6893F80D
:102680003030C41A61F10005A01943463A4645F1BD
:102690000001FFF7D3FF001BBDE8F0810807002011
:1026A00007B5094AD2E85F3F0133C2E8513F00292C
:1026B000F8D19BB22BB91288044800931946FFF752
:1026C00055FF03B05DF804FB0C07002023010480D4
:1026D00007B50B4AD2E85F1F0139C2E8531F002B30
:1026E000F8D14FF6FF7089B2814205D112880548B2
:1026F00000931946FFF73AFF03B05DF804FB00BFF3
:102700000C0700202401048008B5FFF7ADFE064B3E
:102710001B889BB22BB902F075FEBDE80840FFF79D
:10272000ADBE02F04BFEF8E70C070020034B186823
:1027300018B14FF0FF3101F055B97047D8120020A1
:10274000024B186808B101F065B97047D812002033
:1027500008B5012000F01DF8074A0849136818441D
:10276000884289BF064B10600C224FF0FF308CBFAF
:102770001A601846704700BF1002002000F80320BE
:10278000E062002008B508B1FFF70AFEFEE701206D
:10279000704708B5FFF7F6FF0120704708B500F055
:1027A000F9F808BD08B500F0FDF808BD10B50446FD
:1027B000037803F00303012B08D0FFF7B7FF23785A
:1027C00003F00302012A03D1FFF7BAFF002010BD76
:1027D00043F002032370012010BD037823F00303AC
:1027E00043F001030370FFF7ABBF000013B50446CD
:1027F00005F028FD034628B900900146224602480C
:10280000FFF7B4FE02B010BD1F01018005F022BD2C
:1028100005F020BD70B50446FFF704FC0646FFF73F
:10282000EAFB05463046FFF7E6FB401BA042F9D322
:1028300070BD000030B50C4685B000210546016230
:102840001022684605F028FD084B002C08BF1C46E6
:102850002B1D02931C23039368460B2300940193C2
:1028600001F0A8F8286005B030BD00BFBC8D0000A5
:1028700010B500210446FFF7DDFF204610BD000023
:1028800037B504464FF0FF31006801F0ABF805465C
:1028900028B9236A01332362002003B030BDFFF75B
:1028A0005FFE03460028F7D1009001462A46014802
:1028B000FFF75CFE1501028037B50546006801F0A0
:1028C000A9F8044628B92B6A013B2B62204603B0C5
:1028D00030BDFFF745FE03460028F7D100900146C2
:1028E00022460148FFF742FE1701028008B5094B56
:1028F000094A1A60094B9B1A094A1360094B0A4A94
:102900001A600A4B9B1A0A4A136000F051F800F053
:1029100065F800BF7C07002000F8032000000420B9
:102920007807002014070020E862002000F8032048
:10293000100700200E4838B50E4B03600B251C24F1
:102940000D4B4560C460836001F034F80B4B186098
:102950000B480C4BC46080E828000B4B836001F0EF
:1029600029F80A4B1860BDE8384005F047BC00BFA5
:1029700048070020D68D00005C0700205807002083
:1029800018070020E38D00002C07002028070020F6
:1029900005F0AEBA024B4FF0FF31186801F022B8D3
:1029A00058070020014B186801F034B85807002080
:1029B00008B502F027F9BDE8084000F00CB87047F0
:1029C00008B5FFF7B7FFFFF7FAFFFFF7C7FDBDE850
:1029D0000840FFF7DDBF00F0F3BA000007B5174865
:1029E000174B03600B2343601C23164CC360164B2C
:1029F0008360164B23614FF4805363614423E3608B
:102A0000134BA3601823A361124B236000F0D2FF85
:102A1000114B224618600021104801F0DFFB0346ED
:102A200028B90090224619460D48FFF79FFD00F097
:102A3000DFFA002300931A46F5E700BFA412002036
:102A4000ED8D0000B412002088120020E01200205A
:102A500080070020FD8D0000D8120020C129000051
:102A60001D01018008B500F0A1F8000007B5411E66
:102A700002460023042923D8DFE801F0030A1016D8
:102A80001C0000931148002301221946FFF76EFD38
:102A900000930023022219460D48F7E70093002314
:102AA000032219460B48F1E700930023042219463C
:102AB0000948EBE700930023052219460748E5E79C
:102AC0000093002319460648E0E700BF2501028075
:102AD0002601028027010280280102802A0102804B
:102AE0000001028010B501F091FB034B1B6813B18C
:102AF000BDE81040184710BDC4070020024B987A6B
:102B0000003018BF012070471802002008B500F0FF
:102B100085FA00220349FFF7A7FDBDE8084000F051
:102B200091BA00BFFD2A000038B50D46FFF7BAFA8A
:102B3000041E17DB04F1604303F56143E02283F8D0
:102B400000232946204601F001FC002C08DB620925
:102B5000012304F01F0403FA04F4064B43F8224057
:102B6000002038BD044B04F00F021344E0221A7613
:102B7000E7E700BF00E100E0FCEC00E008B5FFF78C
:102B800007FDBDE80840FFF73FBB0000014B186898
:102B9000FFF77ABB08070020014B1868FFF742BB1C
:102BA0000807002008B5FFF77DFA08BD08B5024CFC
:102BB00023689847FCE700BF140200201EF0040FB2
:102BC0000CBFEFF30880EFF30980816911F8021C54
:102BD00091BB01B590E80F10E047BDE800508CE8CC
:102BE0000300244B93E80600914208BF704741B9A7
:102BF0001EF0100F10D12049086820F00100086075
:102C00000AE02CE9F00F1EF0100F08BF2CED108A1F
:102C1000C1F838C081F822E01A6092F82210906B57
:102C200061F0FF0E1EF0100F08BFB0EC108AB0E884
:102C3000F00F80F309887047104A13689942FAD858
:102C400001B552F821C00FC8E047BDE80050CCF8EC
:102C50000000704701B500F03DFFBDE80140EFF313
:102C6000098CBEE701B500F0FBFEBDE80140EFF3C3
:102C7000098CB6E72C02002034EF00E0B08E000093
:102C800008B5014610B1132001F016FA002008BD66
:102C900008B5EFF3058333B16FF0050000F014F8C9
:102CA0006FF0050008BDEFF31083002BF4D1EFF3B4
:102CB0001183002BF0D1DFF808C000DF08BD00BF92
:102CC000812C000070477047704770477047EFF3E2
:102CD00010832BB9EFF31180003018BF012070472B
:102CE0000120704770B54D4C217A012900F0878092
:102CF00031B14FF0FF30FFF7E5FF4FF0FF3070BD0F
:102D0000474D9C2204F1080005F0C6FAEB68EE6A14
:102D1000E3652B8AA4F85430296BAB6823643046F2
:102D200000F0A6F908B1C4F880606E69A969304660
:102D300000F09EF9002864D06667EE69296A304683
:102D400000F096F9002860D0A6676E6AA96A30463E
:102D500000F08EF900285CD0E6676E6B3EB1F36838
:102D6000B2683168304600F0EFF9C4F88460AE6BA9
:102D70003EB1F368B2683168304600F0E5F9C4F856
:102D80008860EE6B3EB1F368B2683168304600F09F
:102D9000DBF9C4F88C602E6C3EB1F368B268316820
:102DA000304600F0D1F9C4F890606E6C3EB1F36823
:102DB000B2683168304600F0C7F9C4F89460AE6C70
:102DC0003EB1F368B2683168304600F0BDF9C4F82E
:102DD0009860EE6C3EB1F368B2683168304600F03E
:102DE000B3F9C4F89C602D6D3DB1EB68AA68296801
:102DF000284600F0A9F9C4F8A0500123237200204E
:102E000070BDD4F88030636797E7D4F88030A3674B
:102E10009BE7D4F88030E3679FE700BF18020020EB
:102E2000488E000038B5264C237A012B06D06FF06F
:102E30000600FFF747FF4FF0FF3038BD01F0AEF955
:102E400010B94FF0FF30F4E71E4A1F4D1F49686864
:102E5000FF2382F8223092F82230D26863F0FF0319
:102E6000DB4314BFB3FA83F32023C3F12003C2F37F
:102E70000222934298BF531CFE2202FA03F3114A26
:102E8000DBB2D377FFF750FE0028DAD1FFF78AFED6
:102E90002061FFF773FE0E4800F05EFF00F0C2FFF6
:102EA0002B6813F0010F4FF0020304D083F3148852
:102EB0002372002038BD032282F31488F8E700BF94
:102EC0001802002000ED00E0488E0000652C000094
:102ED0003402002010B5134C237A022B05D06FF07A
:102EE0000700FFF7EFFE002010BDFFF74FFE0123A4
:102EF0006372BFF34F8F0C4A5168C90042BF4FF055
:102F000000615160A372E36A4BB1D869636C1BB175
:102F10001B69984228BF18460423237210BD4FF046
:102F2000FF30F3E71802002000ED00E0F8B5214C77
:102F3000237A042B05463BD1E3680344E360E36A4C
:102F400053B106460127DA69B24225D8DF61B61AC5
:102F500000F030FFE36A13BB636C4BB101261869C4
:102F6000A8421FD81E61236D2D1A9847636CE3B9E0
:102F700002230020237200F05FFF00236372BFF37F
:102F80004F8FA27A22B1A3720B4B4FF080525A603E
:102F9000BDE8F840FFF7F2BD961BDE61DCE7002ECE
:102FA000D1D1D9E7401B1861E2E7002DD7D1DFE787
:102FB000F8BD00BF1802002000ED00E070470000DF
:102FC00008B5FFF7FBFFEFF3058333B16FF00500A2
:102FD000FFF778FE6FF0050008BDFFF778FE0028C8
:102FE000F4D1DFF808C000DF08BD00BFE52C000009
:102FF00008B5EFF3058333B16FF00500FFF762FE0C
:103000006FF0050008BDFFF762FE0028F4D1DFF87D
:1030100008C000DF08BD00BF252E000008B5EFF393
:1030200005832BB16FF00500FFF74CFE002008BDB3
:10303000FFF74DFE0028F5D1DFF804C000DF08BD22
:10304000D52E000008B50246EFF305832BB16FF0D3
:103050000500BDE80840FFF735BEFFF738FE002841
:10306000F5D11046DFF804C000DF08BD2D2F0000A9
:1030700010B5A8B140EA010313F007030DD11729D9
:103080000DD9016008390C181022846042600B5081
:1030900081684A60C360012010BD002010BD184641
:1030A00010BD70B5B0B100292ED032F003032BD182
:1030B0000F3121F0070100F108052E686C68731BC1
:1030C00024F003041B1B994205D933683546002BB5
:1030D000F3D1184670BD446803680C44446018443A
:1030E000083843689C4288BF44606B6811431BB931
:1030F000696005F1080070BD23F00303E818EE5085
:1031000041602860083070BD002070BD10B5D0B19E
:10311000C1B1A1F1080400F108030022A34209D1C2
:10312000596821F003044168091B41603AB95A60AB
:10313000012010BD19681A4621B10B46EEE71B6845
:103140001360F5E7084610BD30B5C0B189B1C2B112
:10315000CBB10024446002FB01F41D1901608260C0
:10316000C360436105611846013904D1A21A995020
:103170000121084630BD851805602846F4E7014660
:10318000F7E71146F5E71946F3E710B50346B0B186
:1031900000F1140252E8000F10B9BFF32F8F04E0C2
:1031A000016842E8001404B1F4E740B1043353E885
:1031B000002F511C43E8001404B1F8E710BD10BD06
:1031C00030B5F0B1C3688B421BD80369994218D25D
:1031D00000F114031A680A60BFF35F8F53E8002FF1
:1031E0000C689442F6D143E8001505B1F2E70430CB
:1031F00050E8003F5A1E40E8002101B1F8E70020E6
:1032000030BD6FF0030030BDEFF310832BB9EFF347
:103210001180003018BF0120704701207047036BF8
:1032200030B5E3B1CD780024DA78AA420FD31A463C
:103230004A608C608AB19160A4B16160283050E826
:10324000003F5A1C40E8002101B1F8E730BD5A6840
:103250001C46002AECD01346E6E7C162ECE74B605F
:103260008B60C1620163E9E74B688A6823B19A60A9
:103270008A681AB153607047C262F9E70363704706
:10328000F8B58678044696B3C568014600262846F8
:1032900005F10C07FFF7E8FF267021463846FFF7D7
:1032A0008FFFAB68002B48D03846FFF76EFF04460F
:1032B000002842D0284600F04FFD324607463146EE
:1032C00000F0E6FD384600F08FFD6A6A8168074627
:1032D00004F10C0004F0D5FFF9232370A670FB68FD
:1032E000E37021462846BDE8F840FFF798BF85689F
:1032F000AB68002BF5D05B78832BF2D1284600F029
:103300002BFD32463146074600F0C2FD384600F03C
:103310006BFD06466A6A806804F10C0104F0B1FF97
:10332000F3680BB1E2781A7000232370214605F18F
:103330000C00BDE8F840FFF743BFF8BD2DE9F74F9B
:103340008946074600B131B96FF003010020FFF74D
:10335000BDFC00207BE0CD1C25F003050C3514BF1F
:10336000B5FA85F12021B0FA80F30B441F2BEBDD79
:1033700005FB00FAF2B19468D2F80080166953692F
:103380003CB1A10702D1D268332A05D86FF00801F9
:10339000DCE7D268002AF9D13EB116F0030B01D167
:1033A0009A4557D96FF00901D0E7002BFAD11CB12B
:1033B0009B460CE090461646284BD3F8A000E0B19F
:1033C000FFF7E3FE0446A8B14FF0010B3EBB234BD1
:1033D0000193D86F00225146FFF763FE019B06461A
:1033E000B8B9BBF1000F05D0D3F8A000214658B101
:1033F000FFF7E6FE6FF00401A8E701223421D3F8BD
:103400008000FFF74EFEDDE7D3F88000FFF77EFE79
:10341000F0E75246002104F03FFF4BF0020BFA2385
:1034200023700023A360A362E36223632A4633462A
:1034300084F802B0C4F80480C4F82490394604F13A
:103440000C00FFF781FE054B054A1A67204603B0C2
:10345000BDE8F08F002CE2D1AEE700BF18020020DB
:10346000813200002DE9F0410C461746984605468A
:1034700018B10378FA2B00D141B928466FF0030147
:10348000FFF724FC6FF00300BDE8F0818368C3B14F
:103490005B78832B15D100F05FFC012206460021EA
:1034A00000F0F6FC304600F09FFC06466A6A806831
:1034B000214604F0E6FEF06858B307700020BDE82E
:1034C000F08105F10C00FFF760FE064670B1214661
:1034D0006A6A0C3004F0D5FE0024F9233370B4700E
:1034E000F77031462846FFF79AFEE7E7B8F1000F7C
:1034F00011D04146932000F0DFFD40B1084B284633
:10350000596900F017FCEFF309839C60DF606FF0EE
:103510000100BDE8F0816FF00200BDE8F08100BF5E
:103520001802002010B500F1280353E8002F12B94B
:10353000BFF32F8F04E0511E43E8001404B1F4E7F9
:103540000AB9002010BDC06A01230028F9D0821CEE
:10355000D2E84F1FC2E8443F04B1F9E711F0FF0F72
:1035600001D08068F1E710BD2DE9F0410F46144607
:103570009846054618B10378FA2B00D141B9284680
:103580006FF00301FFF7A2FB6FF00300BDE8F081CD
:10359000FFF7C8FF064600283BD001462846FFF744
:1035A00063FE6A6A06F10C01384604F06AFE0CB14B
:1035B000F3782370002405F10C0734703146384647
:1035C000FFF7FEFDAB6813B90020BDE8F081384677
:1035D000FFF7DBFD06460028F6D0284600F0BCFBCE
:1035E00021460746012200F053FC384600F0FCFB60
:1035F0006A6A8168074606F10C0004F042FEF9236E
:103600003370B470FB68F37031462846FFF707FE4D
:10361000DAE7B8F1000F11D04146832000F04CFDED
:1036200040B1084B2846596900F084FBEFF3098349
:103630009F60DC606FF00100BDE8F0816FF0020078
:10364000BDE8F0811802002010B50446EFF30583B1
:1036500033B16FF005010020FFF738FB002010BDEB
:10366000FFF7D2FD0028F4D12046DFF808C000DFC4
:1036700010BD00BF3D3300002DE9F04106460F4666
:1036800090461C46EFF305834BB19EB930466FF070
:103690000301FFF71BFB6FF00300BDE8F081FFF7AC
:1036A000B3FD0028F1D130462346DFF850C000DFDB
:1036B000BDE8F0813378FA2BE8D1002FE6D0002C5A
:1036C000E4D106F10C00FFF760FD054688B1726A8F
:1036D00039460C3004F0D5FDF92328462B70AC7028
:1036E00085F803806F60AE6000F03CFA2046BDE8CC
:1036F000F0816FF00200BDE8F08100BF653400008A
:10370000F8B504460F4616461D46EFF3058343B150
:103710008CB920466FF00301FFF7D8FA6FF0030071
:10372000F8BDFFF771FD0028F2D120462B46DFF8E7
:1037300044C000DFF8BD2378FA2BEAD1002FE8D08F
:10374000002DE6D12046FFF7EDFE054670B100F1F1
:103750000C01626A384604F094FD0EB1EB783370C8
:103760002846EC6000F0FEF90020F8BD6FF0020082
:10377000F8BD00BF69350000EFF310832BB9EFF3FC
:103780001180003018BF01207047012070470000F1
:1037900070B5002835D0846890E8600064B114F0FA
:1037A000030302D1C2681B2A19D86FF00801002058
:1037B000FFF78BFA002070BDC368002BF5D1124BC8
:1037C000D3F8940030B901221C21D3F88000FFF710
:1037D00068FC01E0FFF7D9FC044668B10123F5223B
:1037E000A37000232270E6706560A360E36023612C
:1037F00063612376204670BD6FF00401FFF765FA20
:10380000F8E705460646DAE718020020284B70B5AF
:103810005D6904460E4635B96FF00701FFF755FAAA
:103820004FF0FF3070BD10B10378F52B07D0204664
:103830006FF00301FFF749FA6FF0030070BD037EDC
:1038400053B9EA6AC5604261036102B11061EC627A
:1038500001232376002070BDC278D1070DD5C16841
:10386000A9420AD1FF2B06D16FF00F01FFF72DFA05
:103870006FF0020070BD0133EBE7002EF8D0930724
:103880000AD5E06895F9203090F920209A4203DAB1
:1038900080F8203000F073FA3146532000F00CFC21
:1038A00018B12946204600F045FA6FF0010070BDBE
:1038B0001802002038B52E4B5A69044632B96FF011
:1038C0000701FFF702FA4FF0FF3038BD10B103785F
:1038D000F52B07D020466FF00301FFF7F6F96FF0E4
:1038E000030038BD037E33B96FF00E01FFF7EDF929
:1038F0006FF0020038BDC168914202D06FF00D0137
:10390000F4E7013BDBB2037623BB43690BB10169EA
:103910001961216901B34B61E3789B0705D592F9E1
:103920002110D36AD3B982F82010A3687BB1204656
:1039300000F012FA00220546114600F0A9FAEB6ADF
:103940006361002323610123E560EC62237600209C
:1039500000F072FA002038BDD362DDE7986820B12C
:1039600090F920008142B8BF01465B69DAE700BFE9
:10397000180200202DE9F0410446002601270CB969
:10398000BDE8F081E378D4F814801B0710D5A36854
:1039900026766BB1204600F0DFF90022054611467D
:1039A00000F076FAEB6AE56063612661EC622776E7
:1039B0004446E4E708B50246EFF3058333B16FF000
:1039C00005010020FFF781F9002008BDFFF7D4FEB4
:1039D0000028F4D11046DFF808C000DF08BD00BFA2
:1039E0009137000008B50246EFF305833BB110465E
:1039F0006FF00501FFF769F96FF0050008BDFFF7EB
:103A0000BBFE0028F3D11046DFF804C000DF08BD7C
:103A10000D38000008B50246EFF305833BB11046B0
:103A20006FF00501FFF751F96FF0050008BDFFF7D2
:103A3000A3FE0028F3D11046DFF804C000DF08BD64
:103A4000B538000010B5D0E85F3F5A1C914200D84D
:103A50000022C0E8542F04B1F5E798B210BD000071
:103A600038B51B4CFFF798F8E3680133E360236D2A
:103A700003B1984700F09EF9002000F0DDF9236CB7
:103A80002BB1A26BA1698A4202D0A163E36338BD66
:103A9000E36B0BB1013BE363E36B002BF7D1237ABC
:103AA000022BF4D1656A002DF1D095F9201092F91E
:103AB00020309942EBD1284600F057F9A06B00F076
:103AC00071F9284600F0AEF9A563236CDEE700BF6C
:103AD0001802002070B5224C04F1560504F15A0674
:103AE000B4F85410D5E85F3F13B9BFF32F8F04E04B
:103AF0005A1EC5E8502F00B1F4E79BB25BB33046C5
:103B0000FFF7A0FFE36D53F8200020B30378F13BEB
:103B1000082BE5D801A252F823F000BF413B00007A
:103B2000E13A0000473B0000E13A0000E13A0000C2
:103B30004B3B00004F3B0000E13A0000533B0000CC
:103B4000236E9847CCE7636EFBE7A36EF9E7E36E5D
:103B5000F7E7236FF5E70020BDE8704000F06CB98F
:103B60001802002070B5164C0546B4F8541004F144
:103B70005602D2E85F3F994202D8BFF32F8F04E08C
:103B8000581CC2E8560F06B1F3E79BB2994210D910
:103B900004F15800FFF756FFE36D43F82050637AB5
:103BA00023B9084B4FF080525A6070BD0123A372B5
:103BB00070BD29460220BDE87040FEF757BF00BF28
:103BC0001802002000ED00E0EFF310832BB9EFF3B3
:103BD0001180003018BF012070470120704700009D
:103BE00010B50123094A437090F92010536A1C3222
:103BF0001BB193F920408C4205DCC2608360906069
:103C000003B1D86010BD1A469B68F1E71802002086
:103C1000014B5869704700BF1802002008B5FEF735
:103C200061FFDFF810C000DF4FF0FF310020FFF729
:103C30004AF8FEE73941000012F0020F10B502F019
:103C4000010222D100F1280382B153E8000F00EAFB
:103C500001028A4203D0BFF32F8F002005E020EA43
:103C6000010243E8002404B1EFE710BD53E8000F60
:103C7000084203D1BFF32F8F002005E020EA0102A4
:103C800043E8002404B1F1E710BD806A01EA0003B3
:103C90001AB1994218BF002010BD002B08BF0020A8
:103CA00010BD000010B5C4694169631C03690AD1E5
:103CB00003B1596142691AB113610023436110BD18
:103CC000064A136310BD1BB1DA6959612244DA61F7
:103CD0004269002AF0D1014AD36210BD18020020C7
:103CE00010B500234370037083789A07044608D503
:103CF00013F0100F016B0E4B0FD0D3F88400FFF7B9
:103D00005FFAA378DB0712D5094BD3F88800214668
:103D100038B1BDE81040FFF753BA586FFFF7F6F916
:103D2000EFE7D3F88000BDE81040FFF7EFB910BD12
:103D30001802002010B591F9202083681BB193F977
:103D40002040944205DAC8608B60816003B1D9607D
:103D500010BD18469B68F1E783689A68826002B1DB
:103D6000D0600022DA6018467047C36833B18268B9
:103D70009A60826802B1D3600023C360704710B5B7
:103D80000146044664B12378F12B07D00846FFF7BB
:103D9000ECFF2046BDE81040FFF7CCBFE468F1E738
:103DA00010BD00000123014643700148FFF7C2BF68
:103DB0003402002038B50B4DEC6A94B1E369013B45
:103DC000E36173B92046FFF7D0FF2046FFF7EAFF13
:103DD000246924B1E369002BF4D000236361EC6211
:103DE00038BD38BD1802002090F82230826B13F0E5
:103DF000100F0CBF6020202010447047074B5969FA
:103E000051B10B6B8A6B934203D21A68044B9A42EE
:103E100002D00120FEF72ABE704700BF1802002022
:103E2000A52E5AE208B502234370024B9861FFF7B2
:103E3000E5FF08BD1802002010B5144B04461A7A9D
:103E40005969A0B9022A1FD15C6AECB194F920200B
:103E500091F920309A4217DD2046FFF786FF084689
:103E6000FFF7BEFE2046BDE81040FFF7DBBF022A89
:103E700005D190F9202091F920309A42EFDC2046BC
:103E8000BDE81040FFF78EBF10BD00BF1802002034
:103E900038B504461546FFF7A7FF01602046FFF737
:103EA00001FF20461DB1BDE83840FFF7C5BFBDE8A2
:103EB0003840FFF777BF10B54378332B04460CD159
:103EC000416A90F82320FFF7B7FE014628B120464B
:103ED0000022BDE81040FFF7DBBF10BD2DE9F04F19
:103EE00085B08246029128B96FF00301FEF7EBFE20
:103EF0000020B8E0002A48D094681669556997698F
:103F000044B1A30702D1D368432B06D86FF0080150
:103F10000020EBE7D368002BF8D13EB1700702D147
:103F2000002D40F0B9806FF00A01F1E72FB17B1E40
:103F3000372B03D96FF00B01EAE718271DB169078A
:103F4000F1D1472DEFD95368D2F8009001934CBBC3
:103F5000544BD3F88800F0B1FFF717F90446002856
:103F600000F097804FF00108002E36D1DFF834B111
:103F7000DDB94D4ADBF88400556DB0B1FFF705F9A6
:103F8000D8B148F01008064623E091461827154698
:103F900016460192DCE701224421D3F88000FFF7A6
:103FA00080F8DBE74FF00008DEE732462946DBF811
:103FB0007400FFF776F80028E5D1B8F1000F5CD067
:103FC000DBF88820002A51D021461046FFF7F8F888
:103FD000002448F00208002C5BD0F1232370012359
:103FE00063709DF80430E3700023A360E3602361F5
:103FF0006361A361E36184F823306362A362E362D7
:10400000A5F1400333447FB2A363FD22274B84F81C
:104010000280C4F8049084F8207084F8217084F839
:10402000222026636563C4F83CA033601E4B1B68E6
:104030005B0724D4A36B00201A1F03F1300142F860
:10404000040F9142FBD11A4A5A634FF08072DA632F
:10405000029A1A62C3F838A0124B164A1A66204612
:10406000FFF7EAFE204605B0BDE8F08F2146DBF8F9
:1040700080000392FFF74AF8AAE74446A9E7AD0893
:10408000113D4FF0CC33002DD4D046F8043F013D14
:10409000F9E76FF004013BE7002F7FF448AF1827E2
:1040A0004DE700BF18020020488E0000A52E5AE2FE
:1040B0001D3C0000B73E000038B51D4C237A022B92
:1040C00034D1636A002B31D063694A1C587015D112
:1040D000226B00216AB94FF0FF30D86159611A6133
:1040E00051B10B611348FFF737FEFFF79BFE01202C
:1040F00038BD11461269EDE72363F3E7E26A002059
:1041000012B1D569A9420BD2D96158611A6158B16F
:104110000361002AE6D0D0695361411AD161E1E719
:104120001046491B1269EBE7E362F2E7002038BD55
:10413000180200203402002038B5164D2B7A022BCD
:1041400027D16B6A2BB36C69E06AFFF713FCA06997
:1041500018B100221146FFF79BFEEFF309830E48CA
:10416000A363FFF7F9FDFFF75DFE00236B61E378C2
:10417000DB0701D5A36923B12046BDE83840FFF72E
:10418000AFBD04226270E3606B6BA36003B1DC60BF
:104190006C6338BD180200203402002038B50B4C87
:1041A0000B48A26D0B4D0021FFF798FE636EA862CD
:1041B0004BB1E26D08480021FFF790FEA864003083
:1041C00018BF012038BD012038BD00BF488E000057
:1041D000652A000018020020C142000010B5044604
:1041E000EFF3058333B16FF005010020FEF76BFD9F
:1041F000002010BDFFF7E8FC0028F4D12046DFF8CE
:1042000008C000DF10BD00BFDD3E000008B5EFF3C1
:10421000058313B1054B586908BDFFF7D5FC00288D
:10422000F8D1DFF80CC000DF08BD00BF1802002085
:10423000113C00000C4A536C30B5002413B11D69C9
:10424000A9420AD201618460C3601BB11D699860F4
:10425000691A19612CB1E06030BD1C46491BDB684E
:10426000ECE7506430BD00BF1802002070B5134D5C
:104270006C6C04B32369013B236101262369D3B924
:10428000E3680BB1A2689A606B6400231A4604F1DC
:104290001801E86CFFF7F0F918B121460320FEF78A
:1042A000E5FBE378012B07D161692046FFF7C2FFE8
:1042B0006C6C002CE2D170BD6670F9E7180200202A
:1042C0000B4B0C4C07B51A6E586E0821FFF7BCF962
:1042D000094AE06422654FF0FF3300226946E06C32
:1042E000FFF70EFA0028F6D10198009B9847F2E7F5
:1042F000488E0000180200206D420000FEF7C8BC86
:104300000749084A084B9B1A03DD043BC858D050A4
:10431000FBDC064880470648804706480047000007
:104320009893000000020020A80300207D430000B5
:10433000DD4B00006D010000FEE7FEE7FEE7FEE753
:10434000FEE7FEE7FEE7FEE7FEE7FEE71030024B82
:1043500043F82010704700BF00000020054B1B6889
:10436000082B01BF044B1868B0FA80F0400918BF51
:1043700000207047300100103401001008B5FFF72D
:10438000EDFF40B14FF080430022C3F80C21C3F889
:104390001021C3F83825FFF7E1FF002846D04FF081
:1043A0008052544BD2F80414C3F82015D2F80814E4
:1043B000C3F82415D2F80C14C3F82815D2F8101439
:1043C000C3F82C15D2F81414C3F83015D2F8181409
:1043D000C3F83415D2F81C14C3F84015D2F82014D1
:1043E000C3F84415D2F82414C3F84815D2F8281499
:1043F000C3F84C15D2F82C14C3F85015D2F8301469
:10440000C3F85415D2F83414C3F86015D2F8381430
:10441000C3F86415D2F83C14C3F86815D2F84014F8
:10442000C3F86C15D2F84424C3F87025FFF796FF43
:1044300010B1314B314A1A60FFF790FF18B1304B81
:10444000FB22C3F81825FFF789FF48B12D492E4BF1
:104450000A681B6822F00F0203F00F0313430B607E
:10446000FFF77CFF18B1294B4FF400721A60FFF779
:1044700075FF48B14FF08043D3F80024D20744BF02
:104480006FF00102C3F80024214AD2F8883043F4C7
:104490007003C2F88830BFF34F8FBFF36F8F1D4B8F
:1044A0001D4A1A604FF0804301220021C3F81825ED
:1044B000C3F804119A60D3F80421002AFBD01749ED
:1044C000CA6842F08072CA60D3F85C2542F4803238
:1044D000C3F85C25D3F85C2542F00302C3F85C25E1
:1044E0004FF0A04340F20132C3F848270C4B0022A2
:1044F0001A6108BD00C000408C560040488103008E
:1045000000F00040E40E00405802001040960240C7
:1045100000ED00E0BC0200200090D003F0ED00E0D0
:10452000000004E00D4B07B51A6842B100221A6082
:104530001B680B4A0193019B136801331360094BFD
:104540001A68094B0AB91A782AB11A780AB10022F6
:104550001A70FDF72DFB03B05DF804FB0411014058
:104560001C0E002044110140180E00202DE9FF41CF
:10457000DFF88C801C4E98F800501C4C5DB1002375
:10458000336033680193019B4FF40033C4F8083360
:1045900004B0BDE8F081164B164901271F601120B9
:1045A000FFF7D4FEC4F80855356033680393039BC6
:1045B000114B1D601B680293029B4FF00213C4F85D
:1045C00048330223C4F804330C4B4FF4003240212B
:1045D000C4F8082383F81113C3F880211A602760F8
:1045E00088F80070D4E700BF44110140001001407A
:1045F00004100140254500000411014000E100E0E5
:10460000190E0020094B01221A60094A4FF40033A9
:10461000C2F80833074AC2F88030BFF34F8FBFF3A8
:104620006F8F054B00221A70704700BF04100140C5
:104630000010014000E100E0190E002073B50446AF
:104640000E461546FDF710FF104B24F07F40D3F8BF
:104650000445A04204D0013424F07F44A04202D19A
:10466000023020F07F4006F5A87643F82600D3F804
:104670000413294006D1064A116012680192019A7A
:10468000C3F80453FDF7FAFE02B070BD00100140FC
:1046900044110140024803780BB101F0D3B97047CF
:1046A000C0020020024B012200201A7001F0D8B98C
:1046B000C00200200B4B187810B5002288B10A48C0
:1046C0001A704FF08051C2604C690B690749426013
:1046D00063438260036101F07EFE003018BF012059
:1046E000404210BDC102002080030020708F0000F6
:1046F000002070472DE9F0410E4602F095FD0D4F68
:10470000DFF8348005460424401BB84201D8042C4D
:1047100005D0201C18BF01204042BDE8F0810023D5
:1047200001223146404601F095FE044602F07CFD30
:10473000EAE700BF3F0D0300800300202DE9F04FA2
:1047400085B03ABB4FF0FF3005B0BDE8F08F2B6865
:10475000039302F069FD06EB050B824600230093EC
:1047600003AA04235946404601F03EFE044602F0E7
:104770005BFDA0EB0A00484509D90435002CE1D1C6
:10478000BD42E4D1201C18BF01204042DCE7042CCC
:10479000E4D0F2E723F00303D71815460E248E1A4F
:1047A000DFF80880DFF80890EAE700BF8003002008
:1047B0003F0D0300024B1869DB68C01A704700BF49
:1047C00080030020064BDA688A4205D81A699142B4
:1047D00002D25B68186870474FF0FF30704700BF27
:1047E000800300200420704700207047FF2070479E
:1047F000104B10B502460446D3E9000103F01AFE3F
:10480000002100F0010050EA010312D00A4B1A5DAA
:10481000910706D5D20604D42046BDE8104001F029
:1048200039BF1B5DDB0604D52046BDE8104002F011
:1048300081B810BD100F0020E00E00201F288BBF94
:1048400000F01F030346174A4FF0A04203F5E07340
:1048500070B552F82330C3F30143032B124B0246C9
:104860000446D3E900010CBF0125022503F0E2FD57
:10487000002100F0010050EA010311D00B4B012D83
:104880001B5D02D15A0602D470BD9B0608D5084BA9
:10489000084A1B6852F824002946BDE870401847B2
:1048A00070BD00BF00030050180F0020E00E002074
:1048B000200F0020200E002073B5434D434E2B5C8B
:1048C00013F0010F044601D1DB0671D52B5D98076B
:1048D00004D5C3F30013DAB2002A4FD09DF8063096
:1048E00003F0FD036FF300038DF8063003238DF80A
:1048F00004302B5DC3F38103DAB2012A02D0032A0C
:1049000018BF00238DF805302B5DD90626D5304A17
:1049100001A9204601F024FF2E4B2246D3E90001D5
:1049200003F088FD002100F0010050EA010308D0E7
:104930002B5D5A0601D49B0603D50121204601F0C8
:104940008DFF22460120002103F080FDD6E90023DF
:1049500010431943C6E9000102B070BD1F2C234665
:104960009DF8052086BF1C4904F01F034FF0A041AD
:1049700003F5E073920041F82320E2E71F2C8DF845
:10498000063088BF144BADF8042094BF4FF0A0430D
:1049900004F01F02D3F8043598BF2246D34003F039
:1049A000010301A920468DF8053001F0FFFDC8E79D
:1049B00002460021012003F049FDD6E9002322EA46
:1049C000000023EA0101C5E7E00E0020100F0020DF
:1049D0003D480000180F00200003005010B5017082
:1049E000013104460CD007490620FFF7AFFC01F067
:1049F0009BFD054994F900208B5C43F001038B5427
:104A000010BD00BFA9690000E00E002038B50446C3
:104A100000780D46FFF7ECFE94F90000044B1A5C99
:104A200065F383021A54C0B2BDE83840FFF744BFB3
:104A3000E00E002038B5044600780D46FFF7D8FE9A
:104A400094F90000044B1A5C65F341021A54C0B299
:104A5000BDE83840FFF730BFE00E00200228DCBF81
:104A6000014B43F820107047240F00200228DABFC2
:104A7000024B53F820004FF0FF307047240F002006
:104A80002C4BF0B500241D4693F90060771C07D12C
:104A900093F90170013703D193F90270013715D0F2
:104AA00086423DD193F901608E4239D193F902607B
:104AB000964235D105EBC4041F4E636803EB4305F2
:104AC000741970556170A2705C1C27D11A4C0223B6
:104AD0002546264695F90670874207D195F9077055
:104AE0008F4203D195F90870974217D0013B5F1CA4
:104AF000A5F10305EED1022394F90650013512D138
:104B000094F9075001350ED194F9085001350AD1B6
:104B100003EB4305741970556170A2701846F0BD1F
:104B200001340833B0E7013B5D1CA4F10304E3D179
:104B30000223F3E7288F0000C202002070B5254E43
:104B40000446002316F933506A1C06EBC30011D04B
:104B500090F90120B2F1FF3F0CD0A5421ED18A424C
:104B60001CD140681C4B03F8104003EB4003451C6C
:104B700059702DD1184B93F9000084421A4603D185
:104B800093F901308B420BD092F902309C420BD149
:104B900092F903508D4207D1012070BD0133D1E756
:104BA000002070BD00230CE0013003D192F9010018
:104BB0000130F7D00133EFD192F903300133EBD15B
:104BC000012302F8134002EB43021846517070BDF6
:104BD00070BD00BF308F0000CB020020064A07489E
:104BE000002350F8231042F823100133402BF8D152
:104BF000034B9A60704700BF0000002000000000D7
:104C000000ED00E070470023435082B04358019309
:104C1000019B02B070470000074A2823584313182D
:104C20000021597413581A6A586A1AB1800701D5BD
:104C3000D8691047704700BF980F0020074A282303
:104C4000584313180021597313581A6A596A22B12C
:104C5000C90702D50121D86910477047980F002075
:104C6000084A2823584313180021D973597313583D
:104C70001A6B596B22B1490702D504219963104779
:104C8000704700BF980F0020124B53F82020124BA2
:104C900010B54FF4A671C2F8083304461046FFF76A
:104CA000B2FF4FF488711046FFF7ADFFD2F8003223
:104CB00023F02003C2F80032084B282101FB043402
:104CC00001232374002384F824301023C2F8043312
:104CD00010BD00BF3C8F000010000800980F00209E
:104CE0002DE9F347544F57F82060D6F810310446A9
:104CF000D3B14FF488713046FFF785FF28254F4820
:104D000005FB04F142188146137C002B46D000239A
:104D1000137493734358DA6B196C2AB1C90503D520
:104D20004FF480715964904757F82450D5F84C31AE
:104D3000FBB1D5F81031E3B94FF4A6712846FFF75F
:104D400062FF3E4828236343C11804338A7C82F003
:104D5000010213440344086AC5F83435421C4FF07D
:104D60000103C5F8383504D08A69032A5BD901F0FC
:104D7000E7FCD5F8203173B14FF490712846FFF766
:104D800042FF002C52D12E4B01221A702D4B4FF4B2
:104D90008012C3F8002102B0BDE8F087957C85F051
:104DA00001039374D6F83C35002BBDD001EB050808
:104DB0001D44033501F1180608F103080D440644AB
:104DC00080440544924614E001A9DAF8140000F08A
:104DD000B5FE80B118F8013F037001A9DAF814009C
:104DE00000F0D6FE56E8002F013A46E80023002BDB
:104DF000F8D1A845E8D1282303FB049999F811308C
:104E0000002B91D1012389F811303CB90E4A13705F
:104E10000C4B4FF48012C3F8002185E7012C83D19D
:104E20000A4B1C70F4E781F82430A2E7012CB2D1C0
:104E3000074B1C70AAE700BF3C8F0000980F0020B2
:104E4000EA0F002000E100E0E80F0020E90F002059
:104E5000EB0F00200120FFF743BF0020FFF740BF0A
:104E60002DE9F041174B184F53F82040DFF85C80D4
:104E7000C4F80883282545437E190435706900F07D
:104E80003BFE2023B3614FF4A6712046FFF7BBFE23
:104E90004FF488712046FFF7B6FED4F8003243F095
:104EA0002003C4F8003200233D440122B374C4F847
:104EB00034553374C4F8382586F82430C4F8048394
:104EC000BDE8F0813C8F0000980F00201000080022
:104ED00008B5174B1A7832B100201870154BDB7BE0
:104EE000F3B1FFF7BDFE144B1A781AB10020187009
:104EF000FFF792FE114B1A7842B100221A700D4B47
:104F000093F8373001207BB1FFF7AAFE0C4B1A78DB
:104F10006AB100221A700120BDE80840FFF77CBE8C
:104F20001846FFF78BFEDEE7FFF788FEEEE708BDC9
:104F3000EA0F0020980F0020E80F0020EB0F002060
:104F4000E90F002041682DE9F8434D1C044610D0BC
:104F50001F2987BF01F01F03474A0B464FF0A042AD
:104F60000120984003F5E073C2F80805032042F8D9
:104F70002300A268501C0CD01F2A8BBF02F01F0315
:104F800013463D484FF0A04003F5E073002540F87C
:104F900023502368394E56F82300C0F80C15C0F88A
:104FA0001425227D012A15D1E268511C0CD01F2A3C
:104FB0008BBF02F01F0111462F4D4FF0A04501F5A8
:104FC000E071002745F821704FF0FF31C0F8081557
:104FD000C0F810252A4D2169282707FB03531A6AB8
:104FE00091423CD0187F01F06FFE236807FB03530A
:104FF0001B6A013302D0206901F04CFB2069431C7D
:1050000027D0204901F0D2FA082806D1206901F002
:1050100041FB1C49206901F0C9FA2368206956F850
:1050200023704FF0280808FB035207F5887792F8A1
:105030001C9001F077FB39460246484601F00EFE0F
:10504000236808FB0353187F01F028FE206901F054
:1050500057FB2368282202FB035523692B62236830
:10506000217D56F82320637D0B43C2F86C35A3697C
:10507000C2F82435BDE8F883000300503C8F0000DF
:10508000980F0020388F000070B50468164E282253
:105090006243B118B2589042054602D190F82C30C4
:1050A00083B12846FFF74EFF282363432046F5507F
:1050B000002385F82C3095F82D304BB1BDE87040B9
:1050C000FFF7E2BD90F82D200B7C4AB95BB120467A
:1050D000FFF7C6FE054B53F8243001221A6070BD5D
:1050E0000BB92046EAE770BD980F00203C8F000006
:1050F0002DE9F84F524B534D90461A7804460F460F
:10510000002A54D000221A7001F046FA08B901F0C2
:105110000BFA4D4E4D49DFF86891DFF868B1142065
:10512000FFF714F9E02386F814334FF4801321229B
:10513000C6F88031464933604846012300F0C9FC77
:10514000C5F814904FF00009C5F80090414801F0EF
:1051500059FD414B41494FF0FF3AC5F820A00220CC
:10516000C3F808A3FFF7F2F8042386F8029321227C
:10517000C6F880313A4933605846012300F0A9FC53
:10518000C5F83CB0C5F82890364801F03BFD364BD9
:10519000C5F848A03549C3F808A32820FFF7D6F87A
:1051A0004FF4807386F82893C6F8843173604146C3
:1051B0003846FFF7C3FC28234343EA18206096686B
:1051C0000136012E96601AD0002363752375236281
:1051D000274B284AA2619C424FF0FF326760C4F817
:1051E0000880E26022614FF0010301D1224A13607E
:1051F00084F82C302046BDE8F84FFFF745BF1F4A22
:1052000052F820200821C2F800150C334FF0FF316E
:10521000C2F80C151D44C2F814154FF08051C2F8A5
:1052200024151046C2F844554FF49071C2F84865F1
:10523000FFF7E9FC9660D2F81C31002BFBD0C3E7E6
:10524000CF020020980F002000E100E0D14E0000C6
:10525000300F0020B40F0020002000405B4E000003
:10526000640F0020DC0F002000800240554E00003B
:10527000EC0F002000502700581000203C8F000049
:10528000540F0020880F0020B1F5166F35DBB1F503
:10529000965F35DBB1F5165F35DBB1F5615F34DB69
:1052A000B1F5964F33DBB1F5E14F32DBB1F5164F77
:1052B00031DBB1F5614F30DBB1F5963F30DBB1F555
:1052C000E13F30DBB1F5613F2FDB1E4B99422FDD13
:1052D000B1F5E12F2FDBB1F5612F2FDB1A4B99428E
:1052E000D4BF4FF070614FF08051836999421EBF67
:1052F0000123816180F82C3070474FF49E21F4E740
:105300004FF41D21F1E71149EFE71149EDE711498C
:10531000EBE71149E9E71149E7E74FF41D01E4E73D
:105320004FF46B01E1E70E49DFE74FF0EB71DCE78B
:105330004FF06C71D9E74FF08061D6E74FF0E8612C
:10534000D3E700BF8FD003003F420F0000B013002F
:105350000050270000F03A0000A04E0000C0750089
:1053600000903A0138B504680D46FFF78DFE114BE9
:1053700053F82420D2F81C31002BFBD010464FF4F8
:105380008E71FFF740FC0C4928236343C8180C3387
:105390000B440124C2F844350573C2F848454FF464
:1053A00090711046FFF72FFC4FF48073C2F804335E
:1053B000946038BD3C8F0000980F00200E4B1A6996
:1053C00042F010021A61F1EE102A22F09F02E1EE83
:1053D000102AF1EE102A094A4021C2F884114FF038
:1053E00080420121D16740BF20BF5A68044B13405F
:1053F00003B920BF704700BF00ED00E000E100E00E
:105400003FF0439E0748027808B512B1064B0122CF
:105410001A60FFF7D3FF037813B1044B01221A601F
:1054200008BD00BF5F1000200490004000900040C5
:105430001F2886BF00F01F00044A4FF0A04201233E
:1054400003FA00F0C2F80C05704700BF00030050DB
:105450002DE9F041056804462846FFF707FB844222
:1054600001D1237EF3B1002323760F4B0F4F5A5DFA
:105470009846EE0012B1B81901F0C4FDE36904F1D9
:1054800008016BB10A4A2346B81901F0D1FC012387
:1054900008F8053021462846BDE8F041FFF7DEBA9E
:1054A0001A46F1E7BDE8F0815C100020448F00004F
:1054B0001D55000030B5016BC36A056C846A5A1A29
:1054C000C36BFF2AA3EB050385B028BFFF22FF2B88
:1054D00028BFFF230C44816B03930068064B0192A5
:1054E000294402910022694603EBC000009401F0B8
:1054F000CDFD05B030BD00BF448F00001F2886BF22
:1055000000F01F00044A4FF0A042012303FA00F00C
:10551000C2F80805704700BF0003005010B50C46E4
:10552000017881B98368226B00691A44236C226375
:105530000344E06A2364824201D383420ED22046B0
:10554000FFF7B8FFE8B1236A990712D5E36983B181
:105550000022E26101222276022208E0236A5B0730
:1055600007D5E3692BB101222276E1610422626250
:10557000984794F90400421C03D0BDE81040FFF79F
:10558000BDBF10BD2DE9F0410F46164604461A4630
:105590003146384698469DF91850FFF771FAFF23B7
:1055A000E37263734FF0804307222361002320607E
:1055B00023756375E36123626362257184F8088053
:1055C0006772A67222732046FFF742FF6B1C0ED053
:1055D0002846FFF793FF1F2D86BF05F01F050E4BD2
:1055E0004FF0A04305F5E071032243F821200B4B57
:1055F0001A787AB100220A491A700320FEF7A6FE33
:1056000008490420FEF7A2FE07492320BDE8F04127
:10561000FEF79CBEBDE8F08100030050D0020020E0
:10562000016E0000116E0000216E00003AB1012AE7
:1056300005D0022A03D0032A14BF00220322037DCF
:1056400093421EBF012302750376FFF701BF0000DE
:10565000174B99421CDD174B99421CDD164B9942A2
:105660001CDD164B99421CDD154B99421CDD03F5E0
:10567000741303F510639942D4BF4FF080414FF08B
:105680000041036999421EBF0123016103767047FF
:105690004FF00071F5E74FF08061F2E74FF00061E5
:1056A000EFE74FF08051ECE74FF00051E9E700BF22
:1056B0008FD003001FA107003F420F007F841E0010
:1056C000FF083D0030B5044687B005688DF8061028
:1056D000FFF7BEFE94F90400421C01D0FFF7A8FEBC
:1056E0000DF106030B4802930DF10703049300220A
:1056F000012302A900EBC5000393059301F0C6FC4A
:1057000094F90400431C01D0FFF7F8FE9DF8070050
:1057100007B030BD448F00002DE9F04F87B0174629
:105720009B46427B9DF844300568DDF840809A42F4
:1057300018BF012204461CBF027643738A46FFF756
:1057400087FE94F90400421C01D0FFF771FE214B43
:10575000002003EBC503009305460646002F0DDC31
:10576000B8F1000F0ADC94F90400431C2ED1AE42BC
:105770003046B8BF284607B0BDE8F08F0028F2D108
:10578000FF2F3B46A8BFFF23002BC8BF0AEB060034
:10579000B8F1FF0FC146A8BF4FF0FF09B9F1000FE4
:1057A000CCBF0BEB050200220290049202A900225A
:1057B000009803930193CDF8149001F067FC019BCE
:1057C000A8EB0908FF1A1E444D44C7E7FFF796FEF1
:1057D000CDE700BF448F0000004870475C8F000099
:1057E00073B5214E214A3178214C51B10023136009
:1057F00013680093009B4FF48033C4F8083302B061
:1058000070BD1C4B01251D604FF48033C4F8083374
:10581000D4F8043523F00303C4F80435D4F8103564
:1058200023F00F0343F00403C4F81035D4F808350F
:1058300043F00303C4F80835C4F840151160136839
:1058400001930D49019B0920FEF780FD0B4B40227F
:1058500083F809234FF40072C3F880211A60084BC3
:1058600025601D603570CAE75F1000204091004040
:1058700000900040049000402D20000000E100E076
:1058800044900040024B01221A60D3F80005704793
:105890004490004013B50446FCF7E6FD0A4AC2F8FE
:1058A0004045D2F8043313F4803308D107490B6024
:1058B0000B680193019B4FF48033C2F80433FCF76B
:1058C000DDFD02B010BD00BF0090004040910040DF
:1058D000024B4FF40072C3F80021704700E100E072
:1058E000024B4FF48032C3F8082370470090004009
:1058F000044B00221A6082B01B680193019B02B026
:10590000704700BF409100400A4A01231360D360F2
:10591000094B4FF48032C3F80823084B4FF4007250
:10592000C3F88020BFF34F8FBFF36F8F044B00226B
:105930001A707047049000400090004000E100E0C1
:105940005F100020014B436000207047648F00000F
:105950000846704700207047024B1868003018BF97
:10596000012070476010002008B5024800F0AEF832
:10597000002008BD6010002008B510461A4602F04D
:1059800080FC002008BD00002DE9F041804686B073
:1059900014480E4615461F4600F095F80446F0B927
:1059A000A54216D10F4800F091F8D8F8084064B12C
:1059B00018220021684602F06FFC02238DF80030A7
:1059C0000296049505976846A047002006B0BDE8FA
:1059D000F08106EB043001F0E7FB0134E0E7112031
:1059E000F4E700BF601000202DE9F041044686B0C6
:1059F00013480F4690461E4600F065F80546E8B984
:105A0000B2084146384601F0E7FB0D4800F05EF869
:105A1000A4688CB118222946684602F03DFC012397
:105A20008DF800300C9B0297684604960593A047BA
:105A3000284606B0BDE8F0812046FAE71120F8E7D5
:105A40006010002072B6054A1378191C18BF012196
:105A50000133017013700020704700BF64100020F4
:105A6000044B20B11A78013A1A7000207047187060
:105A700062B6FAE76410002000B550E8002F42EA51
:105A8000010340E8003E9EF0000FF6D110465DF89D
:105A900004FB00B550E8003F03EA010240E8002E95
:105AA0009EF0000FF6D110465DF804FB00B550E8FB
:105AB000003FA3EB010240E8002E9EF0000FF6D15C
:105AC00010465DF804FB0121FFF7D6BF0021FFF768
:105AD000E0BF10B561B1B2FBF3F403FB1424A4B230
