:020000041000EA
:1000000000200008CB0000100D0000002D010010A2
:1000100000000000000000000000000000000000E0
:100020000000000000000000000000002901001096
:10003000000000000000000029010010290100104C
:1000400029010010290100102901001029010010C8
:1000500029010010290100102901001029010010B8
:1000600029010010290100102901001029010010A8
:100070002901001029010010290100102901001098
:1000800010B5064C2378002B07D1054B002B02D06E
:10009000044800E000BF0123237010BDEC020008FB
:1000A0000000000074110010044B10B5002B03D0A9
:1000B0000349044800E000BF10BDC0460000000036
:1000C000F0020008741100107047FFF7FDFF72B6D0
:1000D0000F4C104DAC4209DA21686268A368043BFA
:1000E00002DBC858D050FAE70C34F3E70A490B4A50
:1000F0000020521A02DD043A8850FCDC0848094905
:100100000860BFF34F8F00F0E9F800F075F9FEE7E3
:100110007811001090110010EC020008CC040008C7
:100120000000000808ED00E0FEE7FEE700B504204F
:100130007146084202D0EFF3098001E0EFF3088036
:10014000043000F0DBFBFEE710B5002000F098FA69
:1001500010BD7047F8B5E0234E4C9B00E2580F23CA
:10016000D02107201A4093001B19890059580140DB
:1001700065D0042959D04848002A65D1B223B1225C
:100180000321DB00D200E558A358A6581B0F360FF9
:100190000B400E4204D0A258120F0A40012A01D18E
:1001A000EA0701D4032B11D1B0233C4ADB00E65807
:1001B000A158E558C904C90C00F0ACFDB3039B0B72
:1001C0005843E901C90F013100F0A4FDE0239B0071
:1001D000E358334A9B069B0FD840324B1860324B92
:1001E000D458D158240A090E013100F093FD2F4B49
:1001F000E1B21860013100F08DFD2D4B0400186054
:100200002C4B2D4918602D4BC01800F083FDFA21AE
:100210002B4B890018702B4BE01800F07BFD2A4B0C
:1002200018602A4BC0031860F8BDC0211F20890048
:1002300059580140112904D1802000029CE724482C
:100240009AE7FA20C00197E7013A012ABED80327AE
:10025000204A9E58204A99589D582D0F3D4204D05F
:100260009D582D0F3D40012D01D1F50703D4890084
:10027000890F0329AAD19E5899589D587F2333404E
:100280001F26090A3140584300F044FD290C314033
:100290009AE7C0460000264000366E018405000043
:1002A00000002040840000080810000088000008BA
:1002B000800000089000000840420F003F420F00FD
:1002C00098000008E7030000940000088C00000874
:1002D00000127A003C060000FC05000010B51D4825
:1002E00000F0A6F8B022E02130201B4CD200A35829
:1002F00089005B005B08A3506358834363508023ED
:100300005B04A350154B164AE250A022043392011D
:10031000E250FF22134BE25000F096FCC022012174
:100320005200A3588B43A350FFF713FFFFF712FFB0
:100330000D4A8021032000F00BFA0C4800F07EF8F3
:100340000B4B1B6851331B78002B02D0094800F07F
:10035000E3F810BDC40E0010000026408405000024
:10036000010002008C050000980200080803000844
:10037000C8040008900E001010B5902400F051F849
:10038000074B64011A5907491140074A0A431A5199
:10039000102259681142FCD000F047F810BDC04649
:1003A00000002040FCFF00000100FA05F8B5902590
:1003B0000E4C6D01070000F034F863590600DB4372
:1003C0009B0701D1FFF7D8FF80239B00E7506359BB
:1003D000074A1A40074B13436351102362681A42BD
:1003E000FCD0300000F021F8F8BDC04600002040ED
:1003F000FCFF00000300FA0510B562B60348FFF7E2
:10040000D5FF002000F08AFBFBE7C046002000106B
:100410000230800803D001300238FCD1C046C0460B
:100420007047EFF3108072B6704780F31088704702
:10043000014B18607047C046C8040008024B1A6898
:10044000002A00D11860704788040008F7B52C4DC9
:100450001F002B68040000910192002B03D1BF21E3
:10046000284800F03BFA2C23FF225C432B683D0018
:100470001C193B0A3F0CA760234F134063603B6885
:100480001540256031331B789D4204D3E9211F4874
:10049000490000F023FA3B681A00B0321288554335
:1004A0001A6A3233AD1825611B7865689D4204D302
:1004B000F7211648490000F011FA3B6880351B6AA5
:1004C0006D01A668ED186561330C08D00F4F104917
:1004D000380000F003FA0F49380000F0FFF9330448
:1004E0001A0C1343AB60019BE361009B2362002362
:1004F000A361089B002B01D01B88A381F7BDC046D8
:10050000880400087C0F0010C8040008E20F0010E7
:100510000D0200000E020000F0B5040085B00028B6
:1005200003D15C21214800F0D9F96368032B03D97A
:100530005E211E4800F0D2F9E36A002B03D162214C
:100540001A4800F0CBF9236B002B03D16321174825
:1005500000F0C4F9A36802AD2B80154B22681B681C
:10056000E16ADB8EE0689B186B806368A26A039384
:1005700000952369266A676AFFF768FF00213B0040
:100580000A0000913000FFF761FF216B280000F0A6
:1005900051F90022AB5E002B06DB1F2213401E3AEE
:1005A0009A401300034A136005B0F0BD7C0F0010A1
:1005B000C804000800E100E0002373B504000193C3
:1005C000984204D1DC212C48FF3100F087F92369DF
:1005D000002B04D1EE212848490000F07FF963691F
:1005E000002B04D1DE212448FF3100F077F9236A83
:1005F000002B04D1EF212048490000F06FF9626917
:10060000D5682B0C22D01B04136013681B4B206988
:100610001B68B4331B68C3181B68002B16DA01A9CA
:1006200000F05CFB0026B0420CD10198E26903683F
:100630001E0CDBB29A4205D9226A9B009B58002B04
:1006400000D098473100206900F010FBADB2002DBA
:1006500009D063691D6000251B68636AAB4205D041
:1006600098476562A56163691B6873BDA36A002B27
:10067000F8D09847F6E7C0467C0F0010C804000881
:1006800070B5084C05002368002B04D1BC21064836
:10069000FF3100F023F92C20454320684019FFF773
:1006A0008BFF70BD880400087C0F001070B50A4DE8
:1006B00004002B6831331B78834204D8E9210748B2
:1006C000490000F00BF92B681A00B032108844433F
:1006D000186A201870BDC046C8040008E20F001058
:1006E000F8B5174B0D001B6831331B78834225D9B1
:1006F000002923D01F240B681C401FD1FFF7D6FF11
:1007000007002B680F4EDA0821003060686800F09F
:100710008DFB2100380000F0A9FA21002A00306882
:1007200000F0C2FA041E07D10100306800F09EFA02
:1007300003002000002B00D00348F8BD0348FCE76D
:10074000C80400088C04000801018A0003018A0023
:1007500010B50C00002A07D100290DD1FFF7A6FF24
:10076000064B1860200010BD002905D004490C601C
:100770004A60FFF7B5FFF6E70248F4E78C0400088B
:10078000A802000803018A0070B5194E05003368FD
:100790000C001A0028321278012A15D1820807218C
:1007A000100088430FD103202840C00084401B68FC
:1007B000920020339B182200FF24844019684A408D
:1007C00014404C401C6070BD5B8F8B4203D1802174
:1007D000084800F083F8336807201A68802328400F
:1007E0001B06184380239B01E418A400A050EAE7ED
:1007F000C8040008481000100A4B70B59B680A4EE8
:1008000010300D008400B34209D1002904D14221E7
:100810000648FF3100F062F83059355170BD044B85
:100820001859FBE700ED00E0000000084810001038
:1008300000000010F8B506000D00002841D0436804
:10084000032B03D93C21204800F048F80023F05E38
:10085000002828DB7188FFF797FF0024FF22032779
:1008600094460023F05E716883B21F40FF00664625
:10087000BA4089013140D243B940002815DB134EFC
:1008800083089B009B19C026B6009F593A4011432C
:1008900099510F4B9A680F4B9A4202D12900FFF7EA
:1008A000ABFF2000F8BD0C4CD8E70F263340083BC7
:1008B000074E9B089B009B19DE6932401143D961AA
:1008C000E7E7054CEDE7C0464810001000E100E006
:1008D00000ED00E0000000080100560070B50D00BA
:1008E000044C01001822200000F0A8FAA56101BE06
:1008F000FEE7C046B0020008FEE7000002680A4BAF
:1009000010B5DA6142681A6282685A62C2689A62F5
:100910000269DA6242691A6382695A63C2699A6338
:10092000FFF7EAFF10BDC046B0020008B0235B0528
:100930005A782120002A01D05878C0B27047B023DD
:100940005B059A89002A02D0988980B2704780207E
:100950004000FBE710B5074C236831331B78002BB0
:1009600004D1E92104484900FFF7B8FF2368186A59
:1009700010BDC046C8040008E20F001030B50400E6
:1009800085B00D00042803D927492848FFF7A6FFA2
:100990006B1E012B07D9FB222B1F134203D02449C6
:1009A0002248FFF79BFF234BA400E458042D01D0FD
:1009B000012D1AD100200FE0A3682B420BD1E36870
:1009C00029001A685B6802920193039302A82368C6
:1009D0009847194B1C606469002C04D0174B98424F
:1009E000EAD1012DE8D105B030BD022D06D1124B60
:1009F0001B68181EF7D01C6903E01C006369002BFC
:100A0000FBD10020002CEED0A3682B4209D1E36873
:100A100029001A685B6802920193039302A8236875
:100A200098472469EEE7C046E6090000AC100010C4
:100A3000E7090000B4040008B0040008FF00420009
:100A400010B5041E03D111491148FFF747FFF222E8
:100A5000104BD2011B68DB689A582260F022D20149
:100A60009A5862600C4A9A58A2600C4A9A58E260FE
:100A70000B4A9A5822610B4A9A5862610A4A9A585C
:100A8000A2610A4A9B58E36110BDC046D50A000026
:100A9000AC100010C80400080478000008780000BA
:100AA0000C7800001078000014780000187800001E
:100AB00010B5041E03D110491048FFF70FFFF022B4
:100AC0000F4B61681B68D201DB689950A1680D4A21
:100AD0009950E1680C4A995021690C4A9950616912
:100AE0000B4A9950A1690B4A9950E1690A4A9950F9
:100AF0002168E832995010BDFD0A0000AC100010CA
:100B0000C804000804780000087800000C78000091
:100B1000107800001478000018780000F7B507007E
:100B2000012803D940494148FFF7D8FE404D6B6882
:100B3000002B4AD1FFF775FC6B680190002B56D152
:100B40003C4E33681A0043321278002A07D09B6863
:100B5000E0331B68DB0602D53748FFF771FFFFF76C
:100B6000EEFE80235B00984246D1380000F088F901
:100B7000002433681A0043321278002A17D0002864
:100B800015D09B68E0331B68DB0610D5FFF7CEFE5F
:100B9000294B212808D032681300B0331988072365
:100BA0004B43126A9B18DB681800FFF781FF01981E
:100BB000FFF73BFC002C0ED16B68002B03D0082103
:100BC0000120FFF7DBFE2000FEBD01210800FFF73A
:100BD000D5FE041EAED06B68002B03D0022101208D
:100BE000FFF7CCFE154B9C42EDD0154CEBE70421F2
:100BF0000120FFF7C3FEA3E7FFF7ACFE3368B43371
:100C00001B68C0180368002B0BDB04230D4A116915
:100C10000B431361012F02D030BF0020A8E720BF93
:100C2000FBE70020054CA4E7AF020000AC10001069
:100C3000B4040008C804000890040008050042003D
:100C4000FF00420000ED00E0C02280200649520073
:100C50008B58C0059B009B0803438B50802388580A
:100C60001B0603438B507047000026400B4B70B5AA
:100C70001B680500B4331B680C00C3181B68002BED
:100C80000ADA0B0C04D0B92105488900FFF726FECB
:100C90000020A4B26C6070BD0248FCE7C8040008E4
:100CA000E20F001001008A00036870B505000C0017
:100CB000002B0ADAC2600B0C03D005490548FFF788
:100CC0000DFE0020A4B2AC6070BD0348FCE7C04636
:100CD000CA020000E20F001001008A0070B5050092
:100CE0000C1E03D1A3210848FFF7F8FD074B1B6832
:100CF000B4331B68EB181B68002B03DA0020EB6889
:100D0000236070BD0248FCE70F110010C804000802
:100D100001008A00002243088B4274D303098B42EE
:100D20005FD3030A8B4244D3030B8B4228D3030CBB
:100D30008B420DD3FF22090212BA030C8B4202D35D
:100D40001212090265D0030B8B4219D300E0090A85
:100D5000C30B8B4201D3CB03C01A5241830B8B428E
:100D600001D38B03C01A5241430B8B4201D34B0377
:100D7000C01A5241030B8B4201D30B03C01A5241DC
:100D8000C30A8B4201D3CB02C01A5241830A8B4261
:100D900001D38B02C01A5241430A8B4201D34B024A
:100DA000C01A5241030A8B4201D30B02C01A5241AE
:100DB000CDD2C3098B4201D3CB01C01A5241830962
:100DC0008B4201D38B01C01A524143098B4201D39C
:100DD0004B01C01A524103098B4201D30B01C01AC7
:100DE0005241C3088B4201D3CB00C01A5241830841
:100DF0008B4201D38B00C01A524143088B4201D36E
:100E00004B00C01A5241411A00D2014652411046CD
:100E10007047FFE701B5002000F006F802BDC046AC
:100E20000029F7D076E770477047C04603001218D4
:100E3000934200D1704719700133F9E730B50500CE
:100E4000002A00D130BD0C78013A6B1C2C700131A6
:100E5000002C05D19A189A42F4D01C700133FAE79D
:100E60001D00EDE7F8B5C046F8BC08BC9E467047CB
:100E7000F8B5C046F8BC08BC9E46704700000000AC
:100E800001B40248844601BC604700BFA5000008C9
:100E9000030000000100000001000000000000004D
:100EA00005036000040000000100000000000000D5
:100EB000010000000604600008000000680400084B
:100EC00049010010000020400000244000000040C4
:100ED00000000000000023400000304000003140CE
:100EE00000009F4000002240000010400202020269
:100EF000020202020210101D800017007500FF039D
:100F00000602063604102000000000007FC000002A
:100F100000040000000000000019324B647D0080D6
:100F20004000080B100000000000FF012002001F1D
:100F300000800004FF081018001000140018001CA6
:100F40004044484C50000000081000000800000019
:100F50000400000004100000001200000421000042
:100F6000002100000016000040114002C4130013CD
:100F70008013A013200000001C000000433A2F55EE
:100F8000736572732F6F6875642F4D6F647573543A
:100F90006F6F6C626F785F322E302F6C6962726196
:100FA000726965732F70736F633673772D312E32CC
:100FB0002F636F6D706F6E656E74732F70736F63D8
:100FC0003670646C2F647269766572732F736F75F7
:100FD0007263652F63795F6970635F706970652EF6
:100FE0006300433A2F55736572732F6F6875642FD2
:100FF0004D6F647573546F6F6C626F785F322E3013
:101000002F6C69627261726965732F70736F6336DA
:1010100073772D312E322F636F6D706F6E656E7426
:10102000732F70736F633670646C2F6472697665AA
:1010300072732F696E636C7564652F63795F697075
:10104000635F6472762E6800433A2F55736572733E
:101050002F6F6875642F4D6F647573546F6F6C627A
:101060006F785F322E302F6C6962726172696573BE
:101070002F70736F633673772D312E322F636F6D40
:10108000706F6E656E74732F70736F633670646CFF
:101090002F647269766572732F736F757263652F33
:1010A00063795F737973696E742E6300433A2F55C9
:1010B000736572732F6F6875642F4D6F6475735409
:1010C0006F6F6C626F785F322E302F6C6962726165
:1010D000726965732F70736F633673772D312E329B
:1010E0002F636F6D706F6E656E74732F70736F63A7
:1010F0003670646C2F647269766572732F736F75C6
:101100007263652F63795F737973706D2E6300432B
:101110003A2F55736572732F6F6875642F4D6F6426
:101120007573546F6F6C626F785F322E302F6C69FD
:10113000627261726965732F70736F633673772D96
:10114000312E322F636F6D706F6E656E74732F70FA
:10115000736F633670646C2F647269766572732F77
:10116000736F757263652F63795F6970635F647213
:10117000762E630000000000000000100000000850
:101180008000000098110010800000081802000084
:10119000EC020008E001000000093D0000127A00A6
:1011A00000093D000000D00700093D00A00F00002D
:1011B00004000000A900001081000010F7B56E4D7A
:1011C00004002A68536800931300B033198807237A
:1011D0004B43126A9B181A68002AFCDA00F0E0F808
:1011E0002A681300B033198807234B43212800D005
:1011F00096E0116A5B180221D8680143D960D9686A
:10120000C9072FD508208446944460461600D96843
:10121000C06F019111688836081835680768491948
:101220000D683902FF273F040F40694689882D0A5F
:101230002D0639432943D960902103684F4D090198
:101240002B400B430360136830681B181868054077
:101250002943196013686246D26F9A18126832687F
:101260009B181B68444D2A681300B0331988072364
:101270004B43126A9B1800225A600423404A1169AA
:101280000B431361012C50D030BF2A681300B033D8
:10129000198807234B43126A9B181A68002AFCDA44
:1012A00000F07EF8212842D1296807220B00012492
:1012B000B0331B8800205A430B6AD318DD682542DF
:1012C0001CD0080008300D68C06F2C4E2818056827
:1012D000DB6835401B0C1B061B0C2B4303600B000B
:1012E000883318680B6818180B6A0568D318DB6810
:1012F0002E401B0E1B023343036020000B6A0221A9
:10130000D218D3688B43D3601B4B1A681300B033D9
:10131000198807234B43126A9B1800225A60FEBDAE
:10132000126A9B18174ADA609CE720BFADE70020DD
:10133000009BFC331B698342E6D1A320124B134967
:10134000134A144FC0000E681D5814680F6006271A
:101350001F503E20106010483E371F501F58002F6E
:10136000FCDA00980D4FFC3007610E60A321C90024
:101370005D5001201460C7E7C8040008FF00FFFFAC
:1013800000ED00E09004000800002640080126401F
:10139000040126401E1F00001C050000AAAAAAAADC
:1013A00001B40248844601BC604700BF2D0900100B
:1013B000000000000000000000000000000000002D
:1013C000000000000000000000000000000000001D
:1013D000000000000000000000000000000000000D
:1013E00000000000000000000000000000000000FD
:1013F00000000000000000000000000000000000ED
:1020000000EC0F088B2300100D000000D7230010F8
:10201000D9230010DB230010DD2300100000000096
:10202000000000000000000000000000DF2300109E
:10203000E123001000000000E3230010E52300105E
:10204000E7230010E7230010E7230010E723001028
:10205000E7230010E7230010E7230010E723001018
:10206000E7230010E7230010E7230010E723001008
:10207000E7230010E7230010E7230010E7230010F8
:1022E00000F002F800F042F80AA090E8000C8244E6
:1022F0008344AAF10107DA4501D100F037F8AFF2C3
:10230000090EBAE80F0013F0010F18BFFB1A43F0D3
:1023100001031847AC7B0000FC7B0000103A24BF8F
:1023200078C878C1FAD8520724BF30C830C144BF3A
:1023300004680C607047000000230024002500267C
:10234000103A28BF78C1FBD8520728BF30C148BF18
:102350000B6070471FB507F06FF89DE8030000F0B1
:1023600071FC00F061FD00F03DFC1FBDDFF814D0F2
:1023700003B404F0C0FA03BC00F07CFE00F090FE51
:1023800006F030F800EC0F087047FFF7FDFF72B65B
:10239000154916484FF438720B680360001D091D7B
:1023A000521E002AF8D1114811490860BFF34F8F1F
:1023B0001048804710488047FEE7FEE7FEE704200C
:1023C0007146084203D0EFF3098000F002F8EFF302
:1023D000088003F041F8F2E7F1E7F0E7EFE7FEE706
:1023E000FEE7FEE7FEE7FEE7002000100020000801
:1023F00008ED00E0D9580010E122001000000000B4
:10240000801C800803D0401C801EFCD100BF704798
:10241000EFF3108072B6704780F3108870477047F2
:10242000004870473826000870B5064600F0EEFBFD
:10243000056806F10B0020F00704B4429CBF0020A1
:1024400070BD2B466A68BAB11068A04210D304F17F
:10245000080188423CBF5068586007D35168101982
:1024600041601168091B016058601460101D70BD47
:1024700013465268002AE7D12146284600F0CEFBD9
:102480000028DED170BD70B50446051F00F0BEFB0C
:102490000068002C14BF446870BD002C18BFAC420B
:1024A0003CBF20466468F8D301680A18AA4218BFE6
:1024B000456003D12A680546114401602868411926
:1024C000A1421CBF6C6070BD6168696021680844EE
:1024D000286070BD53EA020C00F069802DE9F04BD2
:1024E0004FF00006002B1FBFB3FA83F503FA05F483
:1024F00024FA05F65E4012BF1643B2FA82F502FADC
:1025000005F4C5F120051EBF22FA05FC44EA0C04BF
:10251000203556EA044C4FEA144418BF641C4FF0AF
:1025200000084FF00009904271EB030C39D30029E9
:1025300019BFB1FA81F701FA07F6B0FA80F700FA8D
:1025400007F6C7F120071EBF20FA07FC46EA0C0673
:102550002037B6FBF4FCA7EB0507103F07F01F0B75
:10256000CBF120062CFA06F60CFA0BFB44BFB3465F
:102570000026202FA4BF5E464FF0000B5BEA060C3E
:1025800008BF4FF0010B19EB0B0948EB0608ABFB3A
:10259000027C06FB02CC0BFB03CCC01B71EB0C01D5
:1025A000C1E70B46024641464846BDE8F08B13B5ED
:1025B0004FF000004FF00001AFF30080BDE81C4079
:1025C0007047B2F120030AD5C2F1200301FA02F1EB
:1025D00020FA03F341EA030100FA02F0704700FA1F
:1025E00003F14FF000007047B2F120030AD5C2F1A9
:1025F000200320FA02F001FA03F340EA030021FA73
:1026000002F1704721FA03F04FF00001704700001B
:1026100070B50446C068810713D0800601D5A56A4D
:1026200004E0A169606808442169451A204600F069
:10263000B7FB002206462946204600F01BF830462C
:1026400070BD002070BD70B510B1BDE87040DFE70F
:102650000025074C6E1E07E02046FFF7D9FF00B1AA
:102660003546206D20F00104002CF5D1284670BDC0
:102670003C2600082DE9F041044616460D46476900
:10268000007B80072ED0384604F04EF950BB3EB395
:10269000012E02D0022E25D104E0204600F008FBD6
:1026A00005441DE0384604F02BF9E168002841F0AC
:1026B0001001E16005DA204600F03EFB0120BDE894
:1026C000F081C9030BD56268E16A914200D81146D6
:1026D000A26911442269891A814200DD0846054435
:1026E000002D01DA0220EAE7E16A6068E2688142CF
:1026F00006D29103E06203D522F4003141F01002CA
:10270000A6690027AE4213DCE16A814201D90B467B
:1027100000E0034603EB060C2369ACEB030CAC456D
:1027200006DD814201D98C4600E084469C4505D1F6
:10273000A760276042F02000A5620DE0AD1BE669AE
:10274000AE1B8142A66000D90846C01A281A206034
:102750005819606022F0200003490840E060002022
:1027600084F84870ABE70000BFCFD7FF2DE9F041F8
:102770000C4607461646104600F06EF82078611C9D
:1027800061280AD0722802D077283CD102E00125C6
:10279000002405E00225042402E0082448F2020592
:1027A00011F8010B2B2806D0622809D011F8010C72
:1027B00074280AD00BE045F0030544F00204EFE76B
:1027C00045F0040544F00104EAE744F010043846FB
:1027D000214604F0ABF8411C15D000213161716035
:1027E0004FF40071F560F1617061200704D5304647
:1027F00002220021FFF73EFF306D40F001003065FE
:102800003046BDE8F0810020FBE72DE9F0410D46A0
:102810000646104C206DC10704D0410804D020F0BA
:102820000104F7E722460EE05420FFF7FDFD070004
:102830000ED0206D47F00101084354212065384631
:1028400000F067F93A4629463046BDE8F0418DE789
:102850000020D6E73C2600082DE9F04704464FF05B
:1028600000094FF0FF37C568D4E90486A80707D0F0
:10287000204600F095FA304604F03FF8002802DACE
:102880003846BDE8F087280502D54046FFF7FBFD36
:102890004C21204600F03DF9206D20F0010020651C
:1028A0004846EEE730B503461D783DB10A4612F8BA
:1028B000014B1CB1AC42FAD15B1CF5E7181A30BDD4
:1028C00040EA010310B59B070FD1042A0DD310C8AD
:1028D00008C9121F9C42F8D020BA19BA884201D9FF
:1028E000012010BD4FF0FF3010BD1AB1D30703D047
:1028F000521C07E0002010BD10F8013B11F8014BFD
:102900001B1B07D110F8013B11F8014B1B1B01D118
:10291000921EF1D1184610BD10B5431C02E010F80C
:10292000011B71B18107FAD14FF0013202C88C1A34
:102930008C4314EAC211F9D0C01A0A0603D0C01E93
:1029400010BDC01A10BD0A0401D0801E10BD0902BE
:10295000FCD0401E10BD032A40F2308010F0030C62
:1029600000F0158011F8013BBCF1020F624498BFE2
:1029700011F801CB00F8013B38BF11F8013BA2F17F
:10298000040298BF00F801CB38BF00F8013B11F0FA
:10299000030300F02580083AC0F0088051F8043B9A
:1029A000083A51F804CBA0E80810F5E7121D5CBF07
:1029B00051F8043B40F8043BAFF30080D20724BF3A
:1029C00011F8013B11F801CB48BF11F8012B24BFCE
:1029D00000F8013B00F801CB48BF00F8012B70471D
:1029E00010B5203AC0F00B80B1E81850A0E818509C
:1029F000B1E81850A0E81850203ABFF4F5AF5FEAEC
:102A0000027C24BFB1E81850A0E8185044BF18C990
:102A100018C0BDE810405FEA827C24BF51F8043B37
:102A200040F8043B08BF7047D20728BF31F8023B8B
:102A300048BF11F8012B28BF20F8023B48BF00F81F
:102A4000012B7047431A28BF9A427FF6C9AF104442
:102A5000114410F0030F1EBF11F8013D521E00F883
:102A6000013D10F0030F7FF4F6AF103AC0F00A807A
:102A700010B531E9185020E91850103ABFF4F9AFF9
:102A8000BDE81040530724BF31E9081020E90810C1
:102A900044BF51F8043D40F8043D12F0030F08BF55
:102AA0007047D20728BF31F8023D48BF11F8012C0A
:102AB00028BF20F8023D48BF00F8012C704702F003
:102AC000FF0343EA032242EA024200F002B84FF059
:102AD00000020429C0F0128010F0030C00F01B80EB
:102AE000CCF1040CBCF1020F18BF00F8012BA8BFF9
:102AF00020F8022BA1EB0C0100F00DB85FEAC17CBD
:102B000024BF00F8012B00F8012B48BF00F8012B6F
:102B100070474FF0000200B51346944696462039A0
:102B200022BFA0E80C50A0E80C50B1F12001BFF486
:102B3000F7AF090728BFA0E80C5048BF0CC05DF8EC
:102B400004EB890028BF40F8042B08BF704748BF3A
:102B500020F8022B11F0804F18BF00F8012B7047AE
:102B600030B44FF0013C50F8042B51F8043BCCFA40
:102B700052F4D51A20D1FCB950F8042B51F8043B7B
:102B8000CCFA52F4D51A17D1B4B950F8042B51F835
:102B9000043BCCFA52F4D51A0ED16CB950F8042B80
:102BA00051F8043BCCFA52F4D51A05D1002CDAD0F6
:102BB00030BC4FF00000704729BAB1FA81F111F032
:102BC0001801D1F120008440F2D1CA40CB4012F06C
:102BD000FF0213F0FF0330BCD01A704770477047F4
:102BE0007047000070B5064C7C44064D7D4403E000
:102BF000206820448047241DAC42F9D170BD0000FC
:102C000024730000247300007047000000487047E0
:102C100038270008704770477047704738B504463A
:102C20000A4600206946AFF30080002808BF38BD7F
:102C300002460099204600F093F9012038BD01209A
:102C400000F0AFB9F8B5AFF30080054600200C46A0
:102C5000102000BF0646A819A0420DD93246694689
:102C60000020AFF30080070008BF00F09AF9009839
:102C7000A04218BF0546C419FFF7C8FF0560074604
:102C8000F01D20F007004619284600F00AF8B4426B
:102C900008BFF8BDA21B31463868BDE8F84000F017
:102CA0005FB900210160C0E9011070471020704732
:102CB00010B50146C268900703D0900607D5886A10
:102CC0000AE0FFF7ADFB01210160881E10BD8B6992
:102CD000486818440B69C01A91F848301BB191F844
:102CE0004910401A10BD1103FCD50028FADD401E22
:102CF00010BD70B5C468A50713D0650211D4B2F534
:102D0000807F09D0B2F5007F06D0B2F5806F08D180
:102D1000012300F1240106E05D1E6FF07F46B542FD
:102D200001D3012070BD0161C361416024F4706171
:102D30001143C160002070BDC16821F4001141F051
:102D40008001C16000218160016070472DE9F0477A
:102D5000814614460E464FF0FF383248D568576911
:102D6000054209D03846A16903F022FE002811DB94
:102D70002C48C0430540E5602B463246494638465C
:102D800003F019FEA16920F00042B21A1144002894
:102D9000A16103D02046FFF7CFFF4046BDE8F08792
:102DA00070B504460569C06A6168884200D8084663
:102DB000E16821F42011E160C90312D5A84208D0CE
:102DC0002246411B2846FFF7C1FF10B14FF0FF30EC
:102DD00070BD0020E562C4E90150E06820F4803055
:102DE000E060002070BD10B50446C06820F02000EF
:102DF000E060A16AA06988420DD02046FFF7D0FFAD
:102E0000E06820F4405040F01000E060A06AA0614B
:102E10002069E062606044F24001E0688843E0605D
:102E200010BD00001000020010B542485421FFF709
:102E300070FE41485421FFF76CFE40485421FFF7D3
:102E400068FE3F493B483C4A3F4B08603D490A60A9
:102E50003A491960531C0365481C10650120086538
:102E60003B48344A39A17844FFF780FC20B9384800
:102E700078440A3800F08EF837482F4A35A1784454
:102E8000FFF774FC20B9344878440A3800F082F81F
:102E900032482A4A2FA17844FFF768FC20B92F480E
:102EA00078440A3800F076F840232248DC000021FC
:102EB0002246FFF71EFF20B125487844543800F021
:102EC00069F81D48224640230021FFF712FF20B178
:102ED00021487844543800F05DF818482246102301
:102EE0000021FFF706FF002806D01C487844BDE803
:102EF0001040563800F04EB810BD104870B5006D47
:102F000020F001040B48FFF7A7FC0B48FFF7A4FCD7
:102F10000A48FFF7A1FC09E0206D20F001052046DA
:102F2000FFF79AFC2046FFF7AEFA2C46002CF3D1AF
:102F300070BD00003C26000890260008E42600082A
:102F400090250008942500089825000872000000CC
:102F5000A66A000077000000956A00006E6A000013
:102F6000034640688C46002818BF88423CBF034691
:102F70004068F8D318681844884207D00CF1030061
:102F800020F00700001D411A521A0146081D0A6070
:102F9000FFF779BA10B500F011F8BDE8104000F065
:102FA00007B810B500F024F8BDE81040AFF300807A
:102FB000002801D003F0A3BC7047000010B5014603
:102FC00002A000F03DF8012010BD00005349475217
:102FD000545245443A2052656469726563743A20DC
:102FE00063616E2774206F70656E3A2000000000E8
:102FF00010B5012805D0002103A000F021F8012020
:1030000010BD09A1F8E7000053494752544D454D02
:103010003A204F7574206F662068656170206D6579
:103020006D6F7279000000003A2048656170206D74
:10303000656D6F727920636F72727570746564006C
:1030400070B505460C460A2000E06D1C03F0C9FC73
:1030500035B128780028F8D102E0641C03F0C1FCE7
:1030600014B120780028F8D1BDE870400A2003F0A0
:10307000B8BC00000549064A06480029074918BFA0
:103080001046054A18BF1146FFF764B9000000005A
:1030900034700008347000083470000800E80F082D
:1030A00080B505F0F9FDBDE8804005F033BD0000B6
:1030B00020B11149096809B1096A0847022070471F
:1030C00021B10D4A12680AB1526A104702207047B6
:1030D0000949096809B1096808470220704700BF1B
:1030E00022B1054B1B680BB19B6918470220704742
:1030F00001490860002070478C6B0008C1480168D6
:1031000021B180B505208847BDE880400020704788
:10311000BC48016821B180B503208847BDE88040E4
:1031200000207047F0B59FB0002518B3CDE91C55BD
:103130001A4D1CAF044608223846294603F074FD98
:10314000A8B9384603F0EFFD0646381D03F0EBFD45
:1031500002280CD168467021FFF7DBFC104886423C
:1031600005D168462946702203F05EFD38B100257E
:10317000042000E00220C0EA05401FB0F0BD684610
:10318000214603F0A1FD050C0104F4D19D4801681E
:1031900009B1062088470020EDE700BF00C00010FD
:1031A000D4B3515AC820704770B59EB00C464FF04A
:1031B000FF311CAACDE91C111DA903F04DFD81B200
:1031C000060CA4B199B96D4670212846FFF7A1FC01
:1031D0001D992846702203F027FD08B1002106E062
:1031E0006846214603F070FD81B2060C19B141EA30
:1031F00006401EB070BD834801680029EED007204C
:103200008847EBE780B548B14421FFF782FC7D4851
:10321000016809B108208847002080BD022080BDD8
:1032200001207047B0B5044603F0BCFC08B102258C
:1032300006E074480025002C046001D00020A0475F
:103240002846B0BD2DE9FC470E464FF0FF31022461
:103250000027002ECDE900113ED01546E2B302242E
:103260000027C8BBA868B8B301A96A46002003F0CC
:10327000F3FCB14604464FEA004ADDF8048059F8F1
:10328000080F03F0D7FC00EB0807702003F0D2FC16
:103290003844002103F030FCA0EB0801BAF1000F24
:1032A00006D10098814203D9012444F6504713E027
:1032B000BAF1000F01D0270C0EE0404603F042FCAB
:1032C00010B10224002707E03046294603F0D2FB64
:1032D0000446070C000404D0C4EA074002B0BDE86D
:1032E000F087702003F0A6FC0246A868414603F070
:1032F0005DFC0028E5D1D9E90001424AC2E902019A
:10330000116809B1012088470024E5E77CB50D4626
:103310004FF0FF3114466A46CDE9001101A903F0D0
:103320009BFC8CB100044FF002000ED1A16861B18A
:103330006668702003F07EFC0199284432460144FF
:10334000A06803F071FC10B1022002B070BD2D48DE
:10335000016809B1042088470020F6E72DE9FE4303
:103360000D464FF0FF31144601AACDE9011102A923
:1033700003F072FCD4B300044FF0020037D1A1680F
:10338000A9B303F007FC0646702003F053FC6768FE
:103390008046DDF80890B7FBF6F000FB167090B1A0
:1033A000184978190023D1E90212401A73EB020080
:1033B00009D3384603F03EFC2168884203D8606890
:1033C00003F038FC0746B7FBF6F000FB167068B94F
:1033D00008EB050000EB0901B1FBF6F000FB16104D
:1033E00020B9A0683A4603F0E1FB18B1022003B00F
:1033F000BDE8F0830348016809B102208847002036
:10340000F5E700BF80280008964B1B6893F829C099
:103410000D23BCF1200F38BF0C239A4042EA816390
:103420000021802200F04EBDB0B5234D0E210022B8
:103430000446A84720460D210022A84720460C211B
:103440000022A84720460B210022A84720460A2137
:103450000022A847204609210022A847204608212B
:103460000022A847204607210022A847204606211F
:103470000022A847204605210022A8472046042113
:103480000022A847204603210022A8472046022107
:103490000022A847204601210022A84720460021FB
:1034A0000022A84760480F212B464068820820462A
:1034B000BDE8B040184700BF0934001069490968E9
:1034C00091F8292000210160202A28BF81605648F8
:1034D00041600020704700BFB0B5044661481F4AF4
:1034E0001F49006890F82930202B38BF11464E4AFA
:1034F0001F2B116002D8124B23600CE023680E4D85
:103500002B400E4D23604B681D51236843F0004350
:1035100023600323A3604B6B01251D51526832B910
:10352000096D806C82002144204600F01BF8204683
:10353000FFF77AFF0020B0BDFFFFFE7F0100020011
:10354000030000804748064A0449006890F82900B3
:103550002028354838BF0A4602607047209900107D
:1035600074990010F8B5304F14460346ED483A6898
:10357000002A56D031B92CB93A4E116D366819442B
:10358000B66CB40000294CD0651E0026B6EBD53FC2
:1035900047D1B4F5807F17D0B4F5007F17D0B4F5CC
:1035A000806F17D0B4F5006F17D0B4F5805F17D0D7
:1035B000B4F5005F17D0B4F5004F17D0B4F5804FC5
:1035C0002FD14FF4804C13E04FF4FE4C10E04FF439
:1035D000FC4C0DE04FF4F84C0AE04FF4F04C07E0DF
:1035E0004FF4E04C04E04FF4C04C01E04FF0000C0D
:1035F0001C4E366896F82960202E38BF43F6FF75BA
:103600000D420ED1202E24BF41F2884043F800C065
:10361000906BA208C15018460F21FFF7F5FE00205D
:103620007C6001B0F0BD00BF04280008DFF848CE80
:10363000DCF800C09CF829C0BCF11F0F88BF00F067
:1036400021BB00F09DB800BFDFF854CFDCF800C00C
:103650009CF829C0BCF11F0F88BF00F077BB00F0B9
:103660002BB900BF346A00081CB59BB18C461146CB
:103670000446624600F090FC0820502100220423FA
:103680000090204600F056FCE84800680068215889
:10369000C906FCD41CBD00BF1CB59BB194461A469C
:1036A0000446634600F078FC0C20512100220823D8
:1036B0000090204600F03EFCDC480068006821587D
:1036C000C906FCD41CBD00BF2DE9F84F81469548C2
:1036D000002952D01446002A4FD0D1F82880D1E9D1
:1036E00002B708690D460E6A002200900BEB080134
:1036F000802001F8010B6FEA0800384483B2484685
:10370000FFF7CAFF3820802F4FEAC60A08BF702093
:1037100080450AD3484629465A4600F099F8BBB27C
:10372000484659460022FFF7B7FF0BEB0700710927
:103730005A4600F801AC00F8021C710B00F8031C9B
:10374000710D00F8041C4846294600F081F8686AAB
:103750000021A1EB9000009901310BE08A78013043
:1037600022704A7862700A78A27011F8012C043134
:10377000E27004340028F1D1002001B0BDE8F08FE0
:10378000062A84BF674870472DE9F041294F4FF45E
:10379000A07C4FF0140E4FF000085424402514264E
:1037A000DFE802F039040F1A1F2A2F00274F4FF4C9
:1037B000807C1C264FF0200E4FF00108602440252D
:1037C00029E0214F4FF4807C4FF0200E4FF001088C
:1037D0006024402520261EE01A4F4FF4207C30261E
:1037E00013E0174F4FF4207C4FF0400E4FF00208CB
:1037F000C024802540260EE00F4F4FF4207C202669
:1038000003E00E4F4FF4207C1C264FF0400E4FF08B
:103810000208C024802518195C19CF624E62C1E9E4
:103820000028C1E90235C1E9044EC1E9060C0020B7
:10383000BDE8F0816495001078960010389600106D
:10384000F8950010B8950010989500107895001024
:103850001CB504464868944600F00700C4F800030D
:1038600020460A698B696146009200F0B3FB0C2088
:10387000082100220423CDE9001020464C2100F04D
:1038800071FBBD480068006821584907FCD41CBD85
:1038900080B58646234869B100220A628A624B6974
:1038A00043B1D1F810C0CA6A9BB270466146FFF7B7
:1038B000DBFE002080BD00BF2DE9F8438046EE48C6
:1038C00069B314465AB3D1F80C900F46B9F1000F02
:1038D00025D01D4613B3396AB86A2944396210E00D
:1038E000B968A9EB00062246B3B201444046FFF78F
:1038F000BBFEBA6840463946FFF7AAFF3444AD1B09
:10390000002029184945EBD2002DB96206D0B968CC
:10391000ABB2224601444046FFF7A6FE002001B0AC
:10392000BDE8F0830B003200934AD2F800C0DCF807
:103930000830C25802F00F02062AFAD8034A42EAB7
:103940000141DCF80C201150704700BF08C0004056
:1039500080B5894BD3F800C0DCF808E050F80E3091
:1039600003F00F03062BF9D841EA0241024A114342
:10397000DCF80C20115080BD00C00042B0B57E4C78
:1039800000F5865ED4F800C0DCF80840055905F063
:103990000F05042DFAD8082904D1DEF80040002CC8
:1039A000FBDB03E0DEF81040002CFBDBDCF80C5006
:1039B00041F0E2412950DCF80C100A50DCF80C1000
:1039C0000B50B0BD10B56C4BD3F800C0DCF808E06C
:1039D00050F80E3003F00F03042BF9D8DCF80C304C
:1039E000044C1C50DCF80C301950DCF80C100A5058
:1039F00010BD00BF0C00007010B5DFF814C6DCF875
:103A000000C0DCF808E050F80E4004F00F04042C6D
:103A1000F9D8DCF80C4041F0E0412150DCF80C1002
:103A20000A50DCF80C100B5010BD00BF0428000831
:103A3000F3B170B50E4608211D460446FFF79EFF00
:103A4000204631462A46FFF7BDFF04E020461021FC
:103A5000FFF76AFF103DA9B21029F7D2280402D05F
:103A60002046FFF761FF2046BDE8704000F016BA1F
:103A70007047DBB170B515461A461E460446FFF77F
:103A8000A1FF05E0204629461022FFF761FF103E06
:103A9000B2B2102AF6D2300403D020462946FFF7EE
:103AA00057FF2046BDE8704000F0F8B970470000AD
:103AB000F84909688A68835803F00F03062BFAD87F
:103AC000C9684FF0C8420A50704700BF80B5F74B35
:103AD000D3F800C0DCF808E050F80E3003F00F0314
:103AE000062BF9D842EA0121DCF80C2041F0D04144
:103AF000115080BDF24AD2F800C0DCF80830C2583C
:103B000002F00F02062AFAD8DCF80C2041F0CE4170
:103B100011507047EA4909688A68835803F00F0317
:103B2000062BFAD8C9684FF0CA420A50704700BF46
:103B300080B5E34BD3F800C0DCF808E050F80E3055
:103B400003F00F03062BF9D842EA0121DCF80C2020
:103B500041F0CC41115080BDD94AD2F800C0DCF808
:103B60000830C25802F00F02062AFAD8DCF80C20FE
:103B700009061150704700BF042800082DE9F047DE
:103B80000446C348002974D09046002A71D0CE68FC
:103B9000D1F820908F6A20460D46FFF789FFDFF8A5
:103BA000DCA02046D047D5E9042320460821FFF7B2
:103BB00023FF6A6920460021FFF7BAFF2046D0475D
:103BC0002046FFF7A7FFAA68204608213B46FFF7DB
:103BD00013FF204600213A46FFF7AAFF2046D047B0
:103BE000204639468022FFF771FF3820802E4FEAA9
:103BF000C90A08BF7020874206D369682046FFF7CC
:103C0000ABFF204600F054F91D4F711F4FEA597267
:103C10002046B847311FC9F347522046B847F11E26
:103C2000C9F347322046B847B11EC9F347122046B0
:103C3000B847711E5FFA8AF22046B8476968204685
:103C4000FFF78AFF204600F033F96B6A20460C210B
:103C50004246FFF7D1FE2046FFF75CFF696A204627
:103C6000FFF748FF41F2F000204401680029FCDB27
:103C70000020BDE8F08700BF0B003200B13E00100D
:103C8000CD3A0010062A84BF0E4870478B600A6048
:103C900050B20DA252F820204A6012A252F8202001
:103CA0004A6217A252F820204A611C4A52F820208A
:103CB000CA621B4A52F82000C860184408610020FC
:103CC000704700BF0B003200690000006A0000006E
:103CD0006A0000006B0000006B0000006B00000039
:103CE0006B000000140000001C0000002000000019
:103CF0003000000040000000200000001C00000018
:103D0000140000002000000020000000400000001F
:103D10004000000040000000400000006C940010D3
:103D20008894001080B58646594869B100220A621D
:103D30008A624B6943B1D1F810C0CA6A9BB270461F
:103D40006146FFF775FE002080BD00BF2DE9F047FA
:103D500004464F48002900F098809046002A00F061
:103D60009480D1F80CA08946BAF1000F08BFBDE8D5
:103D7000F0871E46002B00F08780D9F82000D9F884
:103D800028703044C9F820002046FFF791FE2046F5
:103D900000F08EF8D9E9042320460821FFF72CFE15
:103DA000D9F8142020460021FFF7C2FE204600F07B
:103DB0007FF82046FFF7AEFE77B1D9F808202046FD
:103DC00008213B46FFF718FE204600213A46FFF740
:103DD000AFFE204600F06CF88D480068816862589C
:103DE00002F00F02042AFAD804F586510A68002A64
:103DF000FCDBC168284A0A51C16841F80480C068E8
:103E000006510DE0AAEB0705204639462A46FFF782
:103E10008FFED9F804102046FFF79EFE761B002780
:103E2000F3195345EED2002EC9F8283009D02046A8
:103E300039463246FFF77CFE204600F039F8D9F8C3
:103E400028306BB1D9F8082020460C21FFF7D4FDAB
:103E5000D9F828102046FFF74DFE204600F028F83C
:103E6000D9E9042320460C21FFF7C6FD2046FFF7C1
:103E700051FED9F814102046FFF73CFE204600F012
:103E800017F82046FFF746FE0020BDE8F08700BF88
:103E90000B00320004280008080000715C49096822
:103EA00009684258002AFCD1704700BF0428000866
:103EB0005749096809684258002AFCD1704700BF79
:103EC0000428000870B51A4DD5F800C0BCF1000FE9
:103ED0001ABFDCF8385055F800E04FF0000EDCF85F
:103EE0005040DCF80850465906F00F06062EFAD866
:103EF00043EA0262DCF80C3000291A5003D1211881
:103F00008E4508BF70BDDCF808104258D203FCD5BE
:103F1000EB4ADCF80010126892F82920202A03D21C
:103F200042581206FCD402E04258002AFCD170BD6F
:103F30000428000810B5364ADDF808C0D2F800E0C1
:103F4000DEF8082084582407FCD40124022204FA55
:103F500003F302FA0CF243EA01611143DEF80C208C
:103F6000115010BDB0B52A4A12689468DDE904EC1E
:103F700005592D07FCD40224D26804FA0EF5012459
:103F800004FA03F343EA01610323294303FA0CF320
:103F900019431150B0BD00BFB0B5DFF874C0DCF8F4
:103FA00000C0DCF808E050F80E4004F00F04042CC8
:103FB000F9D8DCF80C40064D2550DCF80C5029509F
:103FC000DCF80C100A50DCF80C100B50B0BD00BF30
:103FD00010020042B0B50E4CDDF810E0D4F800C07D
:103FE000DCF80840055915F00C0FFBD1DCF80C404B
:103FF000084D2550DCF80C402150DCF80C100A501C
:10400000DCF80C100B50DCF80C1041F800E0B0BDEF
:10401000042800081032004310B50446C0051CBF38
:104020005D4810BD01F0C8FDAF4812490160002194
:1040300044608160C160D048006890F8500090B141
:1040400000F0CEFE0C4900FB011400F001FF5549C1
:1040500001304FF47A7260430968B1FBF2F1B0FBB2
:10406000F1F000F698014FF48070BDE8104005F0C3
:10407000DEB900BF0001001C60F59000E048016857
:10408000B1F8AC000A6AD1F8B0301044C05800282A
:1040900009DB95480122006849688A608A68002A1D
:1040A000FCD100F005B80148704700BF0200500085
:1040B00001466FF07040084404281BD90020B1F17C
:1040C000204F21D0184A914204BF4FF4A0007047FE
:1040D000D1B1102904BF16487047402915D0802956
:1040E00016D0B1F5807F02D02B4881420AD10F480B
:1040F00004307047DFE800F003060F1315004FF49B
:10410000A40070470948FD307047094801307047E6
:10411000064803307047064800F5003070470348F2
:104120007047024801307047090000A002005200A9
:1041300001005000B0B50546C00524D10C4611B3AE
:1041400001F03AFD6848154901604FF48071416003
:104150008560C460C848006890F84F00A8B100F0BE
:104160003FFE0F4900FB011400F072FE0D490130C3
:104170004FF47A7260430968B1FBF2F1B0FBF1F0E1
:1041800000F5617102E00448B0BD00214FF4807079
:10419000BDE8B04005F04BB9060052000001000632
:1041A000808D5B00A4250008B34A03291268D2E978
:1041B0000532A0EB02006FF00F0202EAD0001844B3
:1041C00002D80068C90004E06FF01F02406802EBEB
:1041D000C101C84000F01F00704700BF10B503F0D8
:1041E00001030F2402F00F0203FA01FC012303FA7A
:1041F00001FE036823EA0E0343EA0C030360E84B65
:104200001B6893F879E08B009C409A405EF800C0F0
:104210002CEA040422434EF80020029ABDE8104024
:1042200000F020B8DE4B042902F01F021B68D3E91E
:1042300005C3A0EB03006FF00F0303EAD0006FF09B
:104240001F03604403EBC10328BF0430D0F800C053
:1042500038BFCB001F219A4099402CEA010111433D
:1042600001607047E94B042902F01F021B68D3E983
:1042700005C3A0EB03006FF00F0303EAD0006FF05B
:104280001F03604403EBC10328BF0430D0F800C013
:1042900038BFCB001F219A4099402CEA01011143FD
:1042A00001607047F24A1268D2F8B0201258B2F199
:1042B000FF3FCFBF134889B241600020704700BF65
:1042C000346A0008EA4A1268D2F8B0201258B2F1F3
:1042D000FF3FCFBF0B48C06808600020704700BF99
:1042E000014A012100F002B8706B00080368B3F1C5
:1042F000FF3FC4BF0348704789B2C260816000209D
:10430000704700BF01008A0076490A6802B1704711
:104310000860704770B5734C4FF02C0CDEB200FB98
:104320000CFE246800FB0C4044F80E601C0CDFF807
:10433000A8CF8460C3F30724C3EA23434460DCF8B6
:104340000050D5F820E0B5F8AC5006FB05E6066154
:10435000DCF80060366A06EB441606F580554561C8
:1043600041F208057351C0E90721002181610499D8
:1043700009B10988818170BD346A00087CB50446A2
:10438000002001906069C668B6F5803F24D34FF6DF
:10439000FF7126EA01010160B549006809682069DA
:1043A000D1F8B0100958B1F1FF3F15DC01A9FFF7B2
:1043B00089FF08B100250BE00198E3690268D1B2DA
:1043C000150C8B4204D9226A52F8211001B188479A
:1043D00020692946FFF766FFB0B268B161690860DD
:1043E0000868606A18B180470020606202E0A06A35
:1043F00000B180470020A061606900687CBD00BFFB
:10440000346A000837492C22096800FB0210FFF7C4
:10441000B5BF00BF2DE9FE43954E0446006AD4E9BE
:104420000932A78AE16A3668B68ED4E90398A5698D
:1044300037440295ADF8047001AF0097FFF76AFFAB
:10444000002000210022434600904846FFF762FF0B
:10445000216B384600F08CFFBDF90400002808DB12
:1044600000F01F010122400902FA01F1034A42F85B
:104470002010BDE8FE8300BF346A000800E100E0C0
:10448000F0B5184F2C24D7F800C000FB04C516481F
:10449000D5F810E0BEF1000F0DD001FB04C60330CB
:1044A000344654F8187F37B96F687568DEF80060D5
:1044B000B6F1FF3F00DDF0BD4FF48036012006FA73
:1044C00005F51688B84080B235431560CEF80C204B
:1044D000012222602C2201FB02C14B62CEF80800AF
:1044E0000020F0BD386A000804028A002DE9F84374
:1044F000544D074689461B4C2868C6683168B94246
:1045000005D9B9F1000F05D04FF0000806E004F11D
:10451000021422E0FDF77CFF804628680168B1F1B3
:10452000FF3F01DD013412E007F01F010122736833
:1045300002FA01F17A0953F822700F421EBF27EAEE
:10454000010143F8221000240021FFF7ABFEB9F16E
:10455000000F02D14046FDF75FFF204601B0BDE8E5
:10456000F08300BF0201880059B952B940490023C5
:1045700009680A6AB1F8AC1001FB002031490860F3
:1045800008E0054B31B12AB1044BC3E900121946CA
:1045900000F008B81846704703018A008825000813
:1045A000346A0008F8B5184E0C460146002C06F196
:1045B000020026D02E4A126892F82E308B4220D963
:1045C0002368DF061DD1106AB2F8AC201D4F02FB34
:1045D0000105D9083D606068FEF79BFA2846002176
:1045E000FFF760FE386800212246FFF77FFE0028B3
:1045F000304606D138680021FFF754FE002818BF66
:10460000304601B0F0BD00BF01018A00346A0008E5
:104610000C490968C9680A6882429CBF0A48704709
:104620004968420900F01F0051F82210012282401F
:104630000648114200F1010004BF40F20010C0F230
:10464000880070473C6A000804018A000001880065
:1046500007490860704700BF05490968096901EB0F
:1046600080204FF48041405800F00F00704700BF99
:10467000346A000810B5D0F808436FF35F24944201
:1046800088BF1446224600F002F8204610BDD0F83C
:1046900000331B070DD404E0D0F84033013A01F891
:1046A000013B002AF8D106E0D0F84033013A21F866
:1046B000023B002AF8D170470268082918BF022976
:1046C00005D1106840F0004010600020704703469C
:1046D0001148012918BF704759680B68DB0704BFF0
:1046E0004B685FEAC37300D07047D2F808C2D2F8B3
:1046F00008326FF35F2CC3F3C0331CEB030F04BF0E
:10470000D2F808335FEAC353EED180B5104600F00B
:1047100005F8002080BD00BFFF00420002680029AC
:1047200022F00042026004D0002048600860086265
:10473000C862704708694A69904222BF4969401AB5
:1047400070474A69C9690844801A70475A4B002863
:1047500000F0B080002900F0AD802DE9F04191F823
:1047600000C0BCF1020F01D18B7F33B14B685C1EDE
:104770004FF4001363F31F1401E04FF000740B7F3C
:10478000002B4FF0407318BF44F48034D1F808E098
:1047900003EA0C63BEF1090F38BF44F400640460FF
:1047A00003644B7B8C7B0D7C4E7C013B03F0070844
:1047B00064F305184C7F4346002C444618BF403430
:1047C0008F7C002F18BF04F580644FF40077002D14
:1047D00018BF04F58074002E18BF44F40074CD6A2D
:1047E0004FF4702606EB054505F470252C438464D0
:1047F000ACF10204CE7BB4FA84F40D7B6409002E84
:10480000AEF1010608BF670206F00F06002D18BFC3
:1048100006F580763744BCF1010FC0F800738F694C
:104820000D7D67F31745C0F8105308BF03F580737B
:10483000CF7F002F08BF43464364BCF1010F08BF80
:1048400006F58036C0F8006291F83030C0F80433C5
:1048500091F8203091F8217091F8285091F8246057
:104860005B06012F40F66D3708BF03F18073012D01
:1048700008BF03F58033002A3344036591F83830CC
:10488000C0F804324B6B03EA0703C0F8C83F40F29C
:104890007373C96B01EA03014FF00003C0F8881F6E
:1048A000BDE8F04106D0536013601362C2E90233E1
:1048B0001363D362184670470160AA002DE9F041E6
:1048C0000446D0F8000E0D46000740F1C180D4F830
:1048D000CC0F10F448700AD0696801436960C4F8CD
:1048E000C00FD4F8C00F296B09B110208847D4F845
:1048F000CC0F000509D5686840F4006068604FF48B
:104900000060C4F8C00FD4F8C00FD4F8CC0FC007B3
:1049100000F09180EA6922B32668A9692046FFF772
:10492000A9FEE9692A6A02442A620A1A31054FF08F
:104930004001EA6158BF2021002A40D0AB69D4F879
:1049400000738A42C7F3C00700FA07F01844A86151
:104950006CD2D4F80403511E61F30700C4F80403B9
:1049600064E0A868002861D020684FF04008000586
:1049700058BF4FF02008D4F808032F696FF35F2069
:10498000464219E0E8687A1C6969171A18BF174689
:104990008F4206D1296B09B1082088476869874290
:1049A0002AD0D4F84003D4F8001301360907A968C7
:1049B0004CBF21F81700C855002EE3D123E0A868AA
:1049C00068B1E868884238BF0146481ED4F804132D
:1049D000090A61F31F20C4F80403012000E000204D
:1049E000C4F8C80F6868296B20F0010000296860CE
:1049F0001CD00420884719E00020002FC4F8C80FFD
:104A000000D1EF68013F2F612946EE68FFF792FE63
:104A1000301A40450AD2D4F80423411E0028C9B2F6
:104A200022F0FF0218BF0A44C4F804230120C4F88E
:104A3000C00FD4F8C00FD4F8CC0F400708D5296BAD
:104A400009B1402088470420C4F8C00FD4F8C00F33
:104A5000D4F8000E400740F18580D4F88C0F10F494
:104A6000A0600AD0296801432960C4F8800FD4F8F7
:104A7000800F296B09B120208847D4F88C0FC0071C
:104A800050D020688027000558BF4027D4F8001276
:104A9000A86A01F00808022812D3E862421E2046E4
:104AA0006E6A314600F095F84146B8F1000F18BF24
:104AB000012100FA01F131446962A96A081AA86269
:104AC000D4F80812012828D16FF35F218F4224D037
:104AD0000020B8F1000FA862686A14BF0688067843
:104AE000FDF796FC4FF40071C4F84062C4F8801FD3
:104AF000D4F8801FFDF790FCD4F8880F40F40070C4
:104B000020F00100C4F8880F2868296B40F00200EB
:104B10000029286001D0012088470120C4F8800FB7
:104B2000D4F8800FD4F88C0F80050CD50020C4F881
:104B3000880F2A68296B22F0010200292A60E862A6
:104B400001D002208847D4F88C0FC00658BFBDE8BA
:104B5000F081296B09B1802088471020C4F8800FAC
:104B6000D4F8800FBDE8F08109B302B380B5D0F866
:104B700000C04FF0000EC3F810E0C3E90212C3F802
:104B800014E05FEA0C514FF0400158BF20219142E0
:104B900088BF1146D0F804230139120A62F31F219D
:104BA000C0F804130121C0F8C81FBDE88040704759
:104BB000026812054FF0800258BF4022D0F8083238
:104BC0006FF35F239A420EBF0020C0F8401201200D
:104BD000704710B503681B054FF0800358BF402392
:104BE000D0F808426FF35F241C1B944288BF144620
:104BF000224600F002F8204610BDD0F800321B0714
:104C00000DD404E011F8013B013AC0F84032002A0B
:104C1000F8D106E031F8023B013AC0F84032002AF0
:104C2000F8D17047944800680168D0F88400425871
:104C300022F47F42425070472DE9F04186B0494C42
:104C40004949012704EB80004258C2F3011640583D
:104C500000F00F05284600F08FF80328A0460CD975
:104C6000B0F5887F11D040F21111884213D040F284
:104C70001311884225D1206B08E03C4CDFE800F09E
:104C80002202121B3B4884681CE020684FF400415C
:104C900001EA104416E036484FF40041006801EA8A
:104CA00040340FE0D8F8240000F00300032805D1B9
:104CB000EC48C46806E0EB48446903E0D8F82400F7
:104CC00041460024B740FDB1E948006890F83B0038
:104CD000854240D8002001A98DF80800019028469F
:104CE00000F0DCFA08EB8500D0F8F000B0F1FF3FEF
:104CF00031DC9DF8080002282DD09DF804309DF885
:104D000005109DF8060019E001AD14212846FDF7B5
:104D100000FF284600F000FAD8F874109DF80B2028
:104D20000220002A08BF0120B1F1FF3F13DC9DF8EB
:104D3000121002290FD0BDF80810019B01FB00F2F0
:104D400000205FEA50014FEA3200E3FB0401002338
:104D5000FDF7C0FB044604EB5700F04006B0BDE889
:104D6000F08100BF0C05264074FEFFFF00127A00A0
:104D70001000274018280008184A02EB8001096C2F
:104D800001F00701042902BF52F82010082060F347
:104D90005F1188B2704700BF0246B548006890F8BE
:104DA0003A300D48934216D9052905D20B4801F037
:104DB000070100EB82000CE0A1F58073132B88BF84
:104DC000704701F01F00054941F8220001EB820005
:104DD000042101640020704701004A0000032640BE
:104DE000A34800680168D0F880004058000E704762
:104DF00080B50020FFF720FF9D4909680A68D1F8B7
:104E000080108958012202EB116100EB5100B0FBC8
:104E1000F1F080BD80B50020FFF70EFF94490968CE
:104E20000A68D1F880108958012202EB116100EB69
:104E30005100B0FBF1F080BD8D480123006801688E
:104E4000D0F88000425863F31F624250704700BFA1
:104E5000F84800680168D0F880004058C0F3072087
:104E6000704700BFF34800680168D0F880004258DE
:104E700022F47F4242507047346A00082DE9F84F0F
:104E8000774A0139072902F1FD0000F2E680DFE8E8
:104E900001F0040CE410E4E4E46F72490A78002A9B
:104EA00040F0DB800120487060E06E4900204870CF
:104EB000D3E06E4FDFF8ACB1F74E4FF000084FF083
:104EC00002094FF0010A002407F1CC05CBF802805B
:104ED00047E03CB107EB8400D0F8CC00B0F1FF3FD5
:104EE0003EDC02E0386D00283ADA2046FFF744FF46
:104EF00002281AD1FCB155F8240010F0405F06D00A
:104F000055F8240000F04050B0F1805F06D1BBF8A6
:104F100004100AFA04F00843ABF8040055F8240022
:104F200069F31D7045F8240009E0CCB9B86D69F348
:104F30001D70B86514E0B86D69F31D70B865306810
:104F400090F83A0084423EBF07EB8400494940F89C
:104F50000180BBF802100AFA04F00843ABF8020023
:104F60000134306890F83B008442B2D9002074E0EC
:104F70003C4E1046B6F80280B8F1000F58D03A4BBC
:104F80003A4C03E02168002B65D0013B216801F019
:104F900003010329F6D1002B5DD0F149B6F804E0F6
:104FA00000264FF00109D1F800A09AF83B1001F15A
:104FB000010B39E009FA06F717EA080F33D09AF81F
:104FC0003A108E4204D22B4A04EB860102258D5002
:104FD000013356B104F58871751E51F825C0013BA7
:104FE00009D01CF00102F8D005E0216E013B02D08F
:104FF00011F00101F9D07BB186B1701E04F1D0012E
:1050000017EA0E0F51F820500CBF45F0405225F022
:10501000405241F8202005E0002304E0A06D40F05C
:105020004050A065002001365E45C3D10D4E12E010
:105030000E490A6DB2F1FF3F0CDC0F4B0F6E1A46A2
:105040001BB1531C17F00107F8D022B1886D40F056
:105050004050886500200021717001B0BDE8F08FDC
:10506000020042001828000840420F003005264088
:10507000346A000810FEFFFFC0BDF0FFF8B5534DC5
:1050800004462646E86840F00040E86006E010F07C
:10509000040006D1012000F0D7F9013E2869002E56
:1050A000F5D1A8680221002C61F31D70A86000D022
:1050B0001EB1286840F000402860002706E010F08C
:1050C000010006D1012000F0BFF901372869BE4276
:1050D000F5D1F01BB4FA84F118BF0120490901434E
:1050E000A868012903D140F04050A8600BE00222DB
:1050F00062F31D70A860286820F000402860E8680E
:1051000020F00040E8600348002918BF002001B0EB
:10511000F0BD00BF02004A002C490A68C2F30063D8
:105120006FF39F42C37102604A68C2F308436FF392
:105130005F32038182808A68C2F301738373C2F392
:105140000C23838102F00F03D2B212098372C27260
:10515000C968C1F308420282C1F30221817170471C
:105160001A490A68002A2FDB80B50368C2796FF3F9
:105170009F43002A18BF03F180730B608388028964
:105180006FF35F3362F318434B60124B828990F8E0
:105190000EE003EA022C837AC27A03F00F0362F373
:1051A000071303EB0C020EF0030342EA03728A605A
:1051B000CA68837963F30A22CA60CA68008A60F306
:1051C00018420020CA6080BD014870478005264013
:1051D00003004A0000FF1F0080B584466148032990
:1051E00015D8854BD3F800E09EF83D3063450ED9C5
:1051F00009B9082A0CD3012901D1102A08D30229A0
:1052000001D1042A04D3032908BF002A00D080BD9D
:105210009EF86D0001F0030101FA00F09EF86C1099
:1052200011400843DEF8081001EB8C01C1F8000CB6
:10523000002080BD346A00082DE9F041461EEC488C
:105240000D464849006890F83B008642084628BF52
:10525000BDE8F081444888462C4650F8261000F1FD
:10526000400741F0004140F8261006E010F0010030
:1052700007D1012000F0E8F8013C57F82600002C87
:10528000F4D10020002C08BF08F10100002D08BF58
:105290002846BDE8F08100BF346A0008D44A0138CE
:1052A000126892F83B20904224BF2E4870472E4A45
:1052B00052F82000C0F301720A71C0F3C062CA70D4
:1052C000C0F304428A70C0F3042200F07F004A70E9
:1052D00008700020704700BF346A0008F0B502462D
:1052E000C348006890F83B301E48934234D31E4CAC
:1052F000013A54F82230002B2FDB8B789E1E0E2EA5
:105300002AD891F801C0ACF10106112E24D891F8E9
:1053100003E00D7870261627BEF1000F18BF38265F
:1053200018BF1327AF4217D8AE4238BFF0BD087977
:1053300002280AD04FEA0C2141EA03410B4B2944D1
:10534000194041EACE6144F8221054F8221060F36B
:105350001D71002044F82210F0BD0230F0BD00BFE6
:10536000346A000801004A00000626407F1F1F0023
:10537000B0B5D8B1B0F90020174D0E4C02F00F03B4
:10538000B2F1FF3FA3F104032B4403F11003C8BFA4
:105390001319027952011A70104B2A689A4203D1EC
:1053A000B0F9000000F008F80020B0BD0048B0BD22
:1053B0000100560000E400E000F110020648074B2F
:1053C0000068984219BF064850F8220053F822009E
:1053D00043F82210704700BF08ED00E000200008ED
:1053E000002000100120FFF70DB8000080480121C7
:1053F0000068406881607047346A0008F8B5044668
:10540000B0F5004F28BF4FF4004047F6FF710D4E36
:10541000C0432746204400F5004020EA010504E08F
:105420003068FCF7EDFFA7F50047B7F5004FF7D858
:105430000349601B09684843BDE8F840FCF7E0BF3A
:10544000B0250008B4250008024909784843FCF754
:10545000D7BF00BF9C250008026823490A60426844
:105460004A6082688A60C268CA6002690A614269E9
:105470004A6182698A61C269CA611C4A53680B62C7
:1054800093684B6213688B621369CB6252690A633B
:10549000F1EE102A12F0900F08BF00F037B8026A40
:1054A0004A63426A8A63826ACA63C26A0A64026B96
:1054B0004A64426B8A64826BCA64C26B0A65026C7E
:1054C0004A65426C8A65826CCA65C26C0A66026D66
:1054D0004A66426D8A66826DCA66C26D0A67006E50
:1054E000486700F013B800BFBC6F000824ED00E06F
:1054F0000448054900680968090618BF40F480207F
:10550000704700BF0008264004002640FEE77047B1
:1055100005484FF00041016001680448B1F1FF3FC8
:10552000C8BF0020704700BF480027400300460066
:1055300010B5642200284FF0000318BF19228A42D8
:1055400038BF0123E14A0028D2F800C0BCF8A420EB
:10555000DCF800E05EF8024024F003041C444EF83E
:105560000240DCF800E05EF8024024F440744EF89B
:105570000240BCF8A620DCF800E05EF8024024F00F
:10558000030423444EF80230DCF800309C5824F425
:1055900040749C5006D011291BD30220222938BF09
:1055A000012017E09CF85100884212D29CF852006A
:1055B000884217D29CF85300884215D29CF85400B8
:1055C000884213D29CF8552004208A4238BF052017
:1055D00000E00020DCF804100A6822F00F021044FA
:1055E000086010BD0120F5E70220F3E70320F1E792
:1055F000346A000838B102280CD0012814BF0648CC
:1056000000F0B2B870476D48016841F47001016064
:105610000020704700F08CB8FF00420070B50546CE
:1056200000F000FA10B3FCF7F3FE04461D481E49D3
:10563000F5B11E4A1E4D12680A600B214678286893
:1056400061F3040028600320FFF7FEFE00F068FA13
:10565000286866F3040028600720FFF7F5FE00F0D5
:10566000FFF9002000F0D2F8054613E00C4D14E0DD
:1056700000220A600678012000F0C8F8054648B903
:1056800000F01EFA0A48016866F30401016000F0A8
:105690006FFA00252046FCF7BFFE284670BD00BF0C
:1056A0000300420040070016307F26401018001605
:1056B0001CFF264080B540B3C16831B3016821B3F7
:1056C0000179514A02EB810CDCF80810F9B18E46E1
:1056D00007E04B693BB1017E1A7E8A4298BF9E4625
:1056E00019468142F5D181420FD0DEF81010A1B9E0
:1056F0009EF81810027E8A420FD20021C0E9041ED3
:10570000CEF81000CCF8080010E0002080BD002189
:10571000CCF80800C0E9041108E0DEF814100029F4
:10572000C0E904E100D00861CEF81400012080BD7A
:1057300010B5224C206880065CBF624810BD21680D
:105740000848090258BF00F18070216808432060B2
:105750000120FFF779FE206840F0804020600020A3
:1057600010BD00BF0000041610B5144C124821688B
:1057700000F1807009025CBF4FF6FF70CAF6FB4073
:105780002168084020600820FFF75EFE6FF063018B
:105790002268084619B1411CB2F1FF3FF8DC40B164
:1057A000206820F0806020600120FFF74DFE00207F
:1057B00010BD034810BD00BFFFFFFBAC000026403A
:1057C00002004200A0B101790F4A02EB81010831C9
:1057D0000A46136863B103F114028342F9D10A68DF
:1057E000824207D0D0E904124A61406930B906E02C
:1057F00000207047406920B108600021016101204C
:10580000704700200860FAE730280008F8B5934E8A
:1058100005463078002814BF37782127B6F80B00EA
:1058200038B1B6F80B00A0F58070B0FA80F04409EA
:1058300000E001240E20FEF70FFF224A18B184B1C8
:10584000232F18D22AE064B1222F14D8D9484FF25E
:10585000180100684068425865F3186242500022FF
:105860001CE019481446002D00F1020204BF012279
:10587000C0F6004205E01446154A002D08BF06F1A7
:10588000D052CC480068B0F8AC10006A451801212D
:105890002846FEF72BFD0028224602D0104601B014
:1058A000F0BDC4480068D0F8B00029580029FCDBDE
:1058B000E86800F07F40B0F1204018BF104601B00A
:1058C000F0BD00BF040042000100000C346A000873
:1058D000010100307047000080B5FCF799FD0649D2
:1058E0000A6842F470020A60BFF34F8FBFF36F8FF4
:1058F000BDE88040FCF790BD88ED00E000EB811032
:1059000000214FF0FF33C0F80011C0F80811C0F8B3
:105910000C31C0F81031C0F81431C0F8183140F221
:10592000FF33C0F824313F23C0F828310323C0F8E7
:105930003031C0F83411C0F83811916C01311CBFFE
:105940001021C0F82011704703463548002B66D05F
:10595000002A64D010B503EB8114D2E9011ED2E90C
:10596000033C090203F00300002B89B26EF392415D
:1059700041EA00400CF0070140EA0160117F084451
:10598000C4F8000103D0012B14BF01231368BCF13C
:10599000000FC4F8083105D15069C4F80C019069B2
:1059A000C4F810011068C4F81401916C481C18D098
:1059B0000801916A136BD2F838C0D2F840E0C0B247
:1059C00001F00F01084403F00F0140EA01200CF040
:1059D0000F0140EA01404FEA0E3189B20844C4F891
:1059E0002001506AD16A536BD2F83CC000F003002A
:1059F00061F3051003F0030140EA01204FEA8C1126
:105A0000C9B20844516C01F0030140EA8100C4F8B6
:105A10002401106AC4F838010020BDE81040704726
:105A20000100B60010B50D4CB4F80B0030B1B4F85D
:105A30000B00B0F5807F1CBF012010BD0E20FEF7CB
:105A40000BFE227800211AB12278222A88BF012178
:105A5000B0FA80F04009084310BD00BF01000016F5
:105A60005248018819B10088B0F5807F12D1C6482C
:105A70004FF0030C00680168D0F8942053586CF381
:105A8000030353500168D0F8980042586CF30302A6
:105A900042507047B0B5094DBB4A69681268136837
:105AA000D2F89400C458240A64F30921C15028682C
:105AB0001168D2F898205050B0BD00BF20180016D1
:105AC0003A48018819B10088B0F5807F12D1AE48FC
:105AD0004FF0020C00680168D0F8942053586CF322
:105AE000030353500168D0F8980042586CF3030246
:105AF00042507047B0B5094DA34A696812681368EF
:105B0000D2F89400C458240A64F30921C1502868CB
:105B10001168D2F898205050B0BD00BF441800164C
:105B20002248018819B10088B0F5807F0AD19648D3
:105B3000042300680168D0F89400425863F30E32E1
:105B400042507047B0B5094D8F4A696812681368B2
:105B5000D2F89400C458240A64F30921C15028687B
:105B60001168D2F898205050B0BD00BF4C180016F4
:105B70000E48018819B10088B0F5807F04D14FF438
:105B8000C04C6FF4E04105E009484FF440710068F3
:105B900020F4407C7C4A12681368D2F89420D058D4
:105BA000084040EA0C00D050704700BF0C000016BF
:105BB0001C180016346A000870B55B4DD5F88010CB
:105BC00001F00F0245EA8201096C01F00703042B82
:105BD00005D85649DFE803F00F03030305005449D5
:105BE00009E055F8221001F01F034FF4FA41112B80
:105BF00008BF4FF400411AB3013A012A6BD805EBF4
:105C00008203D3F8404305F5407353F8220053F85C
:105C1000226004F0010C00F0405E16F0405F43D0BB
:105C200053F8220000F04050B0F1805418BF012416
:105C3000BEF1405F3ED08CF0010020434BD139E0F3
:105C4000D5F89022D5F88832D5F8884202F00102C2
:105C500003F0405314F0405F0FD0D5F8884204F0B1
:105C60004054B4F1805418BF0124B3F1405F08D010
:105C700082F0010222432ED103E0B3F1405F00D055
:105C80004AB3D5F88022D5F884326FF35F336FF3CF
:105C90009F42B1FBF3F15143D5F88022C2F3006279
:105CA0000132B1FBF2F116E0BEF1405F02D0BCF16F
:105CB000000F10D053F8220000F07F00484353F843
:105CC0002210C1F30421B0FBF1F053F82210C1F30C
:105CD0000441B0FBF1F1D5F88000174A174C0123BD
:105CE000C0F3011021FA00F012498860126826689A
:105CF00053FA92F203EB1663B0FBF2F2B0FBF3F04F
:105D00004FF47A730A614A60C86002F2E730B0FB70
:105D1000F3F00B4B4861C0031A440A4BB2FBF3F299
:105D20000A70886170BD00BF0003264000127A002F
:105D300000366E019C250008080020400810204015
:105D40003F420F0040420F0080B50D48FEF780FC37
:105D5000FFF7C0FDFFF730FF032000210022FEF710
:105D600003FC0848FEF7D0FA0748006890F84D0099
:105D700020B10648BDE88040FEF74CBB80BD00BFA7
:105D8000C899001098280008346A00083498001058
:105D900080B5282000F074FD00214FF0FF3202E0B2
:105DA00040F8212001310A29FAD10149486080BD1B
:105DB0003C27000880B500F0F5FEB0FA80F04009FD
:105DC00080BD00F0E3BE0000F8B5174D0446702119
:105DD000284600F0D1F80646284405F58067B84209
:105DE00009D212A000F0E4FF2846314600F0AAFED6
:105DF000A8B93D4601E004F580642846214600F03C
:105E0000BBF819492844884204D82846214600F0A6
:105E100099FE04E0154800F0CBFF4FF0FF30B0FAD8
:105E200080F0400901B0F0BD00C000105B44424763
:105E3000205D2045726173696E67206865616465E5
:105E4000722073657061726174656C792066726F1F
:105E50006D20616374697665206170706C6963613F
:105E600074696F6E0D0A000000C40F10139D0010BE
:105E70002DE9FE4F79B10E46044600F08BFE304905
:105E80000546B1FBF0F000FB151030B12D4800F0D5
:105E90008FFF30BFFDE700204EE02B484FF0000899
:105EA00006F1080B294EA5F101090027CDF8048061
:105EB00002904FF48040B0FBF5F068430090012061
:105EC00010E0019890B31E494844B0FBF5FA0298DF
:105ED00039440AFB05F200F069FEB0FA80F00AFBD3
:105EE00005774009010625D0DBE90021BB1A78EBD4
:105EF00001031FD24FF0FF303060D01B009A61F1D8
:105F00000001131A78EB010138BF104601906A4670
:105F100020463946FDF7E4F8000402D0306803E07B
:105F200030BF3068411CFBD00428CAD008A000F064
:105F30003FFF002000F0010003B0BDE8F08F00BF7C
:105F400000C40010039D0010302A0008302600080D
:105F50005B444247205D2041524D5F5543505F52A4
:105F60006561642072657475726E656420302062AC
:105F7000797465730D0A000070B504460E18054665
:105F8000B54224BF281B70BD284600F007FE05441B
:105F9000F6E70000B0B5054611A00C4600F008FF7A
:105FA000A068FFF711FFC0B116A000F001FF204666
:105FB00000F04CF988B119A000F0FAFE28462146FD
:105FC000FFF756FF48B11CA000F0F2FE204600F09B
:105FD00041F8B0FA80F04009B0BD0020B0BD00BF6C
:105FE0005B444247205D20457261736520616374A4
:105FF000697665206170706C69636174696F6E0D9C
:106000000A0000005B444247205D205772697465B6
:10601000206865616465720D0A0000005B444247B8
:10602000205D20436F7079206170706C69636174CA
:10603000696F6E0D0A0000005B444247205D2056E8
:106040006572696679206170706C69636174696FEB
:106050006E0D0A002DE9F04FAFB000284FD08046FA
:1060600000F0DEF800284AD0C2465AF8080FDAF8E5
:106070000410084347D00DF12409484602F06FFE92
:1060800048460021002702F06DFE01A82021FCF700
:1060900040FD1F48DAF800508F4E834616E0BDB130
:1060A0002C46B5F5804FABEB050028BF4FF480447C
:1060B000DAF8001022460144304600F0B5FD0746EC
:1060C00048463146224602F05AFE2D1B002FE6D0EC
:1060D00009AC01AD2046294602F034FE204602F00C
:1060E00038FE08F11004294620222046FCF7E8FB80
:1060F00058B1204602F09AFE01A802F097FE012056
:106100002FB0BDE8F08F0220FAE70020F8E700BFCB
:1061100000C400102DE9F04FABB00025002962D07B
:10612000834633480C460DF10809D0E90012806817
:106130002A904846CDE9281202F011FE4846002177
:1061400002F010FE2B4E019408344FF0FF380DF191
:10615000A00A002722E0289AC91BC6F8008060F137
:106160000000531A75EB000038BF114629915246C2
:1061700058463946FCF7B4FF000402D0306803E00B
:1061800030BF3068411CFBD004280ED1299A62B17F
:106190002A99484602F0F3FD29980744D4E90010F3
:1061A0007A1A75EB0002D6D302E013A000F000FECD
:1061B000494D02AC2046294602F0C4FD204602F0BB
:1061C000C8FD01982946202200F110042046FCF762
:1061D00077FB38B1204602F029FE3F4802F026FE48
:1061E000002500E0012528462BB0BDE8F08F00BF58
:1061F00054940010302600085B444247205D204143
:10620000524D5F5543505F526561642072657475ED
:10621000726E656420302062797465730D0A000027
:1062200010B580B1C54C4FF0FF312160FCF740FF45
:10623000000408D100E030BF2068411CFBD00628D4
:1062400004BF012010BD002010BD00BF7FB5B8B352
:10625000064600F09FFC00F16F011D4DB1FBF0F10F
:1062600001FB00F428467021FFF786FEB4F5804F4D
:1062700006D8844209D9174800F09AFD30BFFDE7DF
:10628000144800F095FD30BFFDE713482146FF227A
:10629000FCF715FC1148D0E9001280680390CDE9A5
:1062A000011201A9304600F0E5FB000408D1029874
:1062B000702805D108482946224600F077FC01E005
:1062C0004FF0FF30B0FA80F0400904B070BD00BF5D
:1062D00000C00010039D0010302A000860940010D8
:1062E0002DE9F04FA9B00DF1580848214046FCF7C0
:1062F00010FC04AF48213846FCF70BFC3846FFF78A
:10630000A9FE6C4D00222B6893B1696881B1D3E975
:106310000064DDE904277C405640264307BF0A7825
:106320000132C3E9002700220A7004AF69680A78C5
:1063300002280DD070B9022A0ED807F1100002F021
:1063400075FDDDE904014FF00109CDE916010AE010
:1063500059A004E0032A01D36DA000E060A000F082
:1063600027FD4FF0000908F11000DFF840BA07F1EF
:10637000300408F1300607F1100A4FF0FF350290A3
:1063800008F1080007F10808019089F00100039066
:10639000012056E04FF0FF303946CBF800000020D6
:1063A000FCF78EFE000403D0DBF80000414A06E053
:1063B000404A00E030BFDBF80000411CFAD007285B
:1063C00044D1106848B1D0E90003DDE9041253401C
:1063D0004840184318BF012002E0DDE90412012003
:1063E000DDE91637591A77EB02012DD203990843DC
:1063F000012829D1D8E90001084325D004AF0020A5
:106400003946FFF787FE18B3504602F00FFDD8E972
:106410000001D0F570224FF000028A411AD3DDE965
:106420000423CDE91623019AC2E9000102985146DE
:106430002022FCF790FA94E80F00002586E80F0070
:106440000020C007A6D108E03E4804E03C4802E036
:106450003D4800E03D4800F0ABFC681C17D03C4CC8
:106460003C4F012016AE05E0384600F0A1FC4FF08D
:1064700000090020C00718D0204600F099FC2846EB
:106480003146FFF787FD0028EED0334803E0B9F12D
:10649000000F05D0324800F08BFC4FF0010904E0FA
:1064A0002E4800F085FC4FF0000909F0010029B0EA
:1064B000BDE8F08F902800085B444247205D2041F2
:1064C0006374697665206669726D776172652073A1
:1064D0006C6F7420697320656D7074790D0A00000B
:1064E0005B444247205D204163746976652066699C
:1064F000726D7761726520696E746567726974790F
:1065000020636865636B206661696C65640D0A00D1
:106510005B444247205D204661696C656420746F6E
:1065200020626F6F7420616374697665206170709A
:106530006C69636174696F6E0D0A00003026000893
:106540000D9E00107C9E0010A09D00101F9E00104C
:10655000389E0010809D0010C69D0010EC9D00101C
:10656000589E0010B0B50C464542FBF759FF056038
:106570006148002140F82410B0BD00BF10B50F489D
:1065800000F072F95C48032403E050F8241061B174
:1065900001340F2CF9D9FBF743FF1821016007489C
:1065A00000F062F94FF0FF3406E04FF0FF3140F8A1
:1065B0002410024800F058F9204610BD182A00089F
:1065C0003AB110B5A7480C4602F0ACFC207001208F
:1065D00010BD0020704700BF6FF01C0070476FF0C7
:1065E0001500704700207047F8B59E4E14460D46C2
:1065F000002704E0E95D304602F032FD0137BC427D
:10660000F8D1204601B0F0BD0120704770B50446B6
:106610000848083020600848006840B9914E1D467F
:10662000304602F0C5FC3046294602F069FC20469F
:1066300070BD00BFAC980010A46C0008FBF723BF2E
:106640006FF0150070476FF01800002918BF002088
:1066500070476FF0150070470168896A084700208D
:106660007047016801220B69002118470168896998
:10667000084703681B6918477047016800220B69C7
:10668000002118476FF015007047704770B50F284C
:1066900001DD002519E0184E0446022856F8205066
:1066A00013DC681C11D1204600F02CF8054650B9C7
:1066B000204600F029F8054628B9104D2879BFF387
:1066C0005F8FC00703D046F82450284670BD0B4D9D
:1066D000281D00F0E7F80028F5D0084D08494FF4D0
:1066E000A0224FF416532846FFF790FF287900F0B8
:1066F000FC0001302871E6E7B8250008D027000823
:10670000010005000020704700207047007B7047A3
:10671000F8B51A4D04460E4605F1080000F0A4F83D
:106720000DE0AF6857B13846FCF7F6F8B04205D136
:10673000384621463246FCF7C3F888B104352D6847
:10674000002DEED1072E05D10DA021460722FCF722
:10675000B7F850B10948083000F086F800250AE083
:106760000648083000F080F805E0044C04F1080009
:1067700000F07AF86568284601B0F0BD502700089F
:1067800064656661756C740010B5044600F008F825
:1067900020B16068002818BF043810BD002010BD6B
:1067A000406838B180B5FFF7B1FF0138B0FA80F02A
:1067B000400980BD0020704710B5044600F00DF878
:1067C00020B16068002818BF043810BD002010BD3B
:1067D0004068002818BF01207047406830B180B57C
:1067E000FFF794FFB0FA80F0400980BD00207047A9
:1067F0000068704770B50E46002504460CA1C0E93C
:1068000000553046FCF74EF8304402E02F2A06D0FF
:10681000013541192160425D002AF7D101E00131C3
:1068200021602946FFF774FF6060204670BD00BFFD
:106830002F000000B0B50D46C80701D1002406E0C6
:10684000084802F01DFC0446002818BF0124E80691
:1068500005D5044802F01BFC002818BF1034204660
:10686000B0BD00BF906B00080146006808B9086819
:1068700000B17047081D0860704701207047000094
:106880001CB50446FBF7D0FD08B102B010BD0020D6
:106890000021224600230090014802F0D3F900BFF6
:1068A0001F010180017801F00301012904D0017862
:1068B00001F00302012A01D10020704741F00201DA
:1068C000017001207047F8B51E4614460F46054674
:1068D00001F020FE781C08BFF8BD2846314601F0C3
:1068E0003BFE2846012101F001FE28462146BDE875
:1068F000F84001F02DBE02F0D0B900F07DBAFEE7FD
:1069000010B5FFF7C3FE40B10168896A8847B0F14E
:10691000FF3FC8BF10BD444200E00924FBF780FDE3
:1069200004604FF0FF3010BD02F0C8B8B0B50D469E
:106930001C490446FCF714F978B11B492046FCF7C2
